{
  "_format": "hh-sol-artifact-1",
  "contractName": "Authorization",
  "sourceName": "contracts/Authorization.sol",
  "abi": [
    {
      "inputs": [
        {
          "internalType": "address",
          "name": "verifier_",
          "type": "address"
        }
      ],
      "stateMutability": "nonpayable",
      "type": "constructor"
    },
    {
      "anonymous": false,
      "inputs": [
        {
          "indexed": true,
          "internalType": "address",
          "name": "owner",
          "type": "address"
        },
        {
          "indexed": true,
          "internalType": "uint256",
          "name": "linkId",
          "type": "uint256"
        },
        {
          "indexed": true,
          "internalType": "address",
          "name": "operator",
          "type": "address"
        }
      ],
      "name": "Approval",
      "type": "event"
    },
    {
      "anonymous": false,
      "inputs": [
        {
          "indexed": true,
          "internalType": "address",
          "name": "owner",
          "type": "address"
        },
        {
          "indexed": true,
          "internalType": "string",
          "name": "endNodeUri",
          "type": "string"
        },
        {
          "indexed": true,
          "internalType": "address",
          "name": "operator",
          "type": "address"
        },
        {
          "indexed": false,
          "internalType": "bool",
          "name": "approved",
          "type": "bool"
        }
      ],
      "name": "ApprovalForAll",
      "type": "event"
    },
    {
      "anonymous": false,
      "inputs": [
        {
          "indexed": true,
          "internalType": "address",
          "name": "from",
          "type": "address"
        },
        {
          "indexed": true,
          "internalType": "string",
          "name": "startNFTUri",
          "type": "string"
        },
        {
          "indexed": false,
          "internalType": "uint256",
          "name": "amount",
          "type": "uint256"
        }
      ],
      "name": "Claim",
      "type": "event"
    },
    {
      "anonymous": false,
      "inputs": [
        {
          "indexed": true,
          "internalType": "address",
          "name": "from",
          "type": "address"
        },
        {
          "indexed": true,
          "internalType": "string",
          "name": "startNFTUri",
          "type": "string"
        },
        {
          "indexed": true,
          "internalType": "string",
          "name": "endNFTUri",
          "type": "string"
        }
      ],
      "name": "Mint",
      "type": "event"
    },
    {
      "anonymous": false,
      "inputs": [
        {
          "indexed": true,
          "internalType": "address",
          "name": "from",
          "type": "address"
        },
        {
          "indexed": true,
          "internalType": "string",
          "name": "startNFTUri",
          "type": "string"
        },
        {
          "indexed": false,
          "internalType": "string",
          "name": "proof",
          "type": "string"
        }
      ],
      "name": "Prove",
      "type": "event"
    },
    {
      "anonymous": false,
      "inputs": [
        {
          "indexed": true,
          "internalType": "address",
          "name": "from",
          "type": "address"
        },
        {
          "indexed": true,
          "internalType": "uint256",
          "name": "linkId",
          "type": "uint256"
        },
        {
          "indexed": true,
          "internalType": "string",
          "name": "toEndNFTUri",
          "type": "string"
        }
      ],
      "name": "Transfer",
      "type": "event"
    },
    {
      "inputs": [
        {
          "internalType": "uint256",
          "name": "linkId",
          "type": "uint256"
        },
        {
          "internalType": "address",
          "name": "operator",
          "type": "address"
        }
      ],
      "name": "approve",
      "outputs": [],
      "stateMutability": "nonpayable",
      "type": "function"
    },
    {
      "inputs": [
        {
          "internalType": "string",
          "name": "startNFTUri",
          "type": "string"
        },
        {
          "internalType": "uint256",
          "name": "amount",
          "type": "uint256"
        }
      ],
      "name": "claim",
      "outputs": [],
      "stateMutability": "nonpayable",
      "type": "function"
    },
    {
      "inputs": [
        {
          "internalType": "uint256",
          "name": "index",
          "type": "uint256"
        }
      ],
      "name": "claimByIndex",
      "outputs": [
        {
          "internalType": "string",
          "name": "",
          "type": "string"
        }
      ],
      "stateMutability": "view",
      "type": "function"
    },
    {
      "inputs": [
        {
          "internalType": "uint256",
          "name": "linkId",
          "type": "uint256"
        }
      ],
      "name": "endNodeOf",
      "outputs": [
        {
          "internalType": "string",
          "name": "endNodeUri",
          "type": "string"
        }
      ],
      "stateMutability": "view",
      "type": "function"
    },
    {
      "inputs": [
        {
          "internalType": "string",
          "name": "endNodeUri",
          "type": "string"
        },
        {
          "internalType": "uint256",
          "name": "index",
          "type": "uint256"
        }
      ],
      "name": "inLinkOfByIndex",
      "outputs": [
        {
          "internalType": "uint256",
          "name": "linkId",
          "type": "uint256"
        }
      ],
      "stateMutability": "view",
      "type": "function"
    },
    {
      "inputs": [
        {
          "internalType": "string",
          "name": "endNodeUri",
          "type": "string"
        }
      ],
      "name": "inLinksNumOf",
      "outputs": [
        {
          "internalType": "uint256",
          "name": "num",
          "type": "uint256"
        }
      ],
      "stateMutability": "view",
      "type": "function"
    },
    {
      "inputs": [
        {
          "internalType": "string",
          "name": "endNodeUri",
          "type": "string"
        },
        {
          "internalType": "address",
          "name": "operator",
          "type": "address"
        }
      ],
      "name": "isApprovedForAll",
      "outputs": [
        {
          "internalType": "bool",
          "name": "",
          "type": "bool"
        }
      ],
      "stateMutability": "view",
      "type": "function"
    },
    {
      "inputs": [
        {
          "internalType": "string",
          "name": "startNFTUri",
          "type": "string"
        }
      ],
      "name": "isProved",
      "outputs": [
        {
          "internalType": "bool",
          "name": "proved",
          "type": "bool"
        }
      ],
      "stateMutability": "view",
      "type": "function"
    },
    {
      "inputs": [
        {
          "internalType": "uint256",
          "name": "index",
          "type": "uint256"
        }
      ],
      "name": "linkByIndex",
      "outputs": [
        {
          "internalType": "uint256",
          "name": "",
          "type": "uint256"
        }
      ],
      "stateMutability": "view",
      "type": "function"
    },
    {
      "inputs": [
        {
          "internalType": "string",
          "name": "startNFTUri",
          "type": "string"
        },
        {
          "internalType": "string",
          "name": "endNFTUri",
          "type": "string"
        }
      ],
      "name": "mint",
      "outputs": [],
      "stateMutability": "nonpayable",
      "type": "function"
    },
    {
      "inputs": [],
      "name": "name",
      "outputs": [
        {
          "internalType": "string",
          "name": "",
          "type": "string"
        }
      ],
      "stateMutability": "view",
      "type": "function"
    },
    {
      "inputs": [
        {
          "internalType": "string",
          "name": "startNodeUri",
          "type": "string"
        },
        {
          "internalType": "uint256",
          "name": "index",
          "type": "uint256"
        }
      ],
      "name": "outLinkOfByIndex",
      "outputs": [
        {
          "internalType": "uint256",
          "name": "linkId",
          "type": "uint256"
        }
      ],
      "stateMutability": "view",
      "type": "function"
    },
    {
      "inputs": [
        {
          "internalType": "string",
          "name": "startNodeUri",
          "type": "string"
        }
      ],
      "name": "outLinksNumOf",
      "outputs": [
        {
          "internalType": "uint256",
          "name": "num",
          "type": "uint256"
        }
      ],
      "stateMutability": "view",
      "type": "function"
    },
    {
      "inputs": [
        {
          "internalType": "string",
          "name": "startNFTUri",
          "type": "string"
        },
        {
          "internalType": "string",
          "name": "proof",
          "type": "string"
        }
      ],
      "name": "prove",
      "outputs": [],
      "stateMutability": "nonpayable",
      "type": "function"
    },
    {
      "inputs": [
        {
          "internalType": "string",
          "name": "endNodeUri",
          "type": "string"
        },
        {
          "internalType": "address",
          "name": "operator",
          "type": "address"
        },
        {
          "internalType": "bool",
          "name": "_approved",
          "type": "bool"
        }
      ],
      "name": "setApprovalForAll",
      "outputs": [],
      "stateMutability": "nonpayable",
      "type": "function"
    },
    {
      "inputs": [
        {
          "internalType": "uint256",
          "name": "linkId",
          "type": "uint256"
        }
      ],
      "name": "startNodeOf",
      "outputs": [
        {
          "internalType": "string",
          "name": "startNodeUri",
          "type": "string"
        }
      ],
      "stateMutability": "view",
      "type": "function"
    },
    {
      "inputs": [],
      "name": "symbol",
      "outputs": [
        {
          "internalType": "string",
          "name": "",
          "type": "string"
        }
      ],
      "stateMutability": "view",
      "type": "function"
    },
    {
      "inputs": [],
      "name": "totalClaims",
      "outputs": [
        {
          "internalType": "uint256",
          "name": "",
          "type": "uint256"
        }
      ],
      "stateMutability": "view",
      "type": "function"
    },
    {
      "inputs": [],
      "name": "totalLinks",
      "outputs": [
        {
          "internalType": "uint256",
          "name": "",
          "type": "uint256"
        }
      ],
      "stateMutability": "view",
      "type": "function"
    },
    {
      "inputs": [
        {
          "internalType": "uint256",
          "name": "linkId",
          "type": "uint256"
        },
        {
          "internalType": "string",
          "name": "toEndNFTUri",
          "type": "string"
        }
      ],
      "name": "transfer",
      "outputs": [],
      "stateMutability": "nonpayable",
      "type": "function"
    },
    {
      "inputs": [],
      "name": "verifier",
      "outputs": [
        {
          "internalType": "address",
          "name": "",
          "type": "address"
        }
      ],
      "stateMutability": "view",
      "type": "function"
    }
  ],
  "bytecode": "0x60806040523480156200001157600080fd5b5060405162003e7838038062003e78833981810160405281019062000037919062000183565b6040518060400160405280600d81526020017f417574686f72697a6174696f6e000000000000000000000000000000000000008152506040518060400160405280600481526020017f4155544800000000000000000000000000000000000000000000000000000000815250828282828260009081620000b891906200042f565b508160019081620000ca91906200042f565b5080600260006101000a81548173ffffffffffffffffffffffffffffffffffffffff021916908373ffffffffffffffffffffffffffffffffffffffff1602179055505050505050505062000516565b600080fd5b600073ffffffffffffffffffffffffffffffffffffffff82169050919050565b60006200014b826200011e565b9050919050565b6200015d816200013e565b81146200016957600080fd5b50565b6000815190506200017d8162000152565b92915050565b6000602082840312156200019c576200019b62000119565b5b6000620001ac848285016200016c565b91505092915050565b600081519050919050565b7f4e487b7100000000000000000000000000000000000000000000000000000000600052604160045260246000fd5b7f4e487b7100000000000000000000000000000000000000000000000000000000600052602260045260246000fd5b600060028204905060018216806200023757607f821691505b6020821081036200024d576200024c620001ef565b5b50919050565b60008190508160005260206000209050919050565b60006020601f8301049050919050565b600082821b905092915050565b600060088302620002b77fffffffffffffffffffffffffffffffffffffffffffffffffffffffffffffffff8262000278565b620002c3868362000278565b95508019841693508086168417925050509392505050565b6000819050919050565b6000819050919050565b6000620003106200030a6200030484620002db565b620002e5565b620002db565b9050919050565b6000819050919050565b6200032c83620002ef565b620003446200033b8262000317565b84845462000285565b825550505050565b600090565b6200035b6200034c565b6200036881848462000321565b505050565b5b8181101562000390576200038460008262000351565b6001810190506200036e565b5050565b601f821115620003df57620003a98162000253565b620003b48462000268565b81016020851015620003c4578190505b620003dc620003d38562000268565b8301826200036d565b50505b505050565b600082821c905092915050565b60006200040460001984600802620003e4565b1980831691505092915050565b60006200041f8383620003f1565b9150826002028217905092915050565b6200043a82620001b5565b67ffffffffffffffff811115620004565762000455620001c0565b5b6200046282546200021e565b6200046f82828562000394565b600060209050601f831160018114620004a7576000841562000492578287015190505b6200049e858262000411565b8655506200050e565b601f198416620004b78662000253565b60005b82811015620004e157848901518255600182019150602085019450602081019050620004ba565b86831015620005015784890151620004fd601f891682620003f1565b8355505b6001600288020188555050505b505050505050565b61395280620005266000396000f3fe608060405234801561001057600080fd5b50600436106101375760003560e01c80638aa0fdad116100b8578063c06d86d11161007c578063c06d86d11461038a578063ca32ab86146103ba578063cb7bba61146103d6578063d70e79dc146103f2578063e64d2fb414610422578063febe49091461043e57610137565b80638aa0fdad146102c057806395d89b41146102dc5780639b6fdcc0146102fa578063a32f35e01461032a578063ad5bb4641461035a57610137565b806341c61383116100ff57806341c61383146101f65780635880bdb11461021457806359b361ef146102445780635ecdf043146102605780636a793a6c1461029057610137565b806306fdde031461013c578063092b4de11461015a5780630d277449146101785780632b7ac3f3146101a85780632d67c0c5146101c6575b600080fd5b61014461045a565b60405161015191906127ea565b60405180910390f35b6101626104ec565b60405161016f9190612825565b60405180910390f35b610192600480360381019061018d9190612880565b6104f9565b60405161019f91906127ea565b60405180910390f35b6101b06105b4565b6040516101bd91906128ee565b60405180910390f35b6101e060048036038101906101db9190612880565b6105de565b6040516101ed91906127ea565b60405180910390f35b6101fe6106a1565b60405161020b9190612825565b60405180910390f35b61022e60048036038101906102299190612a3e565b6106ae565b60405161023b9190612825565b60405180910390f35b61025e60048036038101906102599190612afe565b6106e5565b005b61027a60048036038101906102759190612b6d565b6107d0565b6040516102879190612825565b60405180910390f35b6102aa60048036038101906102a59190612b6d565b6107fc565b6040516102b79190612825565b60405180910390f35b6102da60048036038101906102d59190612bb6565b610828565b005b6102e4610aa8565b6040516102f191906127ea565b60405180910390f35b610314600480360381019061030f9190612880565b610b3a565b6040516103219190612825565b60405180910390f35b610344600480360381019061033f9190612c2e565b610bab565b6040516103519190612c99565b60405180910390f35b610374600480360381019061036f9190612a3e565b610c1b565b6040516103819190612825565b60405180910390f35b6103a4600480360381019061039f9190612880565b610c52565b6040516103b191906127ea565b60405180910390f35b6103d460048036038101906103cf9190612cb4565b610d0d565b005b6103f060048036038101906103eb9190612bb6565b61127a565b005b61040c60048036038101906104079190612b6d565b611351565b6040516104199190612c99565b60405180910390f35b61043c60048036038101906104379190612a3e565b611412565b005b61045860048036038101906104539190612d10565b6115ef565b005b60606000805461046990612d7f565b80601f016020809104026020016040519081016040528092919081815260200182805461049590612d7f565b80156104e25780601f106104b7576101008083540402835291602001916104e2565b820191906000526020600020905b8154815290600101906020018083116104c557829003601f168201915b5050505050905090565b6000601580549050905090565b60606006600060096000858152602001908152602001600020600001548152602001908152602001600020805461052f90612d7f565b80601f016020809104026020016040519081016040528092919081815260200182805461055b90612d7f565b80156105a85780601f1061057d576101008083540402835291602001916105a8565b820191906000526020600020905b81548152906001019060200180831161058b57829003601f168201915b50505050509050919050565b6000600260009054906101000a900473ffffffffffffffffffffffffffffffffffffffff16905090565b606060066000600d84815481106105f8576105f7612db0565b5b90600052602060002001548152602001908152602001600020805461061c90612d7f565b80601f016020809104026020016040519081016040528092919081815260200182805461064890612d7f565b80156106955780601f1061066a57610100808354040283529160200191610695565b820191906000526020600020905b81548152906001019060200180831161067857829003601f168201915b50505050509050919050565b6000600d80549050905090565b6000601160006106bd856116bb565b8152602001908152602001600020600083815260200190815260200160002054905092915050565b6106ee83611706565b73ffffffffffffffffffffffffffffffffffffffff163373ffffffffffffffffffffffffffffffffffffffff161461075b576040517f08c379a000000000000000000000000000000000000000000000000000000000815260040161075290612e2b565b60405180910390fd5b80600c6000610769866116bb565b815260200190815260200160002060008473ffffffffffffffffffffffffffffffffffffffff1673ffffffffffffffffffffffffffffffffffffffff16815260200190815260200160002060006101000a81548160ff021916908315150217905550505050565b60006107f5600f60006107e2856116bb565b8152602001908152602001600020611814565b9050919050565b60006108216010600061080e856116bb565b8152602001908152602001600020611814565b9050919050565b61083182611822565b158015610844575061084281611822565b155b610883576040517f08c379a000000000000000000000000000000000000000000000000000000000815260040161087a90612e97565b60405180910390fd5b600061088e836116bb565b9050600060076000838152602001908152602001600020604051806040016040529081600082015481526020016001820160009054906101000a900473ffffffffffffffffffffffffffffffffffffffff1673ffffffffffffffffffffffffffffffffffffffff1673ffffffffffffffffffffffffffffffffffffffff16815250509050600073ffffffffffffffffffffffffffffffffffffffff16816020015173ffffffffffffffffffffffffffffffffffffffff1603610985576040517f08c379a000000000000000000000000000000000000000000000000000000000815260040161097c90612f03565b60405180910390fd5b60006109a260086000858152602001908152602001600020611814565b9050816000015181106109ea576040517f08c379a00000000000000000000000000000000000000000000000000000000081526004016109e190612f6f565b60405180910390fd5b60006109f585611835565b90506000610a036003611814565b9050610a208760405180602001604052806000815250888461194c565b604051806040016040528086815260200183815250600960008381526020019081526020016000206000820151816000015560208201518160010155905050610a7a87604051806020016040528060008152508884611a84565b610a846003611bb4565b610a9f60086000878152602001908152602001600020611bb4565b50505050505050565b606060018054610ab790612d7f565b80601f0160208091040260200160405190810160405280929190818152602001828054610ae390612d7f565b8015610b305780601f10610b0557610100808354040283529160200191610b30565b820191906000526020600020905b815481529060010190602001808311610b1357829003601f168201915b5050505050905090565b6000610b446104ec565b8210610b85576040517f08c379a0000000000000000000000000000000000000000000000000000000008152600401610b7c90613001565b60405180910390fd5b60158281548110610b9957610b98612db0565b5b90600052602060002001549050919050565b6000600c6000610bba856116bb565b815260200190815260200160002060008373ffffffffffffffffffffffffffffffffffffffff1673ffffffffffffffffffffffffffffffffffffffff16815260200190815260200160002060009054906101000a900460ff16905092915050565b600060126000610c2a856116bb565b8152602001908152602001600020600083815260200190815260200160002054905092915050565b606060066000600960008581526020019081526020016000206001015481526020019081526020016000208054610c8890612d7f565b80601f0160208091040260200160405190810160405280929190818152602001828054610cb490612d7f565b8015610d015780601f10610cd657610100808354040283529160200191610d01565b820191906000526020600020905b815481529060010190602001808311610ce457829003601f168201915b50505050509050919050565b600060096000848152602001908152602001600020604051806040016040529081600082015481526020016001820154815250509050610dec60066000836020015181526020019081526020016000208054610d6890612d7f565b80601f0160208091040260200160405190810160405280929190818152602001828054610d9490612d7f565b8015610de15780601f10610db657610100808354040283529160200191610de1565b820191906000526020600020905b815481529060010190602001808311610dc457829003601f168201915b505050505083611bca565b15610e2c576040517f08c379a0000000000000000000000000000000000000000000000000000000008152600401610e239061306d565b60405180910390fd5b6000610e3783611835565b9050610e4284611c2e565b73ffffffffffffffffffffffffffffffffffffffff163373ffffffffffffffffffffffffffffffffffffffff161480610ed95750600b600085815260200190815260200160002060009054906101000a900473ffffffffffffffffffffffffffffffffffffffff1673ffffffffffffffffffffffffffffffffffffffff163373ffffffffffffffffffffffffffffffffffffffff16145b80610f3e5750600c600082815260200190815260200160002060003373ffffffffffffffffffffffffffffffffffffffff1673ffffffffffffffffffffffffffffffffffffffff16815260200190815260200160002060009054906101000a900460ff165b610f7d576040517f08c379a0000000000000000000000000000000000000000000000000000000008152600401610f74906130d9565b60405180910390fd5b6110eb60066000600960008881526020019081526020016000206000015481526020019081526020016000208054610fb490612d7f565b80601f0160208091040260200160405190810160405280929190818152602001828054610fe090612d7f565b801561102d5780601f106110025761010080835404028352916020019161102d565b820191906000526020600020905b81548152906001019060200180831161101057829003601f168201915b50505050506006600060096000898152602001908152602001600020600101548152602001908152602001600020805461106690612d7f565b80601f016020809104026020016040519081016040528092919081815260200182805461109290612d7f565b80156110df5780601f106110b4576101008083540402835291602001916110df565b820191906000526020600020905b8154815290600101906020018083116110c257829003601f168201915b5050505050858761194c565b8060096000868152602001908152602001600020600101819055506112746006600060096000888152602001908152602001600020600001548152602001908152602001600020805461113d90612d7f565b80601f016020809104026020016040519081016040528092919081815260200182805461116990612d7f565b80156111b65780601f1061118b576101008083540402835291602001916111b6565b820191906000526020600020905b81548152906001019060200180831161119957829003601f168201915b5050505050600660006009600089815260200190815260200160002060010154815260200190815260200160002080546111ef90612d7f565b80601f016020809104026020016040519081016040528092919081815260200182805461121b90612d7f565b80156112685780601f1061123d57610100808354040283529160200191611268565b820191906000526020600020905b81548152906001019060200180831161124b57829003601f168201915b50505050508587611a84565b50505050565b6000611285836116bb565b90506007600082815260200190815260200160002060010160009054906101000a900473ffffffffffffffffffffffffffffffffffffffff1673ffffffffffffffffffffffffffffffffffffffff163373ffffffffffffffffffffffffffffffffffffffff161461132b576040517f08c379a000000000000000000000000000000000000000000000000000000000815260040161132290613145565b60405180910390fd5b81600a6000838152602001908152602001600020908161134b9190613311565b50505050565b6000600260009054906101000a900473ffffffffffffffffffffffffffffffffffffffff1673ffffffffffffffffffffffffffffffffffffffff16639deb17f583600a600061139f876116bb565b81526020019081526020016000206040518363ffffffff1660e01b81526004016113ca929190613467565b602060405180830381865afa1580156113e7573d6000803e3d6000fd5b505050506040513d601f19601f8201168201806040525081019061140b91906134b3565b9050919050565b600061141d83611835565b90506000600760008381526020019081526020016000209050600073ffffffffffffffffffffffffffffffffffffffff168160010160009054906101000a900473ffffffffffffffffffffffffffffffffffffffff1673ffffffffffffffffffffffffffffffffffffffff161461154d573373ffffffffffffffffffffffffffffffffffffffff168160010160009054906101000a900473ffffffffffffffffffffffffffffffffffffffff1673ffffffffffffffffffffffffffffffffffffffff1614611520576040517f08c379a000000000000000000000000000000000000000000000000000000000815260040161151790613552565b60405180910390fd5b600081600001548461153291906135a1565b90506000811115611547578382600001819055505b506115e9565b60405180604001604052808481526020013373ffffffffffffffffffffffffffffffffffffffff16815250600760008481526020019081526020016000206000820151816000015560208201518160010160006101000a81548173ffffffffffffffffffffffffffffffffffffffff021916908373ffffffffffffffffffffffffffffffffffffffff1602179055509050506115e882611ded565b5b50505050565b6115f882611c2e565b73ffffffffffffffffffffffffffffffffffffffff163373ffffffffffffffffffffffffffffffffffffffff1614611665576040517f08c379a000000000000000000000000000000000000000000000000000000000815260040161165c90612e2b565b60405180910390fd5b80600b600084815260200190815260200160002060006101000a81548173ffffffffffffffffffffffffffffffffffffffff021916908373ffffffffffffffffffffffffffffffffffffffff1602179055505050565b600080826040516020016116cf91906127ea565b6040516020818303038152906040528051906020012090506005600082815260200190815260200160002060000154915050919050565b6000808273__$bfe9954da5d0c317619e6e625b17f2c42f$__636b0bd8f190916040518263ffffffff1660e01b8152600401611742919061361f565b600060405180830381865af415801561175f573d6000803e3d6000fd5b505050506040513d6000823e3d601f19601f820116820180604052508101906117889190613765565b9050806020015173ffffffffffffffffffffffffffffffffffffffff16636352211e82604001516040518263ffffffff1660e01b81526004016117cb9190612825565b602060405180830381865afa1580156117e8573d6000803e3d6000fd5b505050506040513d601f19601f8201168201806040525081019061180c91906137ae565b915050919050565b600081600001549050919050565b6000808290506000815114915050919050565b6000808260405160200161184991906127ea565b60405160208183030381529060405280519060200120905060016005600083815260200190815260200160002060010160009054906101000a900460ff1660ff16036118ae576005600082815260200190815260200160002060000154915050611947565b60006118ba6004611814565b90506040518060400160405280828152602001600160ff16815250600560008481526020019081526020016000206000820151816000015560208201518160010160006101000a81548160ff021916908360ff160217905550905050836006600083815260200190815260200160002090816119369190613311565b506119416004611bb4565b80925050505b919050565b61195884848484611e36565b6000611963856116bb565b90506000611970856116bb565b9050600061197d856116bb565b9050611a056040518060400160405280600881526020017f66726f6d456e643f0000000000000000000000000000000000000000000000008152506119c188611822565b6040518060400160405280600681526020017f746f456e643f0000000000000000000000000000000000000000000000000000815250611a0089611822565b611e3c565b611a0e86611822565b15611a3557611a1c84611ede565b611a268385611f27565b611a308185611fb3565b611a7b565b611a3e85611822565b15611a6557611a4c8461203f565b611a568385612110565b611a608285612226565b611a7a565b611a6f8285612226565b611a798185611fb3565b5b5b50505050505050565b611a908484848461233c565b6000611a9b856116bb565b90506000611aa8846116bb565b9050611b546040518060400160405280600981526020017f73746172745365713f0000000000000000000000000000000000000000000000815250611afe60106000868152602001908152602001600020611814565b6040518060400160405280600981526020017f746f456e645365713f0000000000000000000000000000000000000000000000815250611b4f600f6000878152602001908152602001600020611814565b612342565b6000611b7160106000858152602001908152602001600020611814565b03611b8057611b7f866123e4565b5b6000611b9d600f6000848152602001908152602001600020611814565b03611bac57611bab8661250b565b5b505050505050565b6001816000016000828254019250508190555050565b60008083604051602001611bde91906127ea565b604051602081830303815290604052805190602001209050600083604051602001611c0991906127ea565b6040516020818303038152906040528051906020012090508082149250505092915050565b60008060066000600960008681526020019081526020016000206001015481526020019081526020016000208054611c6590612d7f565b80601f0160208091040260200160405190810160405280929190818152602001828054611c9190612d7f565b8015611cde5780601f10611cb357610100808354040283529160200191611cde565b820191906000526020600020905b815481529060010190602001808311611cc157829003601f168201915b505050505073__$bfe9954da5d0c317619e6e625b17f2c42f$__636b0bd8f190916040518263ffffffff1660e01b8152600401611d1b919061361f565b600060405180830381865af4158015611d38573d6000803e3d6000fd5b505050506040513d6000823e3d601f19601f82011682018060405250810190611d619190613765565b9050806020015173ffffffffffffffffffffffffffffffffffffffff16636352211e82604001516040518263ffffffff1660e01b8152600401611da49190612825565b602060405180830381865afa158015611dc1573d6000803e3d6000fd5b505050506040513d601f19601f82011682018060405250810190611de591906137ae565b915050919050565b600d80549050600e600083815260200190815260200160002081905550600d81908060018154018082558091505060019003906000526020600020016000909190919091505550565b50505050565b611ed884848484604051602401611e5694939291906137db565b6040516020818303038152906040527f3f8a701d000000000000000000000000000000000000000000000000000000007bffffffffffffffffffffffffffffffffffffffffffffffffffffffff19166020820180517bffffffffffffffffffffffffffffffffffffffffffffffffffffffff83818316178352505050506125a7565b50505050565b6015805490506016600083815260200190815260200160002081905550601581908060018154018082558091505060019003906000526020600020016000909190919091505550565b611f4260106000848152602001908152602001600020611bb4565b60006001611f6160106000868152602001908152602001600020611814565b611f6b91906135a1565b90508160116000858152602001908152602001600020600083815260200190815260200160002081905550806013600084815260200190815260200160002081905550505050565b611fce600f6000848152602001908152602001600020611bb4565b60006001611fed600f6000868152602001908152602001600020611814565b611ff791906135a1565b90508160126000858152602001908152602001600020600083815260200190815260200160002081905550806014600084815260200190815260200160002081905550505050565b6000600160158054905061205391906135a1565b905060006016600084815260200190815260200160002054905060006015838154811061208357612082612db0565b5b9060005260206000200154905080601583815481106120a5576120a4612db0565b5b9060005260206000200181905550816016600083815260200190815260200160002081905550601660008581526020019081526020016000206000905560158054806120f4576120f361382e565b5b6001900381819060005260206000200160009055905550505050565b6000600161212f60106000868152602001908152602001600020611814565b61213991906135a1565b90506000601360008481526020019081526020016000205490508181146121c65760006011600086815260200190815260200160002060008481526020019081526020016000205490508060116000878152602001908152602001600020600084815260200190815260200160002081905550816013600083815260200190815260200160002081905550505b601360008481526020019081526020016000206000905560116000858152602001908152602001600020600083815260200190815260200160002060009055612220601060008681526020019081526020016000206125d0565b50505050565b60006001612245600f6000868152602001908152602001600020611814565b61224f91906135a1565b90506000601460008481526020019081526020016000205490508181146122dc5760006012600086815260200190815260200160002060008481526020019081526020016000205490508060126000878152602001908152602001600020600084815260200190815260200160002081905550816014600083815260200190815260200160002081905550505b601460008481526020019081526020016000206000905560126000858152602001908152602001600020600083815260200190815260200160002060009055612336600f60008681526020019081526020016000206125d0565b50505050565b50505050565b6123de8484848460405160240161235c949392919061385d565b6040516020818303038152906040527fc67ea9d1000000000000000000000000000000000000000000000000000000007bffffffffffffffffffffffffffffffffffffffffffffffffffffffff19166020820180517bffffffffffffffffffffffffffffffffffffffffffffffffffffffff83818316178352505050506125a7565b50505050565b6000816040516020016123f791906127ea565b604051602081830303815290604052805190602001209050600060056000838152602001908152602001600020600001549050600560008381526020019081526020016000206000808201600090556001820160006101000a81549060ff0219169055505060066000828152602001908152602001600020600061247b91906126fd565b600a6000828152602001908152602001600020600061249a91906126fd565b600860008281526020019081526020016000206000808201600090555050600760008281526020019081526020016000206000808201600090556001820160006101000a81549073ffffffffffffffffffffffffffffffffffffffff021916905550506125068161262c565b505050565b60008160405160200161251e91906127ea565b604051602081830303815290604052805190602001209050600060056000838152602001908152602001600020600001549050600560008381526020019081526020016000206000808201600090556001820160006101000a81549060ff021916905550506006600082815260200190815260200160002060006125a291906126fd565b505050565b60008151905060006a636f6e736f6c652e6c6f679050602083016000808483855afa5050505050565b6000816000015490506000811161261c576040517f08c379a0000000000000000000000000000000000000000000000000000000008152600401612613906138fc565b60405180910390fd5b6001810382600001819055505050565b60006001600d8054905061264091906135a1565b90506000600e60008481526020019081526020016000205490506000600d83815481106126705761266f612db0565b5b9060005260206000200154905080600d838154811061269257612691612db0565b5b906000526020600020018190555081600e600083815260200190815260200160002081905550600e600085815260200190815260200160002060009055600d8054806126e1576126e061382e565b5b6001900381819060005260206000200160009055905550505050565b50805461270990612d7f565b6000825580601f1061271b575061273a565b601f016020900490600052602060002090810190612739919061273d565b5b50565b5b8082111561275657600081600090555060010161273e565b5090565b600081519050919050565b600082825260208201905092915050565b60005b83811015612794578082015181840152602081019050612779565b60008484015250505050565b6000601f19601f8301169050919050565b60006127bc8261275a565b6127c68185612765565b93506127d6818560208601612776565b6127df816127a0565b840191505092915050565b6000602082019050818103600083015261280481846127b1565b905092915050565b6000819050919050565b61281f8161280c565b82525050565b600060208201905061283a6000830184612816565b92915050565b6000604051905090565b600080fd5b600080fd5b61285d8161280c565b811461286857600080fd5b50565b60008135905061287a81612854565b92915050565b6000602082840312156128965761289561284a565b5b60006128a48482850161286b565b91505092915050565b600073ffffffffffffffffffffffffffffffffffffffff82169050919050565b60006128d8826128ad565b9050919050565b6128e8816128cd565b82525050565b600060208201905061290360008301846128df565b92915050565b600080fd5b600080fd5b7f4e487b7100000000000000000000000000000000000000000000000000000000600052604160045260246000fd5b61294b826127a0565b810181811067ffffffffffffffff8211171561296a57612969612913565b5b80604052505050565b600061297d612840565b90506129898282612942565b919050565b600067ffffffffffffffff8211156129a9576129a8612913565b5b6129b2826127a0565b9050602081019050919050565b82818337600083830152505050565b60006129e16129dc8461298e565b612973565b9050828152602081018484840111156129fd576129fc61290e565b5b612a088482856129bf565b509392505050565b600082601f830112612a2557612a24612909565b5b8135612a358482602086016129ce565b91505092915050565b60008060408385031215612a5557612a5461284a565b5b600083013567ffffffffffffffff811115612a7357612a7261284f565b5b612a7f85828601612a10565b9250506020612a908582860161286b565b9150509250929050565b612aa3816128cd565b8114612aae57600080fd5b50565b600081359050612ac081612a9a565b92915050565b60008115159050919050565b612adb81612ac6565b8114612ae657600080fd5b50565b600081359050612af881612ad2565b92915050565b600080600060608486031215612b1757612b1661284a565b5b600084013567ffffffffffffffff811115612b3557612b3461284f565b5b612b4186828701612a10565b9350506020612b5286828701612ab1565b9250506040612b6386828701612ae9565b9150509250925092565b600060208284031215612b8357612b8261284a565b5b600082013567ffffffffffffffff811115612ba157612ba061284f565b5b612bad84828501612a10565b91505092915050565b60008060408385031215612bcd57612bcc61284a565b5b600083013567ffffffffffffffff811115612beb57612bea61284f565b5b612bf785828601612a10565b925050602083013567ffffffffffffffff811115612c1857612c1761284f565b5b612c2485828601612a10565b9150509250929050565b60008060408385031215612c4557612c4461284a565b5b600083013567ffffffffffffffff811115612c6357612c6261284f565b5b612c6f85828601612a10565b9250506020612c8085828601612ab1565b9150509250929050565b612c9381612ac6565b82525050565b6000602082019050612cae6000830184612c8a565b92915050565b60008060408385031215612ccb57612cca61284a565b5b6000612cd98582860161286b565b925050602083013567ffffffffffffffff811115612cfa57612cf961284f565b5b612d0685828601612a10565b9150509250929050565b60008060408385031215612d2757612d2661284a565b5b6000612d358582860161286b565b9250506020612d4685828601612ab1565b9150509250929050565b7f4e487b7100000000000000000000000000000000000000000000000000000000600052602260045260246000fd5b60006002820490506001821680612d9757607f821691505b602082108103612daa57612da9612d50565b5b50919050565b7f4e487b7100000000000000000000000000000000000000000000000000000000600052603260045260246000fd5b7f6f776e6572000000000000000000000000000000000000000000000000000000600082015250565b6000612e15600583612765565b9150612e2082612ddf565b602082019050919050565b60006020820190508181036000830152612e4481612e08565b9050919050565b7f557269206973206e6f7420616c6c6f77656420656d7074792100000000000000600082015250565b6000612e81601983612765565b9150612e8c82612e4b565b602082019050919050565b60006020820190508181036000830152612eb081612e74565b9050919050565b7f73746172744e4654557269206973206e6f7420636c61696d6564210000000000600082015250565b6000612eed601b83612765565b9150612ef882612eb7565b602082019050919050565b60006020820190508181036000830152612f1c81612ee0565b9050919050565b7f6d696e742066696e697368000000000000000000000000000000000000000000600082015250565b6000612f59600b83612765565b9150612f6482612f23565b602082019050919050565b60006020820190508181036000830152612f8881612f4c565b9050919050565b7f56616c75654c696e6b456e756d657261626c653a20676c6f62616c20696e646560008201527f78206f7574206f6620626f756e64730000000000000000000000000000000000602082015250565b6000612feb602f83612765565b9150612ff682612f8f565b604082019050919050565b6000602082019050818103600083015261301a81612fde565b9050919050565b7f73616d6520746172676574207572692c206e6f206368616e6765000000000000600082015250565b6000613057601a83612765565b915061306282613021565b602082019050919050565b600060208201905081810360008301526130868161304a565b9050919050565b7f6e6f206f776e6572206f72206e6f20617070726f76616c000000000000000000600082015250565b60006130c3601783612765565b91506130ce8261308d565b602082019050919050565b600060208201905081810360008301526130f2816130b6565b9050919050565b7f6e6f7420636c61696d6572000000000000000000000000000000000000000000600082015250565b600061312f600b83612765565b915061313a826130f9565b602082019050919050565b6000602082019050818103600083015261315e81613122565b9050919050565b60008190508160005260206000209050919050565b60006020601f8301049050919050565b600082821b905092915050565b6000600883026131c77fffffffffffffffffffffffffffffffffffffffffffffffffffffffffffffffff8261318a565b6131d1868361318a565b95508019841693508086168417925050509392505050565b6000819050919050565b600061320e6132096132048461280c565b6131e9565b61280c565b9050919050565b6000819050919050565b613228836131f3565b61323c61323482613215565b848454613197565b825550505050565b600090565b613251613244565b61325c81848461321f565b505050565b5b8181101561328057613275600082613249565b600181019050613262565b5050565b601f8211156132c55761329681613165565b61329f8461317a565b810160208510156132ae578190505b6132c26132ba8561317a565b830182613261565b50505b505050565b600082821c905092915050565b60006132e8600019846008026132ca565b1980831691505092915050565b600061330183836132d7565b9150826002028217905092915050565b61331a8261275a565b67ffffffffffffffff81111561333357613332612913565b5b61333d8254612d7f565b613348828285613284565b600060209050601f83116001811461337b5760008415613369578287015190505b61337385826132f5565b8655506133db565b601f19841661338986613165565b60005b828110156133b15784890151825560018201915060208501945060208101905061338c565b868310156133ce57848901516133ca601f8916826132d7565b8355505b6001600288020188555050505b505050505050565b600081546133f081612d7f565b6133fa8186612765565b94506001821660008114613415576001811461342b5761345e565b60ff19831686528115156020028601935061345e565b61343485613165565b60005b8381101561345657815481890152600182019150602081019050613437565b808801955050505b50505092915050565b6000604082019050818103600083015261348181856127b1565b9050818103602083015261349581846133e3565b90509392505050565b6000815190506134ad81612ad2565b92915050565b6000602082840312156134c9576134c861284a565b5b60006134d78482850161349e565b91505092915050565b7f6f6e6c79206f776e65722063616e2075706461746520746f74616c207375707060008201527f6c79000000000000000000000000000000000000000000000000000000000000602082015250565b600061353c602283612765565b9150613547826134e0565b604082019050919050565b6000602082019050818103600083015261356b8161352f565b9050919050565b7f4e487b7100000000000000000000000000000000000000000000000000000000600052601160045260246000fd5b60006135ac8261280c565b91506135b78361280c565b92508282039050818111156135cf576135ce613572565b5b92915050565b600082825260208201905092915050565b60006135f18261275a565b6135fb81856135d5565b935061360b818560208601612776565b613614816127a0565b840191505092915050565b6000602082019050818103600083015261363981846135e6565b905092915050565b600080fd5b600080fd5b600061365e6136598461298e565b612973565b90508281526020810184848401111561367a5761367961290e565b5b613685848285612776565b509392505050565b600082601f8301126136a2576136a1612909565b5b81516136b284826020860161364b565b91505092915050565b6000815190506136ca81612a9a565b92915050565b6000815190506136df81612854565b92915050565b6000606082840312156136fb576136fa613641565b5b6137056060612973565b9050600082015167ffffffffffffffff81111561372557613724613646565b5b6137318482850161368d565b6000830152506020613745848285016136bb565b6020830152506040613759848285016136d0565b60408301525092915050565b60006020828403121561377b5761377a61284a565b5b600082015167ffffffffffffffff8111156137995761379861284f565b5b6137a5848285016136e5565b91505092915050565b6000602082840312156137c4576137c361284a565b5b60006137d2848285016136bb565b91505092915050565b600060808201905081810360008301526137f581876127b1565b90506138046020830186612c8a565b818103604083015261381681856127b1565b90506138256060830184612c8a565b95945050505050565b7f4e487b7100000000000000000000000000000000000000000000000000000000600052603160045260246000fd5b6000608082019050818103600083015261387781876127b1565b90506138866020830186612816565b818103604083015261389881856127b1565b90506138a76060830184612816565b95945050505050565b7f436f756e7465723a2064656372656d656e74206f766572666c6f770000000000600082015250565b60006138e6601b83612765565b91506138f1826138b0565b602082019050919050565b60006020820190508181036000830152613915816138d9565b905091905056fea264697066735822122080b24e06d231972d4c64dc58101c9f6817ef909345f95d5bfe0a66d062058e2864736f6c63430008110033",
  "linkReferences": {
    "contracts/NFTUri.sol": {
      "NFTUri": [
        {
          "length": 20,
          "start": 7218
        },
        {
          "length": 20,
          "start": 8715
        }
      ]
    }
  },
  "deployedLinkReferences": {
    "contracts/NFTUri.sol": {
      "NFTUri": [
        {
          "length": 20,
          "start": 5900
        },
        {
          "length": 20,
          "start": 7397
        }
      ]
    }
  }
}