{
  "_format": "hh-sol-artifact-1",
  "contractName": "Authorization",
  "sourceName": "contracts/Authorization.sol",
  "abi": [
    {
      "inputs": [
        {
          "internalType": "address",
          "name": "verifier_",
          "type": "address"
        }
      ],
      "stateMutability": "nonpayable",
      "type": "constructor"
    },
    {
      "anonymous": false,
      "inputs": [
        {
          "indexed": true,
          "internalType": "address",
          "name": "owner",
          "type": "address"
        },
        {
          "indexed": true,
          "internalType": "uint256",
          "name": "linkId",
          "type": "uint256"
        },
        {
          "indexed": true,
          "internalType": "address",
          "name": "operator",
          "type": "address"
        }
      ],
      "name": "Approval",
      "type": "event"
    },
    {
      "anonymous": false,
      "inputs": [
        {
          "indexed": true,
          "internalType": "address",
          "name": "owner",
          "type": "address"
        },
        {
          "indexed": true,
          "internalType": "string",
          "name": "endNodeUri",
          "type": "string"
        },
        {
          "indexed": true,
          "internalType": "address",
          "name": "operator",
          "type": "address"
        },
        {
          "indexed": false,
          "internalType": "bool",
          "name": "approved",
          "type": "bool"
        }
      ],
      "name": "ApprovalForAll",
      "type": "event"
    },
    {
      "anonymous": false,
      "inputs": [
        {
          "indexed": true,
          "internalType": "address",
          "name": "from",
          "type": "address"
        },
        {
          "indexed": true,
          "internalType": "string",
          "name": "startNFTUri",
          "type": "string"
        },
        {
          "indexed": false,
          "internalType": "uint256",
          "name": "amount",
          "type": "uint256"
        }
      ],
      "name": "Claim",
      "type": "event"
    },
    {
      "anonymous": false,
      "inputs": [
        {
          "indexed": true,
          "internalType": "address",
          "name": "from",
          "type": "address"
        },
        {
          "indexed": true,
          "internalType": "string",
          "name": "startNFTUri",
          "type": "string"
        },
        {
          "indexed": true,
          "internalType": "string",
          "name": "endNFTUri",
          "type": "string"
        }
      ],
      "name": "Mint",
      "type": "event"
    },
    {
      "anonymous": false,
      "inputs": [
        {
          "indexed": true,
          "internalType": "address",
          "name": "from",
          "type": "address"
        },
        {
          "indexed": true,
          "internalType": "string",
          "name": "startNFTUri",
          "type": "string"
        },
        {
          "indexed": false,
          "internalType": "string",
          "name": "proof",
          "type": "string"
        }
      ],
      "name": "Prove",
      "type": "event"
    },
    {
      "anonymous": false,
      "inputs": [
        {
          "indexed": true,
          "internalType": "address",
          "name": "from",
          "type": "address"
        },
        {
          "indexed": true,
          "internalType": "uint256",
          "name": "linkId",
          "type": "uint256"
        },
        {
          "indexed": true,
          "internalType": "string",
          "name": "toEndNFTUri",
          "type": "string"
        }
      ],
      "name": "Transfer",
      "type": "event"
    },
    {
      "inputs": [
        {
          "internalType": "uint256",
          "name": "linkId",
          "type": "uint256"
        },
        {
          "internalType": "address",
          "name": "operator",
          "type": "address"
        }
      ],
      "name": "approve",
      "outputs": [],
      "stateMutability": "nonpayable",
      "type": "function"
    },
    {
      "inputs": [
        {
          "internalType": "string",
          "name": "startNFTUri",
          "type": "string"
        },
        {
          "internalType": "uint256",
          "name": "amount",
          "type": "uint256"
        }
      ],
      "name": "claim",
      "outputs": [],
      "stateMutability": "nonpayable",
      "type": "function"
    },
    {
      "inputs": [
        {
          "internalType": "uint256",
          "name": "index",
          "type": "uint256"
        }
      ],
      "name": "claimByIndex",
      "outputs": [
        {
          "internalType": "string",
          "name": "",
          "type": "string"
        }
      ],
      "stateMutability": "view",
      "type": "function"
    },
    {
      "inputs": [
        {
          "internalType": "uint256",
          "name": "linkId",
          "type": "uint256"
        }
      ],
      "name": "endNodeOf",
      "outputs": [
        {
          "internalType": "string",
          "name": "endNodeUri",
          "type": "string"
        }
      ],
      "stateMutability": "view",
      "type": "function"
    },
    {
      "inputs": [
        {
          "internalType": "string",
          "name": "endNodeUri",
          "type": "string"
        },
        {
          "internalType": "uint256",
          "name": "index",
          "type": "uint256"
        }
      ],
      "name": "inLinkOfByIndex",
      "outputs": [
        {
          "internalType": "uint256",
          "name": "linkId",
          "type": "uint256"
        }
      ],
      "stateMutability": "view",
      "type": "function"
    },
    {
      "inputs": [
        {
          "internalType": "string",
          "name": "endNodeUri",
          "type": "string"
        }
      ],
      "name": "inLinksNumOf",
      "outputs": [
        {
          "internalType": "uint256",
          "name": "num",
          "type": "uint256"
        }
      ],
      "stateMutability": "view",
      "type": "function"
    },
    {
      "inputs": [
        {
          "internalType": "string",
          "name": "endNodeUri",
          "type": "string"
        },
        {
          "internalType": "address",
          "name": "operator",
          "type": "address"
        }
      ],
      "name": "isApprovedForAll",
      "outputs": [
        {
          "internalType": "bool",
          "name": "",
          "type": "bool"
        }
      ],
      "stateMutability": "view",
      "type": "function"
    },
    {
      "inputs": [
        {
          "internalType": "string",
          "name": "startNFTUri",
          "type": "string"
        }
      ],
      "name": "isProved",
      "outputs": [
        {
          "internalType": "bool",
          "name": "proved",
          "type": "bool"
        }
      ],
      "stateMutability": "view",
      "type": "function"
    },
    {
      "inputs": [
        {
          "internalType": "uint256",
          "name": "index",
          "type": "uint256"
        }
      ],
      "name": "linkByIndex",
      "outputs": [
        {
          "internalType": "uint256",
          "name": "",
          "type": "uint256"
        }
      ],
      "stateMutability": "view",
      "type": "function"
    },
    {
      "inputs": [
        {
          "internalType": "string",
          "name": "startNFTUri",
          "type": "string"
        },
        {
          "internalType": "string",
          "name": "endNFTUri",
          "type": "string"
        }
      ],
      "name": "mint",
      "outputs": [],
      "stateMutability": "nonpayable",
      "type": "function"
    },
    {
      "inputs": [],
      "name": "name",
      "outputs": [
        {
          "internalType": "string",
          "name": "",
          "type": "string"
        }
      ],
      "stateMutability": "view",
      "type": "function"
    },
    {
      "inputs": [
        {
          "internalType": "string",
          "name": "startNodeUri",
          "type": "string"
        },
        {
          "internalType": "uint256",
          "name": "index",
          "type": "uint256"
        }
      ],
      "name": "outLinkOfByIndex",
      "outputs": [
        {
          "internalType": "uint256",
          "name": "linkId",
          "type": "uint256"
        }
      ],
      "stateMutability": "view",
      "type": "function"
    },
    {
      "inputs": [
        {
          "internalType": "string",
          "name": "startNodeUri",
          "type": "string"
        }
      ],
      "name": "outLinksNumOf",
      "outputs": [
        {
          "internalType": "uint256",
          "name": "num",
          "type": "uint256"
        }
      ],
      "stateMutability": "view",
      "type": "function"
    },
    {
      "inputs": [
        {
          "internalType": "string",
          "name": "startNFTUri",
          "type": "string"
        },
        {
          "internalType": "string",
          "name": "proof",
          "type": "string"
        }
      ],
      "name": "prove",
      "outputs": [],
      "stateMutability": "nonpayable",
      "type": "function"
    },
    {
      "inputs": [
        {
          "internalType": "string",
          "name": "endNodeUri",
          "type": "string"
        },
        {
          "internalType": "address",
          "name": "operator",
          "type": "address"
        },
        {
          "internalType": "bool",
          "name": "_approved",
          "type": "bool"
        }
      ],
      "name": "setApprovalForAll",
      "outputs": [],
      "stateMutability": "nonpayable",
      "type": "function"
    },
    {
      "inputs": [
        {
          "internalType": "uint256",
          "name": "linkId",
          "type": "uint256"
        }
      ],
      "name": "startNodeOf",
      "outputs": [
        {
          "internalType": "string",
          "name": "startNodeUri",
          "type": "string"
        }
      ],
      "stateMutability": "view",
      "type": "function"
    },
    {
      "inputs": [],
      "name": "symbol",
      "outputs": [
        {
          "internalType": "string",
          "name": "",
          "type": "string"
        }
      ],
      "stateMutability": "view",
      "type": "function"
    },
    {
      "inputs": [],
      "name": "totalClaims",
      "outputs": [
        {
          "internalType": "uint256",
          "name": "",
          "type": "uint256"
        }
      ],
      "stateMutability": "view",
      "type": "function"
    },
    {
      "inputs": [],
      "name": "totalLinks",
      "outputs": [
        {
          "internalType": "uint256",
          "name": "",
          "type": "uint256"
        }
      ],
      "stateMutability": "view",
      "type": "function"
    },
    {
      "inputs": [
        {
          "internalType": "uint256",
          "name": "linkId",
          "type": "uint256"
        },
        {
          "internalType": "string",
          "name": "toEndNFTUri",
          "type": "string"
        }
      ],
      "name": "transfer",
      "outputs": [],
      "stateMutability": "nonpayable",
      "type": "function"
    }
  ],
  "bytecode": "0x60806040523480156200001157600080fd5b5060405162003a9e38038062003a9e833981810160405281019062000037919062000183565b6040518060400160405280600d81526020017f417574686f72697a6174696f6e000000000000000000000000000000000000008152506040518060400160405280600481526020017f4155544800000000000000000000000000000000000000000000000000000000815250828282828260009081620000b891906200042f565b508160019081620000ca91906200042f565b5080600260006101000a81548173ffffffffffffffffffffffffffffffffffffffff021916908373ffffffffffffffffffffffffffffffffffffffff1602179055505050505050505062000516565b600080fd5b600073ffffffffffffffffffffffffffffffffffffffff82169050919050565b60006200014b826200011e565b9050919050565b6200015d816200013e565b81146200016957600080fd5b50565b6000815190506200017d8162000152565b92915050565b6000602082840312156200019c576200019b62000119565b5b6000620001ac848285016200016c565b91505092915050565b600081519050919050565b7f4e487b7100000000000000000000000000000000000000000000000000000000600052604160045260246000fd5b7f4e487b7100000000000000000000000000000000000000000000000000000000600052602260045260246000fd5b600060028204905060018216806200023757607f821691505b6020821081036200024d576200024c620001ef565b5b50919050565b60008190508160005260206000209050919050565b60006020601f8301049050919050565b600082821b905092915050565b600060088302620002b77fffffffffffffffffffffffffffffffffffffffffffffffffffffffffffffffff8262000278565b620002c3868362000278565b95508019841693508086168417925050509392505050565b6000819050919050565b6000819050919050565b6000620003106200030a6200030484620002db565b620002e5565b620002db565b9050919050565b6000819050919050565b6200032c83620002ef565b620003446200033b8262000317565b84845462000285565b825550505050565b600090565b6200035b6200034c565b6200036881848462000321565b505050565b5b8181101562000390576200038460008262000351565b6001810190506200036e565b5050565b601f821115620003df57620003a98162000253565b620003b48462000268565b81016020851015620003c4578190505b620003dc620003d38562000268565b8301826200036d565b50505b505050565b600082821c905092915050565b60006200040460001984600802620003e4565b1980831691505092915050565b60006200041f8383620003f1565b9150826002028217905092915050565b6200043a82620001b5565b67ffffffffffffffff811115620004565762000455620001c0565b5b6200046282546200021e565b6200046f82828562000394565b600060209050601f831160018114620004a7576000841562000492578287015190505b6200049e858262000411565b8655506200050e565b601f198416620004b78662000253565b60005b82811015620004e157848901518255600182019150602085019450602081019050620004ba565b86831015620005015784890151620004fd601f891682620003f1565b8355505b6001600288020188555050505b505050505050565b61357880620005266000396000f3fe608060405234801561001057600080fd5b506004361061012c5760003560e01c806395d89b41116100ad578063ca32ab8611610071578063ca32ab8614610391578063cb7bba61146103ad578063d70e79dc146103c9578063e64d2fb4146103f9578063febe4909146104155761012c565b806395d89b41146102b35780639b6fdcc0146102d1578063a32f35e014610301578063ad5bb46414610331578063c06d86d1146103615761012c565b80635880bdb1116100f45780635880bdb1146101eb57806359b361ef1461021b5780635ecdf043146102375780636a793a6c146102675780638aa0fdad146102975761012c565b806306fdde0314610131578063092b4de11461014f5780630d2774491461016d5780632d67c0c51461019d57806341c61383146101cd575b600080fd5b610139610431565b60405161014691906124e0565b60405180910390f35b6101576104c3565b604051610164919061251b565b60405180910390f35b61018760048036038101906101829190612576565b6104d0565b60405161019491906124e0565b60405180910390f35b6101b760048036038101906101b29190612576565b61058b565b6040516101c491906124e0565b60405180910390f35b6101d5610643565b6040516101e2919061251b565b60405180910390f35b610205600480360381019061020091906126d8565b610650565b604051610212919061251b565b60405180910390f35b610235600480360381019061023091906127ca565b610687565b005b610251600480360381019061024c9190612839565b610772565b60405161025e919061251b565b60405180910390f35b610281600480360381019061027c9190612839565b61079e565b60405161028e919061251b565b60405180910390f35b6102b160048036038101906102ac9190612882565b6107ca565b005b6102bb610a3b565b6040516102c891906124e0565b60405180910390f35b6102eb60048036038101906102e69190612576565b610acd565b6040516102f8919061251b565b60405180910390f35b61031b600480360381019061031691906128fa565b610b3e565b6040516103289190612965565b60405180910390f35b61034b600480360381019061034691906126d8565b610bae565b604051610358919061251b565b60405180910390f35b61037b60048036038101906103769190612576565b610be5565b60405161038891906124e0565b60405180910390f35b6103ab60048036038101906103a69190612980565b610ca0565b005b6103c760048036038101906103c29190612882565b61120d565b005b6103e360048036038101906103de9190612839565b6112e4565b6040516103f09190612965565b60405180910390f35b610413600480360381019061040e91906126d8565b6113a5565b005b61042f600480360381019061042a91906129dc565b611582565b005b60606000805461044090612a4b565b80601f016020809104026020016040519081016040528092919081815260200182805461046c90612a4b565b80156104b95780601f1061048e576101008083540402835291602001916104b9565b820191906000526020600020905b81548152906001019060200180831161049c57829003601f168201915b5050505050905090565b6000601580549050905090565b60606006600060096000858152602001908152602001600020600001548152602001908152602001600020805461050690612a4b565b80601f016020809104026020016040519081016040528092919081815260200182805461053290612a4b565b801561057f5780601f106105545761010080835404028352916020019161057f565b820191906000526020600020905b81548152906001019060200180831161056257829003601f168201915b50505050509050919050565b606060066000600e600085815260200190815260200160002054815260200190815260200160002080546105be90612a4b565b80601f01602080910402602001604051908101604052809291908181526020018280546105ea90612a4b565b80156106375780601f1061060c57610100808354040283529160200191610637565b820191906000526020600020905b81548152906001019060200180831161061a57829003601f168201915b50505050509050919050565b6000600d80549050905090565b60006011600061065f8561164e565b8152602001908152602001600020600083815260200190815260200160002054905092915050565b61069083611699565b73ffffffffffffffffffffffffffffffffffffffff163373ffffffffffffffffffffffffffffffffffffffff16146106fd576040517f08c379a00000000000000000000000000000000000000000000000000000000081526004016106f490612ac8565b60405180910390fd5b80600c600061070b8661164e565b815260200190815260200160002060008473ffffffffffffffffffffffffffffffffffffffff1673ffffffffffffffffffffffffffffffffffffffff16815260200190815260200160002060006101000a81548160ff021916908315150217905550505050565b6000610797600f60006107848561164e565b81526020019081526020016000206117a7565b9050919050565b60006107c3601060006107b08561164e565b81526020019081526020016000206117a7565b9050919050565b6107d3826117b5565b1580156107e657506107e4816117b5565b155b610825576040517f08c379a000000000000000000000000000000000000000000000000000000000815260040161081c90612b34565b60405180910390fd5b6000610830836117c8565b9050600060076000838152602001908152602001600020604051806040016040529081600082015481526020016001820160009054906101000a900473ffffffffffffffffffffffffffffffffffffffff1673ffffffffffffffffffffffffffffffffffffffff1673ffffffffffffffffffffffffffffffffffffffff16815250509050600073ffffffffffffffffffffffffffffffffffffffff16816020015173ffffffffffffffffffffffffffffffffffffffff1603610927576040517f08c379a000000000000000000000000000000000000000000000000000000000815260040161091e90612ba0565b60405180910390fd5b6000610944600860008581526020019081526020016000206117a7565b90508160000151811061098c576040517f08c379a000000000000000000000000000000000000000000000000000000000815260040161098390612c0c565b60405180910390fd5b6000610997856117c8565b90506109b4866040518060200160405280600081525087856118df565b604051806040016040528085815260200182815250600960008481526020019081526020016000206000820151816000015560208201518160010155905050610a0e86604051806020016040528060008152508785611991565b610a186003611a17565b610a3360086000868152602001908152602001600020611a17565b505050505050565b606060018054610a4a90612a4b565b80601f0160208091040260200160405190810160405280929190818152602001828054610a7690612a4b565b8015610ac35780601f10610a9857610100808354040283529160200191610ac3565b820191906000526020600020905b815481529060010190602001808311610aa657829003601f168201915b5050505050905090565b6000610ad76104c3565b8210610b18576040517f08c379a0000000000000000000000000000000000000000000000000000000008152600401610b0f90612c9e565b60405180910390fd5b60158281548110610b2c57610b2b612cbe565b5b90600052602060002001549050919050565b6000600c6000610b4d8561164e565b815260200190815260200160002060008373ffffffffffffffffffffffffffffffffffffffff1673ffffffffffffffffffffffffffffffffffffffff16815260200190815260200160002060009054906101000a900460ff16905092915050565b600060126000610bbd8561164e565b8152602001908152602001600020600083815260200190815260200160002054905092915050565b606060066000600960008581526020019081526020016000206001015481526020019081526020016000208054610c1b90612a4b565b80601f0160208091040260200160405190810160405280929190818152602001828054610c4790612a4b565b8015610c945780601f10610c6957610100808354040283529160200191610c94565b820191906000526020600020905b815481529060010190602001808311610c7757829003601f168201915b50505050509050919050565b600060096000848152602001908152602001600020604051806040016040529081600082015481526020016001820154815250509050610d7f60066000836020015181526020019081526020016000208054610cfb90612a4b565b80601f0160208091040260200160405190810160405280929190818152602001828054610d2790612a4b565b8015610d745780601f10610d4957610100808354040283529160200191610d74565b820191906000526020600020905b815481529060010190602001808311610d5757829003601f168201915b505050505083611a2d565b15610dbf576040517f08c379a0000000000000000000000000000000000000000000000000000000008152600401610db690612d39565b60405180910390fd5b6000610dca836117c8565b9050610dd584611a91565b73ffffffffffffffffffffffffffffffffffffffff163373ffffffffffffffffffffffffffffffffffffffff161480610e6c5750600b600085815260200190815260200160002060009054906101000a900473ffffffffffffffffffffffffffffffffffffffff1673ffffffffffffffffffffffffffffffffffffffff163373ffffffffffffffffffffffffffffffffffffffff16145b80610ed15750600c600082815260200190815260200160002060003373ffffffffffffffffffffffffffffffffffffffff1673ffffffffffffffffffffffffffffffffffffffff16815260200190815260200160002060009054906101000a900460ff165b610f10576040517f08c379a0000000000000000000000000000000000000000000000000000000008152600401610f0790612da5565b60405180910390fd5b61107e60066000600960008881526020019081526020016000206000015481526020019081526020016000208054610f4790612a4b565b80601f0160208091040260200160405190810160405280929190818152602001828054610f7390612a4b565b8015610fc05780601f10610f9557610100808354040283529160200191610fc0565b820191906000526020600020905b815481529060010190602001808311610fa357829003601f168201915b505050505060066000600960008981526020019081526020016000206001015481526020019081526020016000208054610ff990612a4b565b80601f016020809104026020016040519081016040528092919081815260200182805461102590612a4b565b80156110725780601f1061104757610100808354040283529160200191611072565b820191906000526020600020905b81548152906001019060200180831161105557829003601f168201915b505050505085876118df565b806009600086815260200190815260200160002060010181905550611207600660006009600088815260200190815260200160002060000154815260200190815260200160002080546110d090612a4b565b80601f01602080910402602001604051908101604052809291908181526020018280546110fc90612a4b565b80156111495780601f1061111e57610100808354040283529160200191611149565b820191906000526020600020905b81548152906001019060200180831161112c57829003601f168201915b50505050506006600060096000898152602001908152602001600020600101548152602001908152602001600020805461118290612a4b565b80601f01602080910402602001604051908101604052809291908181526020018280546111ae90612a4b565b80156111fb5780601f106111d0576101008083540402835291602001916111fb565b820191906000526020600020905b8154815290600101906020018083116111de57829003601f168201915b50505050508587611991565b50505050565b60006112188361164e565b90506007600082815260200190815260200160002060010160009054906101000a900473ffffffffffffffffffffffffffffffffffffffff1673ffffffffffffffffffffffffffffffffffffffff163373ffffffffffffffffffffffffffffffffffffffff16146112be576040517f08c379a00000000000000000000000000000000000000000000000000000000081526004016112b590612e11565b60405180910390fd5b81600a600083815260200190815260200160002090816112de9190612fdd565b50505050565b6000600260009054906101000a900473ffffffffffffffffffffffffffffffffffffffff1673ffffffffffffffffffffffffffffffffffffffff16639deb17f583600a60006113328761164e565b81526020019081526020016000206040518363ffffffff1660e01b815260040161135d929190613133565b602060405180830381865afa15801561137a573d6000803e3d6000fd5b505050506040513d601f19601f8201168201806040525081019061139e919061317f565b9050919050565b60006113b0836117c8565b90506000600760008381526020019081526020016000209050600073ffffffffffffffffffffffffffffffffffffffff168160010160009054906101000a900473ffffffffffffffffffffffffffffffffffffffff1673ffffffffffffffffffffffffffffffffffffffff16146114e0573373ffffffffffffffffffffffffffffffffffffffff168160010160009054906101000a900473ffffffffffffffffffffffffffffffffffffffff1673ffffffffffffffffffffffffffffffffffffffff16146114b3576040517f08c379a00000000000000000000000000000000000000000000000000000000081526004016114aa9061321e565b60405180910390fd5b60008160000154846114c5919061326d565b905060008111156114da578382600001819055505b5061157c565b60405180604001604052808481526020013373ffffffffffffffffffffffffffffffffffffffff16815250600760008481526020019081526020016000206000820151816000015560208201518160010160006101000a81548173ffffffffffffffffffffffffffffffffffffffff021916908373ffffffffffffffffffffffffffffffffffffffff16021790555090505061157b82611c50565b5b50505050565b61158b82611a91565b73ffffffffffffffffffffffffffffffffffffffff163373ffffffffffffffffffffffffffffffffffffffff16146115f8576040517f08c379a00000000000000000000000000000000000000000000000000000000081526004016115ef90612ac8565b60405180910390fd5b80600b600084815260200190815260200160002060006101000a81548173ffffffffffffffffffffffffffffffffffffffff021916908373ffffffffffffffffffffffffffffffffffffffff1602179055505050565b6000808260405160200161166291906124e0565b6040516020818303038152906040528051906020012090506005600082815260200190815260200160002060000154915050919050565b6000808273__$bfe9954da5d0c317619e6e625b17f2c42f$__636b0bd8f190916040518263ffffffff1660e01b81526004016116d591906132eb565b600060405180830381865af41580156116f2573d6000803e3d6000fd5b505050506040513d6000823e3d601f19601f8201168201806040525081019061171b9190613431565b9050806020015173ffffffffffffffffffffffffffffffffffffffff16636352211e82604001516040518263ffffffff1660e01b815260040161175e919061251b565b602060405180830381865afa15801561177b573d6000803e3d6000fd5b505050506040513d601f19601f8201168201806040525081019061179f919061347a565b915050919050565b600081600001549050919050565b6000808290506000815114915050919050565b600080826040516020016117dc91906124e0565b60405160208183030381529060405280519060200120905060016005600083815260200190815260200160002060010160009054906101000a900460ff1660ff16036118415760056000828152602001908152602001600020600001549150506118da565b600061184d60046117a7565b90506040518060400160405280828152602001600160ff16815250600560008481526020019081526020016000206000820151816000015560208201518160010160006101000a81548160ff021916908360ff160217905550905050836006600083815260200190815260200160002090816118c99190612fdd565b506118d46004611a17565b80925050505b919050565b6118eb84848484611c99565b60006118f68561164e565b905060006119038561164e565b905060006119108561164e565b905061191b866117b5565b156119425761192984611c9f565b6119338385611ce8565b61193d8185611d74565b611988565b61194b856117b5565b156119725761195984611e00565b6119638385611ed1565b61196d8285611fe7565b611987565b61197c8285611fe7565b6119868185611d74565b5b5b50505050505050565b61199d848484846120fd565b60006119a88561164e565b905060006119b58561164e565b905060006119d4601060008581526020019081526020016000206117a7565b036119e3576119e286612103565b5b6000611a00600f60008481526020019081526020016000206117a7565b03611a0f57611a0e8661222a565b5b505050505050565b6001816000016000828254019250508190555050565b60008083604051602001611a4191906124e0565b604051602081830303815290604052805190602001209050600083604051602001611a6c91906124e0565b6040516020818303038152906040528051906020012090508082149250505092915050565b60008060066000600960008681526020019081526020016000206001015481526020019081526020016000208054611ac890612a4b565b80601f0160208091040260200160405190810160405280929190818152602001828054611af490612a4b565b8015611b415780601f10611b1657610100808354040283529160200191611b41565b820191906000526020600020905b815481529060010190602001808311611b2457829003601f168201915b505050505073__$bfe9954da5d0c317619e6e625b17f2c42f$__636b0bd8f190916040518263ffffffff1660e01b8152600401611b7e91906132eb565b600060405180830381865af4158015611b9b573d6000803e3d6000fd5b505050506040513d6000823e3d601f19601f82011682018060405250810190611bc49190613431565b9050806020015173ffffffffffffffffffffffffffffffffffffffff16636352211e82604001516040518263ffffffff1660e01b8152600401611c07919061251b565b602060405180830381865afa158015611c24573d6000803e3d6000fd5b505050506040513d601f19601f82011682018060405250810190611c48919061347a565b915050919050565b600d80549050600e600083815260200190815260200160002081905550600d81908060018154018082558091505060019003906000526020600020016000909190919091505550565b50505050565b6015805490506016600083815260200190815260200160002081905550601581908060018154018082558091505060019003906000526020600020016000909190919091505550565b611d0360106000848152602001908152602001600020611a17565b60006001611d22601060008681526020019081526020016000206117a7565b611d2c919061326d565b90508160116000858152602001908152602001600020600083815260200190815260200160002081905550806013600084815260200190815260200160002081905550505050565b611d8f600f6000848152602001908152602001600020611a17565b60006001611dae600f60008681526020019081526020016000206117a7565b611db8919061326d565b90508160126000858152602001908152602001600020600083815260200190815260200160002081905550806014600084815260200190815260200160002081905550505050565b60006001601580549050611e14919061326d565b9050600060166000848152602001908152602001600020549050600060158381548110611e4457611e43612cbe565b5b906000526020600020015490508060158381548110611e6657611e65612cbe565b5b906000526020600020018190555081601660008381526020019081526020016000208190555060166000858152602001908152602001600020600090556015805480611eb557611eb46134a7565b5b6001900381819060005260206000200160009055905550505050565b60006001611ef0601060008681526020019081526020016000206117a7565b611efa919061326d565b9050600060136000848152602001908152602001600020549050818114611f875760006011600086815260200190815260200160002060008481526020019081526020016000205490508060116000878152602001908152602001600020600084815260200190815260200160002081905550816013600083815260200190815260200160002081905550505b601360008481526020019081526020016000206000905560116000858152602001908152602001600020600083815260200190815260200160002060009055611fe1601060008681526020019081526020016000206122c6565b50505050565b60006001612006600f60008681526020019081526020016000206117a7565b612010919061326d565b905060006014600084815260200190815260200160002054905081811461209d5760006012600086815260200190815260200160002060008481526020019081526020016000205490508060126000878152602001908152602001600020600084815260200190815260200160002081905550816014600083815260200190815260200160002081905550505b6014600084815260200190815260200160002060009055601260008581526020019081526020016000206000838152602001908152602001600020600090556120f7600f60008681526020019081526020016000206122c6565b50505050565b50505050565b60008160405160200161211691906124e0565b604051602081830303815290604052805190602001209050600060056000838152602001908152602001600020600001549050600560008381526020019081526020016000206000808201600090556001820160006101000a81549060ff0219169055505060066000828152602001908152602001600020600061219a91906123f3565b600a600082815260200190815260200160002060006121b991906123f3565b600860008281526020019081526020016000206000808201600090555050600760008281526020019081526020016000206000808201600090556001820160006101000a81549073ffffffffffffffffffffffffffffffffffffffff0219169055505061222581612322565b505050565b60008160405160200161223d91906124e0565b604051602081830303815290604052805190602001209050600060056000838152602001908152602001600020600001549050600560008381526020019081526020016000206000808201600090556001820160006101000a81549060ff021916905550506006600082815260200190815260200160002060006122c191906123f3565b505050565b60008160000154905060008111612312576040517f08c379a000000000000000000000000000000000000000000000000000000000815260040161230990613522565b60405180910390fd5b6001810382600001819055505050565b60006001600d80549050612336919061326d565b90506000600e60008481526020019081526020016000205490506000600d838154811061236657612365612cbe565b5b9060005260206000200154905080600d838154811061238857612387612cbe565b5b906000526020600020018190555081600e600083815260200190815260200160002081905550600e600085815260200190815260200160002060009055600d8054806123d7576123d66134a7565b5b6001900381819060005260206000200160009055905550505050565b5080546123ff90612a4b565b6000825580601f106124115750612430565b601f01602090049060005260206000209081019061242f9190612433565b5b50565b5b8082111561244c576000816000905550600101612434565b5090565b600081519050919050565b600082825260208201905092915050565b60005b8381101561248a57808201518184015260208101905061246f565b60008484015250505050565b6000601f19601f8301169050919050565b60006124b282612450565b6124bc818561245b565b93506124cc81856020860161246c565b6124d581612496565b840191505092915050565b600060208201905081810360008301526124fa81846124a7565b905092915050565b6000819050919050565b61251581612502565b82525050565b6000602082019050612530600083018461250c565b92915050565b6000604051905090565b600080fd5b600080fd5b61255381612502565b811461255e57600080fd5b50565b6000813590506125708161254a565b92915050565b60006020828403121561258c5761258b612540565b5b600061259a84828501612561565b91505092915050565b600080fd5b600080fd5b7f4e487b7100000000000000000000000000000000000000000000000000000000600052604160045260246000fd5b6125e582612496565b810181811067ffffffffffffffff82111715612604576126036125ad565b5b80604052505050565b6000612617612536565b905061262382826125dc565b919050565b600067ffffffffffffffff821115612643576126426125ad565b5b61264c82612496565b9050602081019050919050565b82818337600083830152505050565b600061267b61267684612628565b61260d565b905082815260208101848484011115612697576126966125a8565b5b6126a2848285612659565b509392505050565b600082601f8301126126bf576126be6125a3565b5b81356126cf848260208601612668565b91505092915050565b600080604083850312156126ef576126ee612540565b5b600083013567ffffffffffffffff81111561270d5761270c612545565b5b612719858286016126aa565b925050602061272a85828601612561565b9150509250929050565b600073ffffffffffffffffffffffffffffffffffffffff82169050919050565b600061275f82612734565b9050919050565b61276f81612754565b811461277a57600080fd5b50565b60008135905061278c81612766565b92915050565b60008115159050919050565b6127a781612792565b81146127b257600080fd5b50565b6000813590506127c48161279e565b92915050565b6000806000606084860312156127e3576127e2612540565b5b600084013567ffffffffffffffff81111561280157612800612545565b5b61280d868287016126aa565b935050602061281e8682870161277d565b925050604061282f868287016127b5565b9150509250925092565b60006020828403121561284f5761284e612540565b5b600082013567ffffffffffffffff81111561286d5761286c612545565b5b612879848285016126aa565b91505092915050565b6000806040838503121561289957612898612540565b5b600083013567ffffffffffffffff8111156128b7576128b6612545565b5b6128c3858286016126aa565b925050602083013567ffffffffffffffff8111156128e4576128e3612545565b5b6128f0858286016126aa565b9150509250929050565b6000806040838503121561291157612910612540565b5b600083013567ffffffffffffffff81111561292f5761292e612545565b5b61293b858286016126aa565b925050602061294c8582860161277d565b9150509250929050565b61295f81612792565b82525050565b600060208201905061297a6000830184612956565b92915050565b6000806040838503121561299757612996612540565b5b60006129a585828601612561565b925050602083013567ffffffffffffffff8111156129c6576129c5612545565b5b6129d2858286016126aa565b9150509250929050565b600080604083850312156129f3576129f2612540565b5b6000612a0185828601612561565b9250506020612a128582860161277d565b9150509250929050565b7f4e487b7100000000000000000000000000000000000000000000000000000000600052602260045260246000fd5b60006002820490506001821680612a6357607f821691505b602082108103612a7657612a75612a1c565b5b50919050565b7f6f776e6572000000000000000000000000000000000000000000000000000000600082015250565b6000612ab260058361245b565b9150612abd82612a7c565b602082019050919050565b60006020820190508181036000830152612ae181612aa5565b9050919050565b7f557269206973206e6f7420616c6c6f77656420656d7074792100000000000000600082015250565b6000612b1e60198361245b565b9150612b2982612ae8565b602082019050919050565b60006020820190508181036000830152612b4d81612b11565b9050919050565b7f73746172744e4654557269206973206e6f7420636c61696d6564210000000000600082015250565b6000612b8a601b8361245b565b9150612b9582612b54565b602082019050919050565b60006020820190508181036000830152612bb981612b7d565b9050919050565b7f6d696e742066696e697368000000000000000000000000000000000000000000600082015250565b6000612bf6600b8361245b565b9150612c0182612bc0565b602082019050919050565b60006020820190508181036000830152612c2581612be9565b9050919050565b7f56616c75654c696e6b456e756d657261626c653a20676c6f62616c20696e646560008201527f78206f7574206f6620626f756e64730000000000000000000000000000000000602082015250565b6000612c88602f8361245b565b9150612c9382612c2c565b604082019050919050565b60006020820190508181036000830152612cb781612c7b565b9050919050565b7f4e487b7100000000000000000000000000000000000000000000000000000000600052603260045260246000fd5b7f73616d6520746172676574207572692c206e6f206368616e6765000000000000600082015250565b6000612d23601a8361245b565b9150612d2e82612ced565b602082019050919050565b60006020820190508181036000830152612d5281612d16565b9050919050565b7f6e6f206f776e6572206f72206e6f20617070726f76616c000000000000000000600082015250565b6000612d8f60178361245b565b9150612d9a82612d59565b602082019050919050565b60006020820190508181036000830152612dbe81612d82565b9050919050565b7f6e6f7420636c61696d6572000000000000000000000000000000000000000000600082015250565b6000612dfb600b8361245b565b9150612e0682612dc5565b602082019050919050565b60006020820190508181036000830152612e2a81612dee565b9050919050565b60008190508160005260206000209050919050565b60006020601f8301049050919050565b600082821b905092915050565b600060088302612e937fffffffffffffffffffffffffffffffffffffffffffffffffffffffffffffffff82612e56565b612e9d8683612e56565b95508019841693508086168417925050509392505050565b6000819050919050565b6000612eda612ed5612ed084612502565b612eb5565b612502565b9050919050565b6000819050919050565b612ef483612ebf565b612f08612f0082612ee1565b848454612e63565b825550505050565b600090565b612f1d612f10565b612f28818484612eeb565b505050565b5b81811015612f4c57612f41600082612f15565b600181019050612f2e565b5050565b601f821115612f9157612f6281612e31565b612f6b84612e46565b81016020851015612f7a578190505b612f8e612f8685612e46565b830182612f2d565b50505b505050565b600082821c905092915050565b6000612fb460001984600802612f96565b1980831691505092915050565b6000612fcd8383612fa3565b9150826002028217905092915050565b612fe682612450565b67ffffffffffffffff811115612fff57612ffe6125ad565b5b6130098254612a4b565b613014828285612f50565b600060209050601f8311600181146130475760008415613035578287015190505b61303f8582612fc1565b8655506130a7565b601f19841661305586612e31565b60005b8281101561307d57848901518255600182019150602085019450602081019050613058565b8683101561309a5784890151613096601f891682612fa3565b8355505b6001600288020188555050505b505050505050565b600081546130bc81612a4b565b6130c6818661245b565b945060018216600081146130e157600181146130f75761312a565b60ff19831686528115156020028601935061312a565b61310085612e31565b60005b8381101561312257815481890152600182019150602081019050613103565b808801955050505b50505092915050565b6000604082019050818103600083015261314d81856124a7565b9050818103602083015261316181846130af565b90509392505050565b6000815190506131798161279e565b92915050565b60006020828403121561319557613194612540565b5b60006131a38482850161316a565b91505092915050565b7f6f6e6c79206f776e65722063616e2075706461746520746f74616c207375707060008201527f6c79000000000000000000000000000000000000000000000000000000000000602082015250565b600061320860228361245b565b9150613213826131ac565b604082019050919050565b60006020820190508181036000830152613237816131fb565b9050919050565b7f4e487b7100000000000000000000000000000000000000000000000000000000600052601160045260246000fd5b600061327882612502565b915061328383612502565b925082820390508181111561329b5761329a61323e565b5b92915050565b600082825260208201905092915050565b60006132bd82612450565b6132c781856132a1565b93506132d781856020860161246c565b6132e081612496565b840191505092915050565b6000602082019050818103600083015261330581846132b2565b905092915050565b600080fd5b600080fd5b600061332a61332584612628565b61260d565b905082815260208101848484011115613346576133456125a8565b5b61335184828561246c565b509392505050565b600082601f83011261336e5761336d6125a3565b5b815161337e848260208601613317565b91505092915050565b60008151905061339681612766565b92915050565b6000815190506133ab8161254a565b92915050565b6000606082840312156133c7576133c661330d565b5b6133d1606061260d565b9050600082015167ffffffffffffffff8111156133f1576133f0613312565b5b6133fd84828501613359565b600083015250602061341184828501613387565b60208301525060406134258482850161339c565b60408301525092915050565b60006020828403121561344757613446612540565b5b600082015167ffffffffffffffff81111561346557613464612545565b5b613471848285016133b1565b91505092915050565b6000602082840312156134905761348f612540565b5b600061349e84828501613387565b91505092915050565b7f4e487b7100000000000000000000000000000000000000000000000000000000600052603160045260246000fd5b7f436f756e7465723a2064656372656d656e74206f766572666c6f770000000000600082015250565b600061350c601b8361245b565b9150613517826134d6565b602082019050919050565b6000602082019050818103600083015261353b816134ff565b905091905056fea26469706673582212209e9e11931d1cbf3545152694d94cb3444e2c145bdacebfe8c7edfc44b931d6d864736f6c63430008110033",
  "linkReferences": {
    "contracts/NFTUri.sol": {
      "NFTUri": [
        {
          "length": 20,
          "start": 7109
        },
        {
          "length": 20,
          "start": 8302
        }
      ]
    }
  },
  "deployedLinkReferences": {
    "contracts/NFTUri.sol": {
      "NFTUri": [
        {
          "length": 20,
          "start": 5791
        },
        {
          "length": 20,
          "start": 6984
        }
      ]
    }
  }
}