{
  "_format": "hh-sol-artifact-1",
  "contractName": "Authorization",
  "sourceName": "contracts/Authorization.sol",
  "abi": [
    {
      "inputs": [
        {
          "internalType": "address",
          "name": "verifier_",
          "type": "address"
        }
      ],
      "stateMutability": "nonpayable",
      "type": "constructor"
    },
    {
      "anonymous": false,
      "inputs": [
        {
          "indexed": true,
          "internalType": "address",
          "name": "owner",
          "type": "address"
        },
        {
          "indexed": true,
          "internalType": "uint256",
          "name": "linkId",
          "type": "uint256"
        },
        {
          "indexed": true,
          "internalType": "address",
          "name": "operator",
          "type": "address"
        }
      ],
      "name": "Approval",
      "type": "event"
    },
    {
      "anonymous": false,
      "inputs": [
        {
          "indexed": true,
          "internalType": "address",
          "name": "owner",
          "type": "address"
        },
        {
          "indexed": true,
          "internalType": "string",
          "name": "endNodeUri",
          "type": "string"
        },
        {
          "indexed": true,
          "internalType": "address",
          "name": "operator",
          "type": "address"
        },
        {
          "indexed": false,
          "internalType": "bool",
          "name": "approved",
          "type": "bool"
        }
      ],
      "name": "ApprovalForAll",
      "type": "event"
    },
    {
      "anonymous": false,
      "inputs": [
        {
          "indexed": true,
          "internalType": "address",
          "name": "from",
          "type": "address"
        },
        {
          "indexed": true,
          "internalType": "string",
          "name": "startNFTUri",
          "type": "string"
        },
        {
          "indexed": false,
          "internalType": "uint256",
          "name": "amount",
          "type": "uint256"
        }
      ],
      "name": "Claim",
      "type": "event"
    },
    {
      "anonymous": false,
      "inputs": [
        {
          "indexed": true,
          "internalType": "address",
          "name": "from",
          "type": "address"
        },
        {
          "indexed": true,
          "internalType": "string",
          "name": "startNFTUri",
          "type": "string"
        },
        {
          "indexed": true,
          "internalType": "string",
          "name": "endNFTUri",
          "type": "string"
        }
      ],
      "name": "Mint",
      "type": "event"
    },
    {
      "anonymous": false,
      "inputs": [
        {
          "indexed": true,
          "internalType": "address",
          "name": "from",
          "type": "address"
        },
        {
          "indexed": true,
          "internalType": "string",
          "name": "startNFTUri",
          "type": "string"
        },
        {
          "indexed": false,
          "internalType": "string",
          "name": "proof",
          "type": "string"
        }
      ],
      "name": "Prove",
      "type": "event"
    },
    {
      "anonymous": false,
      "inputs": [
        {
          "indexed": true,
          "internalType": "address",
          "name": "from",
          "type": "address"
        },
        {
          "indexed": true,
          "internalType": "uint256",
          "name": "linkId",
          "type": "uint256"
        },
        {
          "indexed": true,
          "internalType": "string",
          "name": "toEndNFTUri",
          "type": "string"
        }
      ],
      "name": "Transfer",
      "type": "event"
    },
    {
      "inputs": [
        {
          "internalType": "uint256",
          "name": "linkId",
          "type": "uint256"
        },
        {
          "internalType": "address",
          "name": "operator",
          "type": "address"
        }
      ],
      "name": "approve",
      "outputs": [],
      "stateMutability": "nonpayable",
      "type": "function"
    },
    {
      "inputs": [
        {
          "internalType": "string",
          "name": "startNFTUri",
          "type": "string"
        },
        {
          "internalType": "uint256",
          "name": "amount",
          "type": "uint256"
        }
      ],
      "name": "claim",
      "outputs": [],
      "stateMutability": "nonpayable",
      "type": "function"
    },
    {
      "inputs": [
        {
          "internalType": "uint256",
          "name": "linkId",
          "type": "uint256"
        }
      ],
      "name": "endNodeOf",
      "outputs": [
        {
          "internalType": "string",
          "name": "endNodeUri",
          "type": "string"
        }
      ],
      "stateMutability": "view",
      "type": "function"
    },
    {
      "inputs": [
        {
          "internalType": "string",
          "name": "endNodeUri",
          "type": "string"
        },
        {
          "internalType": "uint256",
          "name": "index",
          "type": "uint256"
        }
      ],
      "name": "inLinkOfByIndex",
      "outputs": [
        {
          "internalType": "uint256",
          "name": "linkId",
          "type": "uint256"
        }
      ],
      "stateMutability": "view",
      "type": "function"
    },
    {
      "inputs": [
        {
          "internalType": "string",
          "name": "endNodeUri",
          "type": "string"
        }
      ],
      "name": "inLinksNumOf",
      "outputs": [
        {
          "internalType": "uint256",
          "name": "num",
          "type": "uint256"
        }
      ],
      "stateMutability": "view",
      "type": "function"
    },
    {
      "inputs": [
        {
          "internalType": "string",
          "name": "endNodeUri",
          "type": "string"
        },
        {
          "internalType": "address",
          "name": "operator",
          "type": "address"
        }
      ],
      "name": "isApprovedForAll",
      "outputs": [
        {
          "internalType": "bool",
          "name": "",
          "type": "bool"
        }
      ],
      "stateMutability": "view",
      "type": "function"
    },
    {
      "inputs": [
        {
          "internalType": "string",
          "name": "startNFTUri",
          "type": "string"
        }
      ],
      "name": "isProved",
      "outputs": [
        {
          "internalType": "bool",
          "name": "proved",
          "type": "bool"
        }
      ],
      "stateMutability": "view",
      "type": "function"
    },
    {
      "inputs": [
        {
          "internalType": "string",
          "name": "startNFTUri",
          "type": "string"
        },
        {
          "internalType": "string",
          "name": "endNFTUri",
          "type": "string"
        }
      ],
      "name": "mint",
      "outputs": [],
      "stateMutability": "nonpayable",
      "type": "function"
    },
    {
      "inputs": [],
      "name": "name",
      "outputs": [
        {
          "internalType": "string",
          "name": "",
          "type": "string"
        }
      ],
      "stateMutability": "view",
      "type": "function"
    },
    {
      "inputs": [
        {
          "internalType": "string",
          "name": "startNodeUri",
          "type": "string"
        },
        {
          "internalType": "uint256",
          "name": "index",
          "type": "uint256"
        }
      ],
      "name": "outLinkOfByIndex",
      "outputs": [
        {
          "internalType": "uint256",
          "name": "linkId",
          "type": "uint256"
        }
      ],
      "stateMutability": "view",
      "type": "function"
    },
    {
      "inputs": [
        {
          "internalType": "string",
          "name": "startNodeUri",
          "type": "string"
        }
      ],
      "name": "outLinksNumOf",
      "outputs": [
        {
          "internalType": "uint256",
          "name": "num",
          "type": "uint256"
        }
      ],
      "stateMutability": "view",
      "type": "function"
    },
    {
      "inputs": [
        {
          "internalType": "string",
          "name": "startNFTUri",
          "type": "string"
        },
        {
          "internalType": "string",
          "name": "proof",
          "type": "string"
        }
      ],
      "name": "prove",
      "outputs": [],
      "stateMutability": "nonpayable",
      "type": "function"
    },
    {
      "inputs": [
        {
          "internalType": "string",
          "name": "endNodeUri",
          "type": "string"
        },
        {
          "internalType": "address",
          "name": "operator",
          "type": "address"
        },
        {
          "internalType": "bool",
          "name": "_approved",
          "type": "bool"
        }
      ],
      "name": "setApprovalForAll",
      "outputs": [],
      "stateMutability": "nonpayable",
      "type": "function"
    },
    {
      "inputs": [
        {
          "internalType": "uint256",
          "name": "linkId",
          "type": "uint256"
        }
      ],
      "name": "startNodeOf",
      "outputs": [
        {
          "internalType": "string",
          "name": "startNodeUri",
          "type": "string"
        }
      ],
      "stateMutability": "view",
      "type": "function"
    },
    {
      "inputs": [],
      "name": "symbol",
      "outputs": [
        {
          "internalType": "string",
          "name": "",
          "type": "string"
        }
      ],
      "stateMutability": "view",
      "type": "function"
    },
    {
      "inputs": [
        {
          "internalType": "uint256",
          "name": "linkId",
          "type": "uint256"
        },
        {
          "internalType": "string",
          "name": "toEndNFTUri",
          "type": "string"
        }
      ],
      "name": "transfer",
      "outputs": [],
      "stateMutability": "nonpayable",
      "type": "function"
    }
  ],
  "bytecode": "0x60806040523480156200001157600080fd5b506040516200356e3803806200356e833981810160405281019062000037919062000183565b6040518060400160405280600d81526020017f417574686f72697a6174696f6e000000000000000000000000000000000000008152506040518060400160405280600481526020017f4155544800000000000000000000000000000000000000000000000000000000815250828282828260009081620000b891906200042f565b508160019081620000ca91906200042f565b5080600260006101000a81548173ffffffffffffffffffffffffffffffffffffffff021916908373ffffffffffffffffffffffffffffffffffffffff1602179055505050505050505062000516565b600080fd5b600073ffffffffffffffffffffffffffffffffffffffff82169050919050565b60006200014b826200011e565b9050919050565b6200015d816200013e565b81146200016957600080fd5b50565b6000815190506200017d8162000152565b92915050565b6000602082840312156200019c576200019b62000119565b5b6000620001ac848285016200016c565b91505092915050565b600081519050919050565b7f4e487b7100000000000000000000000000000000000000000000000000000000600052604160045260246000fd5b7f4e487b7100000000000000000000000000000000000000000000000000000000600052602260045260246000fd5b600060028204905060018216806200023757607f821691505b6020821081036200024d576200024c620001ef565b5b50919050565b60008190508160005260206000209050919050565b60006020601f8301049050919050565b600082821b905092915050565b600060088302620002b77fffffffffffffffffffffffffffffffffffffffffffffffffffffffffffffffff8262000278565b620002c3868362000278565b95508019841693508086168417925050509392505050565b6000819050919050565b6000819050919050565b6000620003106200030a6200030484620002db565b620002e5565b620002db565b9050919050565b6000819050919050565b6200032c83620002ef565b620003446200033b8262000317565b84845462000285565b825550505050565b600090565b6200035b6200034c565b6200036881848462000321565b505050565b5b8181101562000390576200038460008262000351565b6001810190506200036e565b5050565b601f821115620003df57620003a98162000253565b620003b48462000268565b81016020851015620003c4578190505b620003dc620003d38562000268565b8301826200036d565b50505b505050565b600082821c905092915050565b60006200040460001984600802620003e4565b1980831691505092915050565b60006200041f8383620003f1565b9150826002028217905092915050565b6200043a82620001b5565b67ffffffffffffffff811115620004565762000455620001c0565b5b6200046282546200021e565b6200046f82828562000394565b600060209050601f831160018114620004a7576000841562000492578287015190505b6200049e858262000411565b8655506200050e565b601f198416620004b78662000253565b60005b82811015620004e157848901518255600182019150602085019450602081019050620004ba565b86831015620005015784890151620004fd601f891682620003f1565b8355505b6001600288020188555050505b505050505050565b61304880620005266000396000f3fe608060405234801561001057600080fd5b50600436106101005760003560e01c8063a32f35e011610097578063cb7bba6111610066578063cb7bba61146102e5578063d70e79dc14610301578063e64d2fb414610331578063febe49091461034d57610100565b8063a32f35e014610239578063ad5bb46414610269578063c06d86d114610299578063ca32ab86146102c957610100565b80635ecdf043116100d35780635ecdf0431461019f5780636a793a6c146101cf5780638aa0fdad146101ff57806395d89b411461021b57610100565b806306fdde03146101055780630d277449146101235780635880bdb11461015357806359b361ef14610183575b600080fd5b61010d610369565b60405161011a91906120a0565b60405180910390f35b61013d6004803603810190610138919061210c565b6103fb565b60405161014a91906120a0565b60405180910390f35b61016d6004803603810190610168919061226e565b6104b6565b60405161017a91906122d9565b60405180910390f35b61019d6004803603810190610198919061238a565b6104ed565b005b6101b960048036038101906101b491906123f9565b6105d8565b6040516101c691906122d9565b60405180910390f35b6101e960048036038101906101e491906123f9565b610604565b6040516101f691906122d9565b60405180910390f35b61021960048036038101906102149190612442565b610630565b005b6102236108ac565b60405161023091906120a0565b60405180910390f35b610253600480360381019061024e91906124ba565b61093e565b6040516102609190612525565b60405180910390f35b610283600480360381019061027e919061226e565b6109ae565b60405161029091906122d9565b60405180910390f35b6102b360048036038101906102ae919061210c565b6109e5565b6040516102c091906120a0565b60405180910390f35b6102e360048036038101906102de9190612540565b610aa0565b005b6102ff60048036038101906102fa9190612442565b61100d565b005b61031b600480360381019061031691906123f9565b6110e4565b6040516103289190612525565b60405180910390f35b61034b6004803603810190610346919061226e565b6111a5565b005b6103676004803603810190610362919061259c565b611389565b005b6060600080546103789061260b565b80601f01602080910402602001604051908101604052809291908181526020018280546103a49061260b565b80156103f15780601f106103c6576101008083540402835291602001916103f1565b820191906000526020600020905b8154815290600101906020018083116103d457829003601f168201915b5050505050905090565b6060600660006009600085815260200190815260200160002060000154815260200190815260200160002080546104319061260b565b80601f016020809104026020016040519081016040528092919081815260200182805461045d9061260b565b80156104aa5780601f1061047f576101008083540402835291602001916104aa565b820191906000526020600020905b81548152906001019060200180831161048d57829003601f168201915b50505050509050919050565b6000600f60006104c585611455565b8152602001908152602001600020600083815260200190815260200160002054905092915050565b6104f6836114a0565b73ffffffffffffffffffffffffffffffffffffffff163373ffffffffffffffffffffffffffffffffffffffff1614610563576040517f08c379a000000000000000000000000000000000000000000000000000000000815260040161055a90612688565b60405180910390fd5b80600c600061057186611455565b815260200190815260200160002060008473ffffffffffffffffffffffffffffffffffffffff1673ffffffffffffffffffffffffffffffffffffffff16815260200190815260200160002060006101000a81548160ff021916908315150217905550505050565b60006105fd600d60006105ea85611455565b81526020019081526020016000206115ae565b9050919050565b6000610629600e600061061685611455565b81526020019081526020016000206115ae565b9050919050565b610639826115bc565b15801561064c575061064a816115bc565b155b61068b576040517f08c379a0000000000000000000000000000000000000000000000000000000008152600401610682906126f4565b60405180910390fd5b6000610696836115cf565b9050600060076000838152602001908152602001600020604051806060016040529081600082015481526020016001820160009054906101000a900473ffffffffffffffffffffffffffffffffffffffff1673ffffffffffffffffffffffffffffffffffffffff1673ffffffffffffffffffffffffffffffffffffffff1681526020016002820154815250509050600073ffffffffffffffffffffffffffffffffffffffff16816020015173ffffffffffffffffffffffffffffffffffffffff1603610797576040517f08c379a000000000000000000000000000000000000000000000000000000000815260040161078e90612760565b60405180910390fd5b60006107b4600860008581526020019081526020016000206115ae565b905081600001518110156107fd576040517f08c379a00000000000000000000000000000000000000000000000000000000081526004016107f4906127cc565b60405180910390fd5b6000610808856115cf565b9050610825866040518060200160405280600081525087856116e6565b60405180604001604052808581526020018281525060096000848152602001908152602001600020600082015181600001556020820151816001015590505061087f86604051806020016040528060008152508785611786565b610889600361180c565b6108a46008600086815260200190815260200160002061180c565b505050505050565b6060600180546108bb9061260b565b80601f01602080910402602001604051908101604052809291908181526020018280546108e79061260b565b80156109345780601f1061090957610100808354040283529160200191610934565b820191906000526020600020905b81548152906001019060200180831161091757829003601f168201915b5050505050905090565b6000600c600061094d85611455565b815260200190815260200160002060008373ffffffffffffffffffffffffffffffffffffffff1673ffffffffffffffffffffffffffffffffffffffff16815260200190815260200160002060009054906101000a900460ff16905092915050565b6000601060006109bd85611455565b8152602001908152602001600020600083815260200190815260200160002054905092915050565b606060066000600960008581526020019081526020016000206001015481526020019081526020016000208054610a1b9061260b565b80601f0160208091040260200160405190810160405280929190818152602001828054610a479061260b565b8015610a945780601f10610a6957610100808354040283529160200191610a94565b820191906000526020600020905b815481529060010190602001808311610a7757829003601f168201915b50505050509050919050565b600060096000848152602001908152602001600020604051806040016040529081600082015481526020016001820154815250509050610b7f60066000836020015181526020019081526020016000208054610afb9061260b565b80601f0160208091040260200160405190810160405280929190818152602001828054610b279061260b565b8015610b745780601f10610b4957610100808354040283529160200191610b74565b820191906000526020600020905b815481529060010190602001808311610b5757829003601f168201915b505050505083611822565b15610bbf576040517f08c379a0000000000000000000000000000000000000000000000000000000008152600401610bb690612838565b60405180910390fd5b6000610bca836115cf565b9050610bd584611886565b73ffffffffffffffffffffffffffffffffffffffff163373ffffffffffffffffffffffffffffffffffffffff161480610c6c5750600b600085815260200190815260200160002060009054906101000a900473ffffffffffffffffffffffffffffffffffffffff1673ffffffffffffffffffffffffffffffffffffffff163373ffffffffffffffffffffffffffffffffffffffff16145b80610cd15750600c600082815260200190815260200160002060003373ffffffffffffffffffffffffffffffffffffffff1673ffffffffffffffffffffffffffffffffffffffff16815260200190815260200160002060009054906101000a900460ff165b610d10576040517f08c379a0000000000000000000000000000000000000000000000000000000008152600401610d07906128a4565b60405180910390fd5b610e7e60066000600960008881526020019081526020016000206000015481526020019081526020016000208054610d479061260b565b80601f0160208091040260200160405190810160405280929190818152602001828054610d739061260b565b8015610dc05780601f10610d9557610100808354040283529160200191610dc0565b820191906000526020600020905b815481529060010190602001808311610da357829003601f168201915b505050505060066000600960008981526020019081526020016000206001015481526020019081526020016000208054610df99061260b565b80601f0160208091040260200160405190810160405280929190818152602001828054610e259061260b565b8015610e725780601f10610e4757610100808354040283529160200191610e72565b820191906000526020600020905b815481529060010190602001808311610e5557829003601f168201915b505050505085876116e6565b80600960008681526020019081526020016000206001018190555061100760066000600960008881526020019081526020016000206000015481526020019081526020016000208054610ed09061260b565b80601f0160208091040260200160405190810160405280929190818152602001828054610efc9061260b565b8015610f495780601f10610f1e57610100808354040283529160200191610f49565b820191906000526020600020905b815481529060010190602001808311610f2c57829003601f168201915b505050505060066000600960008981526020019081526020016000206001015481526020019081526020016000208054610f829061260b565b80601f0160208091040260200160405190810160405280929190818152602001828054610fae9061260b565b8015610ffb5780601f10610fd057610100808354040283529160200191610ffb565b820191906000526020600020905b815481529060010190602001808311610fde57829003601f168201915b50505050508587611786565b50505050565b600061101883611455565b90506007600082815260200190815260200160002060010160009054906101000a900473ffffffffffffffffffffffffffffffffffffffff1673ffffffffffffffffffffffffffffffffffffffff163373ffffffffffffffffffffffffffffffffffffffff16146110be576040517f08c379a00000000000000000000000000000000000000000000000000000000081526004016110b590612910565b60405180910390fd5b81600a600083815260200190815260200160002090816110de9190612adc565b50505050565b6000600260009054906101000a900473ffffffffffffffffffffffffffffffffffffffff1673ffffffffffffffffffffffffffffffffffffffff16639deb17f583600a600061113287611455565b81526020019081526020016000206040518363ffffffff1660e01b815260040161115d929190612c32565b602060405180830381865afa15801561117a573d6000803e3d6000fd5b505050506040513d601f19601f8201168201806040525081019061119e9190612c7e565b9050919050565b60006111b0836115cf565b90506000600760008381526020019081526020016000209050600073ffffffffffffffffffffffffffffffffffffffff168160010160009054906101000a900473ffffffffffffffffffffffffffffffffffffffff1673ffffffffffffffffffffffffffffffffffffffff16146112e0573373ffffffffffffffffffffffffffffffffffffffff168160010160009054906101000a900473ffffffffffffffffffffffffffffffffffffffff1673ffffffffffffffffffffffffffffffffffffffff16146112b3576040517f08c379a00000000000000000000000000000000000000000000000000000000081526004016112aa90612d1d565b60405180910390fd5b60008160000154846112c59190612d6c565b905060008111156112da578382600001819055505b50611383565b60405180606001604052808481526020013373ffffffffffffffffffffffffffffffffffffffff16815260200183815250600760008481526020019081526020016000206000820151816000015560208201518160010160006101000a81548173ffffffffffffffffffffffffffffffffffffffff021916908373ffffffffffffffffffffffffffffffffffffffff160217905550604082015181600201559050505b50505050565b61139282611886565b73ffffffffffffffffffffffffffffffffffffffff163373ffffffffffffffffffffffffffffffffffffffff16146113ff576040517f08c379a00000000000000000000000000000000000000000000000000000000081526004016113f690612688565b60405180910390fd5b80600b600084815260200190815260200160002060006101000a81548173ffffffffffffffffffffffffffffffffffffffff021916908373ffffffffffffffffffffffffffffffffffffffff1602179055505050565b6000808260405160200161146991906120a0565b6040516020818303038152906040528051906020012090506005600082815260200190815260200160002060000154915050919050565b6000808273__$bfe9954da5d0c317619e6e625b17f2c42f$__636b0bd8f190916040518263ffffffff1660e01b81526004016114dc9190612dea565b600060405180830381865af41580156114f9573d6000803e3d6000fd5b505050506040513d6000823e3d601f19601f820116820180604052508101906115229190612f30565b9050806020015173ffffffffffffffffffffffffffffffffffffffff16636352211e82604001516040518263ffffffff1660e01b815260040161156591906122d9565b602060405180830381865afa158015611582573d6000803e3d6000fd5b505050506040513d601f19601f820116820180604052508101906115a69190612f79565b915050919050565b600081600001549050919050565b6000808290506000815114915050919050565b600080826040516020016115e391906120a0565b60405160208183030381529060405280519060200120905060016005600083815260200190815260200160002060010160009054906101000a900460ff1660ff16036116485760056000828152602001908152602001600020600001549150506116e1565b600061165460046115ae565b90506040518060400160405280828152602001600160ff16815250600560008481526020019081526020016000206000820151816000015560208201518160010160006101000a81548160ff021916908360ff160217905550905050836006600083815260200190815260200160002090816116d09190612adc565b506116db600461180c565b80925050505b919050565b6116f284848484611a45565b60006116fd85611455565b9050600061170a85611455565b9050600061171785611455565b9050611722866115bc565b15611740576117318385611a4b565b61173b8185611ad7565b61177d565b611749856115bc565b15611767576117588385611b63565b6117628285611c79565b61177c565b6117718285611c79565b61177b8185611ad7565b5b5b50505050505050565b61179284848484611d8f565b600061179d85611455565b905060006117aa85611455565b905060006117c9600e60008581526020019081526020016000206115ae565b036117d8576117d786611d95565b5b60006117f5600d60008481526020019081526020016000206115ae565b036118045761180386611ebb565b5b505050505050565b6001816000016000828254019250508190555050565b6000808360405160200161183691906120a0565b60405160208183030381529060405280519060200120905060008360405160200161186191906120a0565b6040516020818303038152906040528051906020012090508082149250505092915050565b600080600660006009600086815260200190815260200160002060010154815260200190815260200160002080546118bd9061260b565b80601f01602080910402602001604051908101604052809291908181526020018280546118e99061260b565b80156119365780601f1061190b57610100808354040283529160200191611936565b820191906000526020600020905b81548152906001019060200180831161191957829003601f168201915b505050505073__$bfe9954da5d0c317619e6e625b17f2c42f$__636b0bd8f190916040518263ffffffff1660e01b81526004016119739190612dea565b600060405180830381865af4158015611990573d6000803e3d6000fd5b505050506040513d6000823e3d601f19601f820116820180604052508101906119b99190612f30565b9050806020015173ffffffffffffffffffffffffffffffffffffffff16636352211e82604001516040518263ffffffff1660e01b81526004016119fc91906122d9565b602060405180830381865afa158015611a19573d6000803e3d6000fd5b505050506040513d601f19601f82011682018060405250810190611a3d9190612f79565b915050919050565b50505050565b611a66600e600084815260200190815260200160002061180c565b60006001611a85600e60008681526020019081526020016000206115ae565b611a8f9190612d6c565b905081600f6000858152602001908152602001600020600083815260200190815260200160002081905550806011600084815260200190815260200160002081905550505050565b611af2600d600084815260200190815260200160002061180c565b60006001611b11600d60008681526020019081526020016000206115ae565b611b1b9190612d6c565b90508160106000858152602001908152602001600020600083815260200190815260200160002081905550806012600084815260200190815260200160002081905550505050565b60006001611b82600e60008681526020019081526020016000206115ae565b611b8c9190612d6c565b9050600060116000848152602001908152602001600020549050818114611c19576000600f6000868152602001908152602001600020600084815260200190815260200160002054905080600f6000878152602001908152602001600020600084815260200190815260200160002081905550816011600083815260200190815260200160002081905550505b6011600084815260200190815260200160002060009055600f6000858152602001908152602001600020600083815260200190815260200160002060009055611c73600e6000868152602001908152602001600020611f57565b50505050565b60006001611c98600d60008681526020019081526020016000206115ae565b611ca29190612d6c565b9050600060126000848152602001908152602001600020549050818114611d2f5760006010600086815260200190815260200160002060008481526020019081526020016000205490508060106000878152602001908152602001600020600084815260200190815260200160002081905550816012600083815260200190815260200160002081905550505b601260008481526020019081526020016000206000905560106000858152602001908152602001600020600083815260200190815260200160002060009055611d89600d6000868152602001908152602001600020611f57565b50505050565b50505050565b600081604051602001611da891906120a0565b604051602081830303815290604052805190602001209050600060056000838152602001908152602001600020600001549050600560008381526020019081526020016000206000808201600090556001820160006101000a81549060ff02191690555050600660008281526020019081526020016000206000611e2c9190611fb3565b600a60008281526020019081526020016000206000611e4b9190611fb3565b600860008281526020019081526020016000206000808201600090555050600760008281526020019081526020016000206000808201600090556001820160006101000a81549073ffffffffffffffffffffffffffffffffffffffff021916905560028201600090555050505050565b600081604051602001611ece91906120a0565b604051602081830303815290604052805190602001209050600060056000838152602001908152602001600020600001549050600560008381526020019081526020016000206000808201600090556001820160006101000a81549060ff02191690555050600660008281526020019081526020016000206000611f529190611fb3565b505050565b60008160000154905060008111611fa3576040517f08c379a0000000000000000000000000000000000000000000000000000000008152600401611f9a90612ff2565b60405180910390fd5b6001810382600001819055505050565b508054611fbf9061260b565b6000825580601f10611fd15750611ff0565b601f016020900490600052602060002090810190611fef9190611ff3565b5b50565b5b8082111561200c576000816000905550600101611ff4565b5090565b600081519050919050565b600082825260208201905092915050565b60005b8381101561204a57808201518184015260208101905061202f565b60008484015250505050565b6000601f19601f8301169050919050565b600061207282612010565b61207c818561201b565b935061208c81856020860161202c565b61209581612056565b840191505092915050565b600060208201905081810360008301526120ba8184612067565b905092915050565b6000604051905090565b600080fd5b600080fd5b6000819050919050565b6120e9816120d6565b81146120f457600080fd5b50565b600081359050612106816120e0565b92915050565b600060208284031215612122576121216120cc565b5b6000612130848285016120f7565b91505092915050565b600080fd5b600080fd5b7f4e487b7100000000000000000000000000000000000000000000000000000000600052604160045260246000fd5b61217b82612056565b810181811067ffffffffffffffff8211171561219a57612199612143565b5b80604052505050565b60006121ad6120c2565b90506121b98282612172565b919050565b600067ffffffffffffffff8211156121d9576121d8612143565b5b6121e282612056565b9050602081019050919050565b82818337600083830152505050565b600061221161220c846121be565b6121a3565b90508281526020810184848401111561222d5761222c61213e565b5b6122388482856121ef565b509392505050565b600082601f83011261225557612254612139565b5b81356122658482602086016121fe565b91505092915050565b60008060408385031215612285576122846120cc565b5b600083013567ffffffffffffffff8111156122a3576122a26120d1565b5b6122af85828601612240565b92505060206122c0858286016120f7565b9150509250929050565b6122d3816120d6565b82525050565b60006020820190506122ee60008301846122ca565b92915050565b600073ffffffffffffffffffffffffffffffffffffffff82169050919050565b600061231f826122f4565b9050919050565b61232f81612314565b811461233a57600080fd5b50565b60008135905061234c81612326565b92915050565b60008115159050919050565b61236781612352565b811461237257600080fd5b50565b6000813590506123848161235e565b92915050565b6000806000606084860312156123a3576123a26120cc565b5b600084013567ffffffffffffffff8111156123c1576123c06120d1565b5b6123cd86828701612240565b93505060206123de8682870161233d565b92505060406123ef86828701612375565b9150509250925092565b60006020828403121561240f5761240e6120cc565b5b600082013567ffffffffffffffff81111561242d5761242c6120d1565b5b61243984828501612240565b91505092915050565b60008060408385031215612459576124586120cc565b5b600083013567ffffffffffffffff811115612477576124766120d1565b5b61248385828601612240565b925050602083013567ffffffffffffffff8111156124a4576124a36120d1565b5b6124b085828601612240565b9150509250929050565b600080604083850312156124d1576124d06120cc565b5b600083013567ffffffffffffffff8111156124ef576124ee6120d1565b5b6124fb85828601612240565b925050602061250c8582860161233d565b9150509250929050565b61251f81612352565b82525050565b600060208201905061253a6000830184612516565b92915050565b60008060408385031215612557576125566120cc565b5b6000612565858286016120f7565b925050602083013567ffffffffffffffff811115612586576125856120d1565b5b61259285828601612240565b9150509250929050565b600080604083850312156125b3576125b26120cc565b5b60006125c1858286016120f7565b92505060206125d28582860161233d565b9150509250929050565b7f4e487b7100000000000000000000000000000000000000000000000000000000600052602260045260246000fd5b6000600282049050600182168061262357607f821691505b602082108103612636576126356125dc565b5b50919050565b7f6f776e6572000000000000000000000000000000000000000000000000000000600082015250565b600061267260058361201b565b915061267d8261263c565b602082019050919050565b600060208201905081810360008301526126a181612665565b9050919050565b7f557269206973206e6f7420616c6c6f77656420656d7074792100000000000000600082015250565b60006126de60198361201b565b91506126e9826126a8565b602082019050919050565b6000602082019050818103600083015261270d816126d1565b9050919050565b7f73746172744e4654557269206973206e6f7420636c61696d6564210000000000600082015250565b600061274a601b8361201b565b915061275582612714565b602082019050919050565b600060208201905081810360008301526127798161273d565b9050919050565b7f6d696e742066696e697368000000000000000000000000000000000000000000600082015250565b60006127b6600b8361201b565b91506127c182612780565b602082019050919050565b600060208201905081810360008301526127e5816127a9565b9050919050565b7f73616d6520746172676574207572692c206e6f206368616e6765000000000000600082015250565b6000612822601a8361201b565b915061282d826127ec565b602082019050919050565b6000602082019050818103600083015261285181612815565b9050919050565b7f6e6f206f776e6572206f72206e6f20617070726f76616c000000000000000000600082015250565b600061288e60178361201b565b915061289982612858565b602082019050919050565b600060208201905081810360008301526128bd81612881565b9050919050565b7f6e6f7420636c61696d6572000000000000000000000000000000000000000000600082015250565b60006128fa600b8361201b565b9150612905826128c4565b602082019050919050565b60006020820190508181036000830152612929816128ed565b9050919050565b60008190508160005260206000209050919050565b60006020601f8301049050919050565b600082821b905092915050565b6000600883026129927fffffffffffffffffffffffffffffffffffffffffffffffffffffffffffffffff82612955565b61299c8683612955565b95508019841693508086168417925050509392505050565b6000819050919050565b60006129d96129d46129cf846120d6565b6129b4565b6120d6565b9050919050565b6000819050919050565b6129f3836129be565b612a076129ff826129e0565b848454612962565b825550505050565b600090565b612a1c612a0f565b612a278184846129ea565b505050565b5b81811015612a4b57612a40600082612a14565b600181019050612a2d565b5050565b601f821115612a9057612a6181612930565b612a6a84612945565b81016020851015612a79578190505b612a8d612a8585612945565b830182612a2c565b50505b505050565b600082821c905092915050565b6000612ab360001984600802612a95565b1980831691505092915050565b6000612acc8383612aa2565b9150826002028217905092915050565b612ae582612010565b67ffffffffffffffff811115612afe57612afd612143565b5b612b08825461260b565b612b13828285612a4f565b600060209050601f831160018114612b465760008415612b34578287015190505b612b3e8582612ac0565b865550612ba6565b601f198416612b5486612930565b60005b82811015612b7c57848901518255600182019150602085019450602081019050612b57565b86831015612b995784890151612b95601f891682612aa2565b8355505b6001600288020188555050505b505050505050565b60008154612bbb8161260b565b612bc5818661201b565b94506001821660008114612be05760018114612bf657612c29565b60ff198316865281151560200286019350612c29565b612bff85612930565b60005b83811015612c2157815481890152600182019150602081019050612c02565b808801955050505b50505092915050565b60006040820190508181036000830152612c4c8185612067565b90508181036020830152612c608184612bae565b90509392505050565b600081519050612c788161235e565b92915050565b600060208284031215612c9457612c936120cc565b5b6000612ca284828501612c69565b91505092915050565b7f6f6e6c79206f776e65722063616e2075706461746520746f74616c207375707060008201527f6c79000000000000000000000000000000000000000000000000000000000000602082015250565b6000612d0760228361201b565b9150612d1282612cab565b604082019050919050565b60006020820190508181036000830152612d3681612cfa565b9050919050565b7f4e487b7100000000000000000000000000000000000000000000000000000000600052601160045260246000fd5b6000612d77826120d6565b9150612d82836120d6565b9250828203905081811115612d9a57612d99612d3d565b5b92915050565b600082825260208201905092915050565b6000612dbc82612010565b612dc68185612da0565b9350612dd681856020860161202c565b612ddf81612056565b840191505092915050565b60006020820190508181036000830152612e048184612db1565b905092915050565b600080fd5b600080fd5b6000612e29612e24846121be565b6121a3565b905082815260208101848484011115612e4557612e4461213e565b5b612e5084828561202c565b509392505050565b600082601f830112612e6d57612e6c612139565b5b8151612e7d848260208601612e16565b91505092915050565b600081519050612e9581612326565b92915050565b600081519050612eaa816120e0565b92915050565b600060608284031215612ec657612ec5612e0c565b5b612ed060606121a3565b9050600082015167ffffffffffffffff811115612ef057612eef612e11565b5b612efc84828501612e58565b6000830152506020612f1084828501612e86565b6020830152506040612f2484828501612e9b565b60408301525092915050565b600060208284031215612f4657612f456120cc565b5b600082015167ffffffffffffffff811115612f6457612f636120d1565b5b612f7084828501612eb0565b91505092915050565b600060208284031215612f8f57612f8e6120cc565b5b6000612f9d84828501612e86565b91505092915050565b7f436f756e7465723a2064656372656d656e74206f766572666c6f770000000000600082015250565b6000612fdc601b8361201b565b9150612fe782612fa6565b602082019050919050565b6000602082019050818103600083015261300b81612fcf565b905091905056fea2646970667358221220bade00b3a369e7ff22e22f9881b7ce82a54085e9a671a080838bdfec53ce1e3264736f6c63430008110033",
  "linkReferences": {
    "contracts/NFTUri.sol": {
      "NFTUri": [
        {
          "length": 20,
          "start": 6604
        },
        {
          "length": 20,
          "start": 7779
        }
      ]
    }
  },
  "deployedLinkReferences": {
    "contracts/NFTUri.sol": {
      "NFTUri": [
        {
          "length": 20,
          "start": 5286
        },
        {
          "length": 20,
          "start": 6461
        }
      ]
    }
  }
}