{
  "_format": "hh-sol-artifact-1",
  "contractName": "Fans",
  "sourceName": "contracts/Fans.sol",
  "abi": [
    {
      "inputs": [
        {
          "internalType": "address",
          "name": "verifier_",
          "type": "address"
        }
      ],
      "stateMutability": "nonpayable",
      "type": "constructor"
    },
    {
      "anonymous": false,
      "inputs": [
        {
          "indexed": true,
          "internalType": "address",
          "name": "owner",
          "type": "address"
        },
        {
          "indexed": true,
          "internalType": "uint256",
          "name": "linkId",
          "type": "uint256"
        },
        {
          "indexed": true,
          "internalType": "address",
          "name": "operator",
          "type": "address"
        }
      ],
      "name": "Approval",
      "type": "event"
    },
    {
      "anonymous": false,
      "inputs": [
        {
          "indexed": true,
          "internalType": "address",
          "name": "owner",
          "type": "address"
        },
        {
          "indexed": true,
          "internalType": "string",
          "name": "endNodeUri",
          "type": "string"
        },
        {
          "indexed": true,
          "internalType": "address",
          "name": "operator",
          "type": "address"
        },
        {
          "indexed": false,
          "internalType": "bool",
          "name": "approved",
          "type": "bool"
        }
      ],
      "name": "ApprovalForAll",
      "type": "event"
    },
    {
      "anonymous": false,
      "inputs": [
        {
          "indexed": true,
          "internalType": "address",
          "name": "from",
          "type": "address"
        },
        {
          "indexed": true,
          "internalType": "string",
          "name": "startNFTUri",
          "type": "string"
        },
        {
          "indexed": false,
          "internalType": "uint256",
          "name": "amount",
          "type": "uint256"
        }
      ],
      "name": "Claim",
      "type": "event"
    },
    {
      "anonymous": false,
      "inputs": [
        {
          "indexed": true,
          "internalType": "address",
          "name": "from",
          "type": "address"
        },
        {
          "indexed": true,
          "internalType": "string",
          "name": "startNFTUri",
          "type": "string"
        },
        {
          "indexed": true,
          "internalType": "string",
          "name": "endNFTUri",
          "type": "string"
        }
      ],
      "name": "Mint",
      "type": "event"
    },
    {
      "anonymous": false,
      "inputs": [
        {
          "indexed": true,
          "internalType": "address",
          "name": "from",
          "type": "address"
        },
        {
          "indexed": true,
          "internalType": "string",
          "name": "startNFTUri",
          "type": "string"
        },
        {
          "indexed": false,
          "internalType": "string",
          "name": "proof",
          "type": "string"
        }
      ],
      "name": "Prove",
      "type": "event"
    },
    {
      "anonymous": false,
      "inputs": [
        {
          "indexed": true,
          "internalType": "address",
          "name": "from",
          "type": "address"
        },
        {
          "indexed": true,
          "internalType": "uint256",
          "name": "linkId",
          "type": "uint256"
        },
        {
          "indexed": true,
          "internalType": "string",
          "name": "toEndNFTUri",
          "type": "string"
        }
      ],
      "name": "Transfer",
      "type": "event"
    },
    {
      "inputs": [
        {
          "internalType": "uint256",
          "name": "linkId",
          "type": "uint256"
        },
        {
          "internalType": "address",
          "name": "operator",
          "type": "address"
        }
      ],
      "name": "approve",
      "outputs": [],
      "stateMutability": "nonpayable",
      "type": "function"
    },
    {
      "inputs": [
        {
          "internalType": "string",
          "name": "startNFTUri",
          "type": "string"
        },
        {
          "internalType": "uint256",
          "name": "amount",
          "type": "uint256"
        }
      ],
      "name": "claim",
      "outputs": [],
      "stateMutability": "nonpayable",
      "type": "function"
    },
    {
      "inputs": [
        {
          "internalType": "uint256",
          "name": "linkId",
          "type": "uint256"
        }
      ],
      "name": "endNodeOf",
      "outputs": [
        {
          "internalType": "string",
          "name": "endNodeUri",
          "type": "string"
        }
      ],
      "stateMutability": "view",
      "type": "function"
    },
    {
      "inputs": [
        {
          "internalType": "string",
          "name": "endNodeUri",
          "type": "string"
        },
        {
          "internalType": "uint256",
          "name": "index",
          "type": "uint256"
        }
      ],
      "name": "inLinkOfByIndex",
      "outputs": [
        {
          "internalType": "uint256",
          "name": "linkId",
          "type": "uint256"
        }
      ],
      "stateMutability": "view",
      "type": "function"
    },
    {
      "inputs": [
        {
          "internalType": "string",
          "name": "endNodeUri",
          "type": "string"
        }
      ],
      "name": "inLinksNumOf",
      "outputs": [
        {
          "internalType": "uint256",
          "name": "num",
          "type": "uint256"
        }
      ],
      "stateMutability": "view",
      "type": "function"
    },
    {
      "inputs": [
        {
          "internalType": "string",
          "name": "endNodeUri",
          "type": "string"
        },
        {
          "internalType": "address",
          "name": "operator",
          "type": "address"
        }
      ],
      "name": "isApprovedForAll",
      "outputs": [
        {
          "internalType": "bool",
          "name": "",
          "type": "bool"
        }
      ],
      "stateMutability": "view",
      "type": "function"
    },
    {
      "inputs": [
        {
          "internalType": "string",
          "name": "startNFTUri",
          "type": "string"
        }
      ],
      "name": "isProved",
      "outputs": [
        {
          "internalType": "bool",
          "name": "proved",
          "type": "bool"
        }
      ],
      "stateMutability": "view",
      "type": "function"
    },
    {
      "inputs": [
        {
          "internalType": "uint256",
          "name": "index",
          "type": "uint256"
        }
      ],
      "name": "linkByIndex",
      "outputs": [
        {
          "internalType": "uint256",
          "name": "",
          "type": "uint256"
        }
      ],
      "stateMutability": "view",
      "type": "function"
    },
    {
      "inputs": [
        {
          "internalType": "string",
          "name": "startNFTUri",
          "type": "string"
        },
        {
          "internalType": "string",
          "name": "endNFTUri",
          "type": "string"
        }
      ],
      "name": "mint",
      "outputs": [],
      "stateMutability": "nonpayable",
      "type": "function"
    },
    {
      "inputs": [],
      "name": "name",
      "outputs": [
        {
          "internalType": "string",
          "name": "",
          "type": "string"
        }
      ],
      "stateMutability": "view",
      "type": "function"
    },
    {
      "inputs": [
        {
          "internalType": "string",
          "name": "startNodeUri",
          "type": "string"
        },
        {
          "internalType": "uint256",
          "name": "index",
          "type": "uint256"
        }
      ],
      "name": "outLinkOfByIndex",
      "outputs": [
        {
          "internalType": "uint256",
          "name": "linkId",
          "type": "uint256"
        }
      ],
      "stateMutability": "view",
      "type": "function"
    },
    {
      "inputs": [
        {
          "internalType": "string",
          "name": "startNodeUri",
          "type": "string"
        }
      ],
      "name": "outLinksNumOf",
      "outputs": [
        {
          "internalType": "uint256",
          "name": "num",
          "type": "uint256"
        }
      ],
      "stateMutability": "view",
      "type": "function"
    },
    {
      "inputs": [
        {
          "internalType": "string",
          "name": "startNFTUri",
          "type": "string"
        },
        {
          "internalType": "string",
          "name": "proof",
          "type": "string"
        }
      ],
      "name": "prove",
      "outputs": [],
      "stateMutability": "nonpayable",
      "type": "function"
    },
    {
      "inputs": [
        {
          "internalType": "string",
          "name": "endNodeUri",
          "type": "string"
        },
        {
          "internalType": "address",
          "name": "operator",
          "type": "address"
        },
        {
          "internalType": "bool",
          "name": "_approved",
          "type": "bool"
        }
      ],
      "name": "setApprovalForAll",
      "outputs": [],
      "stateMutability": "nonpayable",
      "type": "function"
    },
    {
      "inputs": [
        {
          "internalType": "uint256",
          "name": "linkId",
          "type": "uint256"
        }
      ],
      "name": "startNodeOf",
      "outputs": [
        {
          "internalType": "string",
          "name": "startNodeUri",
          "type": "string"
        }
      ],
      "stateMutability": "view",
      "type": "function"
    },
    {
      "inputs": [],
      "name": "symbol",
      "outputs": [
        {
          "internalType": "string",
          "name": "",
          "type": "string"
        }
      ],
      "stateMutability": "view",
      "type": "function"
    },
    {
      "inputs": [],
      "name": "totalLinks",
      "outputs": [
        {
          "internalType": "uint256",
          "name": "",
          "type": "uint256"
        }
      ],
      "stateMutability": "view",
      "type": "function"
    },
    {
      "inputs": [
        {
          "internalType": "uint256",
          "name": "linkId",
          "type": "uint256"
        },
        {
          "internalType": "string",
          "name": "toEndNFTUri",
          "type": "string"
        }
      ],
      "name": "transfer",
      "outputs": [],
      "stateMutability": "nonpayable",
      "type": "function"
    }
  ],
  "bytecode": "0x60806040523480156200001157600080fd5b506040516200386c3803806200386c833981810160405281019062000037919062000183565b6040518060400160405280600481526020017f46616e73000000000000000000000000000000000000000000000000000000008152506040518060400160405280600481526020017f46414e5300000000000000000000000000000000000000000000000000000000815250828282828260009081620000b891906200042f565b508160019081620000ca91906200042f565b5080600260006101000a81548173ffffffffffffffffffffffffffffffffffffffff021916908373ffffffffffffffffffffffffffffffffffffffff1602179055505050505050505062000516565b600080fd5b600073ffffffffffffffffffffffffffffffffffffffff82169050919050565b60006200014b826200011e565b9050919050565b6200015d816200013e565b81146200016957600080fd5b50565b6000815190506200017d8162000152565b92915050565b6000602082840312156200019c576200019b62000119565b5b6000620001ac848285016200016c565b91505092915050565b600081519050919050565b7f4e487b7100000000000000000000000000000000000000000000000000000000600052604160045260246000fd5b7f4e487b7100000000000000000000000000000000000000000000000000000000600052602260045260246000fd5b600060028204905060018216806200023757607f821691505b6020821081036200024d576200024c620001ef565b5b50919050565b60008190508160005260206000209050919050565b60006020601f8301049050919050565b600082821b905092915050565b600060088302620002b77fffffffffffffffffffffffffffffffffffffffffffffffffffffffffffffffff8262000278565b620002c3868362000278565b95508019841693508086168417925050509392505050565b6000819050919050565b6000819050919050565b6000620003106200030a6200030484620002db565b620002e5565b620002db565b9050919050565b6000819050919050565b6200032c83620002ef565b620003446200033b8262000317565b84845462000285565b825550505050565b600090565b6200035b6200034c565b6200036881848462000321565b505050565b5b8181101562000390576200038460008262000351565b6001810190506200036e565b5050565b601f821115620003df57620003a98162000253565b620003b48462000268565b81016020851015620003c4578190505b620003dc620003d38562000268565b8301826200036d565b50505b505050565b600082821c905092915050565b60006200040460001984600802620003e4565b1980831691505092915050565b60006200041f8383620003f1565b9150826002028217905092915050565b6200043a82620001b5565b67ffffffffffffffff811115620004565762000455620001c0565b5b6200046282546200021e565b6200046f82828562000394565b600060209050601f831160018114620004a7576000841562000492578287015190505b6200049e858262000411565b8655506200050e565b601f198416620004b78662000253565b60005b82811015620004e157848901518255600182019150602085019450602081019050620004ba565b86831015620005015784890151620004fd601f891682620003f1565b8355505b6001600288020188555050505b505050505050565b61334680620005266000396000f3fe608060405234801561001057600080fd5b50600436106101165760003560e01c80639b6fdcc0116100a2578063ca32ab8611610071578063ca32ab861461032d578063cb7bba6114610349578063d70e79dc14610365578063e64d2fb414610395578063febe4909146103b157610116565b80639b6fdcc01461026d578063a32f35e01461029d578063ad5bb464146102cd578063c06d86d1146102fd57610116565b806359b361ef116100e957806359b361ef146101b75780635ecdf043146101d35780636a793a6c146102035780638aa0fdad1461023357806395d89b411461024f57610116565b806306fdde031461011b578063092b4de1146101395780630d277449146101575780635880bdb114610187575b600080fd5b6101236103cd565b60405161013091906122ae565b60405180910390f35b61014161045f565b60405161014e91906122e9565b60405180910390f35b610171600480360381019061016c9190612344565b61046c565b60405161017e91906122ae565b60405180910390f35b6101a1600480360381019061019c91906124a6565b610527565b6040516101ae91906122e9565b60405180910390f35b6101d160048036038101906101cc9190612598565b61055e565b005b6101ed60048036038101906101e89190612607565b610649565b6040516101fa91906122e9565b60405180910390f35b61021d60048036038101906102189190612607565b610675565b60405161022a91906122e9565b60405180910390f35b61024d60048036038101906102489190612650565b6106a1565b005b61025761091d565b60405161026491906122ae565b60405180910390f35b61028760048036038101906102829190612344565b6109af565b60405161029491906122e9565b60405180910390f35b6102b760048036038101906102b291906126c8565b610a20565b6040516102c49190612733565b60405180910390f35b6102e760048036038101906102e291906124a6565b610a90565b6040516102f491906122e9565b60405180910390f35b61031760048036038101906103129190612344565b610ac7565b60405161032491906122ae565b60405180910390f35b6103476004803603810190610342919061274e565b610b82565b005b610363600480360381019061035e9190612650565b6110ef565b005b61037f600480360381019061037a9190612607565b6111c6565b60405161038c9190612733565b60405180910390f35b6103af60048036038101906103aa91906124a6565b611287565b005b6103cb60048036038101906103c691906127aa565b61146b565b005b6060600080546103dc90612819565b80601f016020809104026020016040519081016040528092919081815260200182805461040890612819565b80156104555780601f1061042a57610100808354040283529160200191610455565b820191906000526020600020905b81548152906001019060200180831161043857829003601f168201915b5050505050905090565b6000601380549050905090565b6060600660006009600085815260200190815260200160002060000154815260200190815260200160002080546104a290612819565b80601f01602080910402602001604051908101604052809291908181526020018280546104ce90612819565b801561051b5780601f106104f05761010080835404028352916020019161051b565b820191906000526020600020905b8154815290600101906020018083116104fe57829003601f168201915b50505050509050919050565b6000600f600061053685611537565b8152602001908152602001600020600083815260200190815260200160002054905092915050565b61056783611582565b73ffffffffffffffffffffffffffffffffffffffff163373ffffffffffffffffffffffffffffffffffffffff16146105d4576040517f08c379a00000000000000000000000000000000000000000000000000000000081526004016105cb90612896565b60405180910390fd5b80600c60006105e286611537565b815260200190815260200160002060008473ffffffffffffffffffffffffffffffffffffffff1673ffffffffffffffffffffffffffffffffffffffff16815260200190815260200160002060006101000a81548160ff021916908315150217905550505050565b600061066e600d600061065b85611537565b8152602001908152602001600020611690565b9050919050565b600061069a600e600061068785611537565b8152602001908152602001600020611690565b9050919050565b6106aa8261169e565b1580156106bd57506106bb8161169e565b155b6106fc576040517f08c379a00000000000000000000000000000000000000000000000000000000081526004016106f390612902565b60405180910390fd5b6000610707836116b1565b9050600060076000838152602001908152602001600020604051806060016040529081600082015481526020016001820160009054906101000a900473ffffffffffffffffffffffffffffffffffffffff1673ffffffffffffffffffffffffffffffffffffffff1673ffffffffffffffffffffffffffffffffffffffff1681526020016002820154815250509050600073ffffffffffffffffffffffffffffffffffffffff16816020015173ffffffffffffffffffffffffffffffffffffffff1603610808576040517f08c379a00000000000000000000000000000000000000000000000000000000081526004016107ff9061296e565b60405180910390fd5b600061082560086000858152602001908152602001600020611690565b9050816000015181101561086e576040517f08c379a0000000000000000000000000000000000000000000000000000000008152600401610865906129da565b60405180910390fd5b6000610879856116b1565b9050610896866040518060200160405280600081525087856117c8565b6040518060400160405280858152602001828152506009600084815260200190815260200160002060008201518160000155602082015181600101559050506108f08660405180602001604052806000815250878561187a565b6108fa6003611900565b61091560086000868152602001908152602001600020611900565b505050505050565b60606001805461092c90612819565b80601f016020809104026020016040519081016040528092919081815260200182805461095890612819565b80156109a55780601f1061097a576101008083540402835291602001916109a5565b820191906000526020600020905b81548152906001019060200180831161098857829003601f168201915b5050505050905090565b60006109b961045f565b82106109fa576040517f08c379a00000000000000000000000000000000000000000000000000000000081526004016109f190612a6c565b60405180910390fd5b60138281548110610a0e57610a0d612a8c565b5b90600052602060002001549050919050565b6000600c6000610a2f85611537565b815260200190815260200160002060008373ffffffffffffffffffffffffffffffffffffffff1673ffffffffffffffffffffffffffffffffffffffff16815260200190815260200160002060009054906101000a900460ff16905092915050565b600060106000610a9f85611537565b8152602001908152602001600020600083815260200190815260200160002054905092915050565b606060066000600960008581526020019081526020016000206001015481526020019081526020016000208054610afd90612819565b80601f0160208091040260200160405190810160405280929190818152602001828054610b2990612819565b8015610b765780601f10610b4b57610100808354040283529160200191610b76565b820191906000526020600020905b815481529060010190602001808311610b5957829003601f168201915b50505050509050919050565b600060096000848152602001908152602001600020604051806040016040529081600082015481526020016001820154815250509050610c6160066000836020015181526020019081526020016000208054610bdd90612819565b80601f0160208091040260200160405190810160405280929190818152602001828054610c0990612819565b8015610c565780601f10610c2b57610100808354040283529160200191610c56565b820191906000526020600020905b815481529060010190602001808311610c3957829003601f168201915b505050505083611916565b15610ca1576040517f08c379a0000000000000000000000000000000000000000000000000000000008152600401610c9890612b07565b60405180910390fd5b6000610cac836116b1565b9050610cb78461197a565b73ffffffffffffffffffffffffffffffffffffffff163373ffffffffffffffffffffffffffffffffffffffff161480610d4e5750600b600085815260200190815260200160002060009054906101000a900473ffffffffffffffffffffffffffffffffffffffff1673ffffffffffffffffffffffffffffffffffffffff163373ffffffffffffffffffffffffffffffffffffffff16145b80610db35750600c600082815260200190815260200160002060003373ffffffffffffffffffffffffffffffffffffffff1673ffffffffffffffffffffffffffffffffffffffff16815260200190815260200160002060009054906101000a900460ff165b610df2576040517f08c379a0000000000000000000000000000000000000000000000000000000008152600401610de990612b73565b60405180910390fd5b610f6060066000600960008881526020019081526020016000206000015481526020019081526020016000208054610e2990612819565b80601f0160208091040260200160405190810160405280929190818152602001828054610e5590612819565b8015610ea25780601f10610e7757610100808354040283529160200191610ea2565b820191906000526020600020905b815481529060010190602001808311610e8557829003601f168201915b505050505060066000600960008981526020019081526020016000206001015481526020019081526020016000208054610edb90612819565b80601f0160208091040260200160405190810160405280929190818152602001828054610f0790612819565b8015610f545780601f10610f2957610100808354040283529160200191610f54565b820191906000526020600020905b815481529060010190602001808311610f3757829003601f168201915b505050505085876117c8565b8060096000868152602001908152602001600020600101819055506110e960066000600960008881526020019081526020016000206000015481526020019081526020016000208054610fb290612819565b80601f0160208091040260200160405190810160405280929190818152602001828054610fde90612819565b801561102b5780601f106110005761010080835404028352916020019161102b565b820191906000526020600020905b81548152906001019060200180831161100e57829003601f168201915b50505050506006600060096000898152602001908152602001600020600101548152602001908152602001600020805461106490612819565b80601f016020809104026020016040519081016040528092919081815260200182805461109090612819565b80156110dd5780601f106110b2576101008083540402835291602001916110dd565b820191906000526020600020905b8154815290600101906020018083116110c057829003601f168201915b5050505050858761187a565b50505050565b60006110fa83611537565b90506007600082815260200190815260200160002060010160009054906101000a900473ffffffffffffffffffffffffffffffffffffffff1673ffffffffffffffffffffffffffffffffffffffff163373ffffffffffffffffffffffffffffffffffffffff16146111a0576040517f08c379a000000000000000000000000000000000000000000000000000000000815260040161119790612bdf565b60405180910390fd5b81600a600083815260200190815260200160002090816111c09190612dab565b50505050565b6000600260009054906101000a900473ffffffffffffffffffffffffffffffffffffffff1673ffffffffffffffffffffffffffffffffffffffff16639deb17f583600a600061121487611537565b81526020019081526020016000206040518363ffffffff1660e01b815260040161123f929190612f01565b602060405180830381865afa15801561125c573d6000803e3d6000fd5b505050506040513d601f19601f820116820180604052508101906112809190612f4d565b9050919050565b6000611292836116b1565b90506000600760008381526020019081526020016000209050600073ffffffffffffffffffffffffffffffffffffffff168160010160009054906101000a900473ffffffffffffffffffffffffffffffffffffffff1673ffffffffffffffffffffffffffffffffffffffff16146113c2573373ffffffffffffffffffffffffffffffffffffffff168160010160009054906101000a900473ffffffffffffffffffffffffffffffffffffffff1673ffffffffffffffffffffffffffffffffffffffff1614611395576040517f08c379a000000000000000000000000000000000000000000000000000000000815260040161138c90612fec565b60405180910390fd5b60008160000154846113a7919061303b565b905060008111156113bc578382600001819055505b50611465565b60405180606001604052808481526020013373ffffffffffffffffffffffffffffffffffffffff16815260200183815250600760008481526020019081526020016000206000820151816000015560208201518160010160006101000a81548173ffffffffffffffffffffffffffffffffffffffff021916908373ffffffffffffffffffffffffffffffffffffffff160217905550604082015181600201559050505b50505050565b6114748261197a565b73ffffffffffffffffffffffffffffffffffffffff163373ffffffffffffffffffffffffffffffffffffffff16146114e1576040517f08c379a00000000000000000000000000000000000000000000000000000000081526004016114d890612896565b60405180910390fd5b80600b600084815260200190815260200160002060006101000a81548173ffffffffffffffffffffffffffffffffffffffff021916908373ffffffffffffffffffffffffffffffffffffffff1602179055505050565b6000808260405160200161154b91906122ae565b6040516020818303038152906040528051906020012090506005600082815260200190815260200160002060000154915050919050565b6000808273__$bfe9954da5d0c317619e6e625b17f2c42f$__636b0bd8f190916040518263ffffffff1660e01b81526004016115be91906130b9565b600060405180830381865af41580156115db573d6000803e3d6000fd5b505050506040513d6000823e3d601f19601f8201168201806040525081019061160491906131ff565b9050806020015173ffffffffffffffffffffffffffffffffffffffff16636352211e82604001516040518263ffffffff1660e01b815260040161164791906122e9565b602060405180830381865afa158015611664573d6000803e3d6000fd5b505050506040513d601f19601f820116820180604052508101906116889190613248565b915050919050565b600081600001549050919050565b6000808290506000815114915050919050565b600080826040516020016116c591906122ae565b60405160208183030381529060405280519060200120905060016005600083815260200190815260200160002060010160009054906101000a900460ff1660ff160361172a5760056000828152602001908152602001600020600001549150506117c3565b60006117366004611690565b90506040518060400160405280828152602001600160ff16815250600560008481526020019081526020016000206000820151816000015560208201518160010160006101000a81548160ff021916908360ff160217905550905050836006600083815260200190815260200160002090816117b29190612dab565b506117bd6004611900565b80925050505b919050565b6117d484848484611b39565b60006117df85611537565b905060006117ec85611537565b905060006117f985611537565b90506118048661169e565b1561182b5761181284611b3f565b61181c8385611b88565b6118268185611c14565b611871565b6118348561169e565b1561185b5761184284611ca0565b61184c8385611d71565b6118568285611e87565b611870565b6118658285611e87565b61186f8185611c14565b5b5b50505050505050565b61188684848484611f9d565b600061189185611537565b9050600061189e85611537565b905060006118bd600e6000858152602001908152602001600020611690565b036118cc576118cb86611fa3565b5b60006118e9600d6000848152602001908152602001600020611690565b036118f8576118f7866120c9565b5b505050505050565b6001816000016000828254019250508190555050565b6000808360405160200161192a91906122ae565b60405160208183030381529060405280519060200120905060008360405160200161195591906122ae565b6040516020818303038152906040528051906020012090508082149250505092915050565b600080600660006009600086815260200190815260200160002060010154815260200190815260200160002080546119b190612819565b80601f01602080910402602001604051908101604052809291908181526020018280546119dd90612819565b8015611a2a5780601f106119ff57610100808354040283529160200191611a2a565b820191906000526020600020905b815481529060010190602001808311611a0d57829003601f168201915b505050505073__$bfe9954da5d0c317619e6e625b17f2c42f$__636b0bd8f190916040518263ffffffff1660e01b8152600401611a6791906130b9565b600060405180830381865af4158015611a84573d6000803e3d6000fd5b505050506040513d6000823e3d601f19601f82011682018060405250810190611aad91906131ff565b9050806020015173ffffffffffffffffffffffffffffffffffffffff16636352211e82604001516040518263ffffffff1660e01b8152600401611af091906122e9565b602060405180830381865afa158015611b0d573d6000803e3d6000fd5b505050506040513d601f19601f82011682018060405250810190611b319190613248565b915050919050565b50505050565b6013805490506014600083815260200190815260200160002081905550601381908060018154018082558091505060019003906000526020600020016000909190919091505550565b611ba3600e6000848152602001908152602001600020611900565b60006001611bc2600e6000868152602001908152602001600020611690565b611bcc919061303b565b905081600f6000858152602001908152602001600020600083815260200190815260200160002081905550806011600084815260200190815260200160002081905550505050565b611c2f600d6000848152602001908152602001600020611900565b60006001611c4e600d6000868152602001908152602001600020611690565b611c58919061303b565b90508160106000858152602001908152602001600020600083815260200190815260200160002081905550806012600084815260200190815260200160002081905550505050565b60006001601380549050611cb4919061303b565b9050600060146000848152602001908152602001600020549050600060138381548110611ce457611ce3612a8c565b5b906000526020600020015490508060138381548110611d0657611d05612a8c565b5b906000526020600020018190555081601460008381526020019081526020016000208190555060146000858152602001908152602001600020600090556013805480611d5557611d54613275565b5b6001900381819060005260206000200160009055905550505050565b60006001611d90600e6000868152602001908152602001600020611690565b611d9a919061303b565b9050600060116000848152602001908152602001600020549050818114611e27576000600f6000868152602001908152602001600020600084815260200190815260200160002054905080600f6000878152602001908152602001600020600084815260200190815260200160002081905550816011600083815260200190815260200160002081905550505b6011600084815260200190815260200160002060009055600f6000858152602001908152602001600020600083815260200190815260200160002060009055611e81600e6000868152602001908152602001600020612165565b50505050565b60006001611ea6600d6000868152602001908152602001600020611690565b611eb0919061303b565b9050600060126000848152602001908152602001600020549050818114611f3d5760006010600086815260200190815260200160002060008481526020019081526020016000205490508060106000878152602001908152602001600020600084815260200190815260200160002081905550816012600083815260200190815260200160002081905550505b601260008481526020019081526020016000206000905560106000858152602001908152602001600020600083815260200190815260200160002060009055611f97600d6000868152602001908152602001600020612165565b50505050565b50505050565b600081604051602001611fb691906122ae565b604051602081830303815290604052805190602001209050600060056000838152602001908152602001600020600001549050600560008381526020019081526020016000206000808201600090556001820160006101000a81549060ff0219169055505060066000828152602001908152602001600020600061203a91906121c1565b600a6000828152602001908152602001600020600061205991906121c1565b600860008281526020019081526020016000206000808201600090555050600760008281526020019081526020016000206000808201600090556001820160006101000a81549073ffffffffffffffffffffffffffffffffffffffff021916905560028201600090555050505050565b6000816040516020016120dc91906122ae565b604051602081830303815290604052805190602001209050600060056000838152602001908152602001600020600001549050600560008381526020019081526020016000206000808201600090556001820160006101000a81549060ff0219169055505060066000828152602001908152602001600020600061216091906121c1565b505050565b600081600001549050600081116121b1576040517f08c379a00000000000000000000000000000000000000000000000000000000081526004016121a8906132f0565b60405180910390fd5b6001810382600001819055505050565b5080546121cd90612819565b6000825580601f106121df57506121fe565b601f0160209004906000526020600020908101906121fd9190612201565b5b50565b5b8082111561221a576000816000905550600101612202565b5090565b600081519050919050565b600082825260208201905092915050565b60005b8381101561225857808201518184015260208101905061223d565b60008484015250505050565b6000601f19601f8301169050919050565b60006122808261221e565b61228a8185612229565b935061229a81856020860161223a565b6122a381612264565b840191505092915050565b600060208201905081810360008301526122c88184612275565b905092915050565b6000819050919050565b6122e3816122d0565b82525050565b60006020820190506122fe60008301846122da565b92915050565b6000604051905090565b600080fd5b600080fd5b612321816122d0565b811461232c57600080fd5b50565b60008135905061233e81612318565b92915050565b60006020828403121561235a5761235961230e565b5b60006123688482850161232f565b91505092915050565b600080fd5b600080fd5b7f4e487b7100000000000000000000000000000000000000000000000000000000600052604160045260246000fd5b6123b382612264565b810181811067ffffffffffffffff821117156123d2576123d161237b565b5b80604052505050565b60006123e5612304565b90506123f182826123aa565b919050565b600067ffffffffffffffff8211156124115761241061237b565b5b61241a82612264565b9050602081019050919050565b82818337600083830152505050565b6000612449612444846123f6565b6123db565b90508281526020810184848401111561246557612464612376565b5b612470848285612427565b509392505050565b600082601f83011261248d5761248c612371565b5b813561249d848260208601612436565b91505092915050565b600080604083850312156124bd576124bc61230e565b5b600083013567ffffffffffffffff8111156124db576124da612313565b5b6124e785828601612478565b92505060206124f88582860161232f565b9150509250929050565b600073ffffffffffffffffffffffffffffffffffffffff82169050919050565b600061252d82612502565b9050919050565b61253d81612522565b811461254857600080fd5b50565b60008135905061255a81612534565b92915050565b60008115159050919050565b61257581612560565b811461258057600080fd5b50565b6000813590506125928161256c565b92915050565b6000806000606084860312156125b1576125b061230e565b5b600084013567ffffffffffffffff8111156125cf576125ce612313565b5b6125db86828701612478565b93505060206125ec8682870161254b565b92505060406125fd86828701612583565b9150509250925092565b60006020828403121561261d5761261c61230e565b5b600082013567ffffffffffffffff81111561263b5761263a612313565b5b61264784828501612478565b91505092915050565b600080604083850312156126675761266661230e565b5b600083013567ffffffffffffffff81111561268557612684612313565b5b61269185828601612478565b925050602083013567ffffffffffffffff8111156126b2576126b1612313565b5b6126be85828601612478565b9150509250929050565b600080604083850312156126df576126de61230e565b5b600083013567ffffffffffffffff8111156126fd576126fc612313565b5b61270985828601612478565b925050602061271a8582860161254b565b9150509250929050565b61272d81612560565b82525050565b60006020820190506127486000830184612724565b92915050565b600080604083850312156127655761276461230e565b5b60006127738582860161232f565b925050602083013567ffffffffffffffff81111561279457612793612313565b5b6127a085828601612478565b9150509250929050565b600080604083850312156127c1576127c061230e565b5b60006127cf8582860161232f565b92505060206127e08582860161254b565b9150509250929050565b7f4e487b7100000000000000000000000000000000000000000000000000000000600052602260045260246000fd5b6000600282049050600182168061283157607f821691505b602082108103612844576128436127ea565b5b50919050565b7f6f776e6572000000000000000000000000000000000000000000000000000000600082015250565b6000612880600583612229565b915061288b8261284a565b602082019050919050565b600060208201905081810360008301526128af81612873565b9050919050565b7f557269206973206e6f7420616c6c6f77656420656d7074792100000000000000600082015250565b60006128ec601983612229565b91506128f7826128b6565b602082019050919050565b6000602082019050818103600083015261291b816128df565b9050919050565b7f73746172744e4654557269206973206e6f7420636c61696d6564210000000000600082015250565b6000612958601b83612229565b915061296382612922565b602082019050919050565b600060208201905081810360008301526129878161294b565b9050919050565b7f6d696e742066696e697368000000000000000000000000000000000000000000600082015250565b60006129c4600b83612229565b91506129cf8261298e565b602082019050919050565b600060208201905081810360008301526129f3816129b7565b9050919050565b7f56616c75654c696e6b456e756d657261626c653a20676c6f62616c20696e646560008201527f78206f7574206f6620626f756e64730000000000000000000000000000000000602082015250565b6000612a56602f83612229565b9150612a61826129fa565b604082019050919050565b60006020820190508181036000830152612a8581612a49565b9050919050565b7f4e487b7100000000000000000000000000000000000000000000000000000000600052603260045260246000fd5b7f73616d6520746172676574207572692c206e6f206368616e6765000000000000600082015250565b6000612af1601a83612229565b9150612afc82612abb565b602082019050919050565b60006020820190508181036000830152612b2081612ae4565b9050919050565b7f6e6f206f776e6572206f72206e6f20617070726f76616c000000000000000000600082015250565b6000612b5d601783612229565b9150612b6882612b27565b602082019050919050565b60006020820190508181036000830152612b8c81612b50565b9050919050565b7f6e6f7420636c61696d6572000000000000000000000000000000000000000000600082015250565b6000612bc9600b83612229565b9150612bd482612b93565b602082019050919050565b60006020820190508181036000830152612bf881612bbc565b9050919050565b60008190508160005260206000209050919050565b60006020601f8301049050919050565b600082821b905092915050565b600060088302612c617fffffffffffffffffffffffffffffffffffffffffffffffffffffffffffffffff82612c24565b612c6b8683612c24565b95508019841693508086168417925050509392505050565b6000819050919050565b6000612ca8612ca3612c9e846122d0565b612c83565b6122d0565b9050919050565b6000819050919050565b612cc283612c8d565b612cd6612cce82612caf565b848454612c31565b825550505050565b600090565b612ceb612cde565b612cf6818484612cb9565b505050565b5b81811015612d1a57612d0f600082612ce3565b600181019050612cfc565b5050565b601f821115612d5f57612d3081612bff565b612d3984612c14565b81016020851015612d48578190505b612d5c612d5485612c14565b830182612cfb565b50505b505050565b600082821c905092915050565b6000612d8260001984600802612d64565b1980831691505092915050565b6000612d9b8383612d71565b9150826002028217905092915050565b612db48261221e565b67ffffffffffffffff811115612dcd57612dcc61237b565b5b612dd78254612819565b612de2828285612d1e565b600060209050601f831160018114612e155760008415612e03578287015190505b612e0d8582612d8f565b865550612e75565b601f198416612e2386612bff565b60005b82811015612e4b57848901518255600182019150602085019450602081019050612e26565b86831015612e685784890151612e64601f891682612d71565b8355505b6001600288020188555050505b505050505050565b60008154612e8a81612819565b612e948186612229565b94506001821660008114612eaf5760018114612ec557612ef8565b60ff198316865281151560200286019350612ef8565b612ece85612bff565b60005b83811015612ef057815481890152600182019150602081019050612ed1565b808801955050505b50505092915050565b60006040820190508181036000830152612f1b8185612275565b90508181036020830152612f2f8184612e7d565b90509392505050565b600081519050612f478161256c565b92915050565b600060208284031215612f6357612f6261230e565b5b6000612f7184828501612f38565b91505092915050565b7f6f6e6c79206f776e65722063616e2075706461746520746f74616c207375707060008201527f6c79000000000000000000000000000000000000000000000000000000000000602082015250565b6000612fd6602283612229565b9150612fe182612f7a565b604082019050919050565b6000602082019050818103600083015261300581612fc9565b9050919050565b7f4e487b7100000000000000000000000000000000000000000000000000000000600052601160045260246000fd5b6000613046826122d0565b9150613051836122d0565b92508282039050818111156130695761306861300c565b5b92915050565b600082825260208201905092915050565b600061308b8261221e565b613095818561306f565b93506130a581856020860161223a565b6130ae81612264565b840191505092915050565b600060208201905081810360008301526130d38184613080565b905092915050565b600080fd5b600080fd5b60006130f86130f3846123f6565b6123db565b90508281526020810184848401111561311457613113612376565b5b61311f84828561223a565b509392505050565b600082601f83011261313c5761313b612371565b5b815161314c8482602086016130e5565b91505092915050565b60008151905061316481612534565b92915050565b60008151905061317981612318565b92915050565b600060608284031215613195576131946130db565b5b61319f60606123db565b9050600082015167ffffffffffffffff8111156131bf576131be6130e0565b5b6131cb84828501613127565b60008301525060206131df84828501613155565b60208301525060406131f38482850161316a565b60408301525092915050565b6000602082840312156132155761321461230e565b5b600082015167ffffffffffffffff81111561323357613232612313565b5b61323f8482850161317f565b91505092915050565b60006020828403121561325e5761325d61230e565b5b600061326c84828501613155565b91505092915050565b7f4e487b7100000000000000000000000000000000000000000000000000000000600052603160045260246000fd5b7f436f756e7465723a2064656372656d656e74206f766572666c6f770000000000600082015250565b60006132da601b83612229565b91506132e5826132a4565b602082019050919050565b60006020820190508181036000830152613309816132cd565b905091905056fea2646970667358221220dc1e486496aa009fa42b986b4ca8408b7b1b2e24f78910c1f5813a9c629247dc64736f6c63430008110033",
  "linkReferences": {
    "contracts/NFTUri.sol": {
      "NFTUri": [
        {
          "length": 20,
          "start": 6830
        },
        {
          "length": 20,
          "start": 8023
        }
      ]
    }
  },
  "deployedLinkReferences": {
    "contracts/NFTUri.sol": {
      "NFTUri": [
        {
          "length": 20,
          "start": 5512
        },
        {
          "length": 20,
          "start": 6705
        }
      ]
    }
  }
}