{
  "_format": "hh-sol-artifact-1",
  "contractName": "Fans",
  "sourceName": "contracts/Fans.sol",
  "abi": [
    {
      "inputs": [
        {
          "internalType": "address",
          "name": "verifier_",
          "type": "address"
        }
      ],
      "stateMutability": "nonpayable",
      "type": "constructor"
    },
    {
      "anonymous": false,
      "inputs": [
        {
          "indexed": true,
          "internalType": "address",
          "name": "owner",
          "type": "address"
        },
        {
          "indexed": true,
          "internalType": "uint256",
          "name": "linkId",
          "type": "uint256"
        },
        {
          "indexed": true,
          "internalType": "address",
          "name": "operator",
          "type": "address"
        }
      ],
      "name": "Approval",
      "type": "event"
    },
    {
      "anonymous": false,
      "inputs": [
        {
          "indexed": true,
          "internalType": "address",
          "name": "owner",
          "type": "address"
        },
        {
          "indexed": true,
          "internalType": "string",
          "name": "endNodeUri",
          "type": "string"
        },
        {
          "indexed": true,
          "internalType": "address",
          "name": "operator",
          "type": "address"
        },
        {
          "indexed": false,
          "internalType": "bool",
          "name": "approved",
          "type": "bool"
        }
      ],
      "name": "ApprovalForAll",
      "type": "event"
    },
    {
      "anonymous": false,
      "inputs": [
        {
          "indexed": true,
          "internalType": "address",
          "name": "from",
          "type": "address"
        },
        {
          "indexed": true,
          "internalType": "string",
          "name": "startNFTUri",
          "type": "string"
        },
        {
          "indexed": false,
          "internalType": "uint256",
          "name": "amount",
          "type": "uint256"
        }
      ],
      "name": "Claim",
      "type": "event"
    },
    {
      "anonymous": false,
      "inputs": [
        {
          "indexed": true,
          "internalType": "address",
          "name": "from",
          "type": "address"
        },
        {
          "indexed": true,
          "internalType": "string",
          "name": "startNFTUri",
          "type": "string"
        },
        {
          "indexed": true,
          "internalType": "string",
          "name": "endNFTUri",
          "type": "string"
        }
      ],
      "name": "Mint",
      "type": "event"
    },
    {
      "anonymous": false,
      "inputs": [
        {
          "indexed": true,
          "internalType": "address",
          "name": "from",
          "type": "address"
        },
        {
          "indexed": true,
          "internalType": "string",
          "name": "startNFTUri",
          "type": "string"
        },
        {
          "indexed": false,
          "internalType": "string",
          "name": "proof",
          "type": "string"
        }
      ],
      "name": "Prove",
      "type": "event"
    },
    {
      "anonymous": false,
      "inputs": [
        {
          "indexed": true,
          "internalType": "address",
          "name": "from",
          "type": "address"
        },
        {
          "indexed": true,
          "internalType": "uint256",
          "name": "linkId",
          "type": "uint256"
        },
        {
          "indexed": true,
          "internalType": "string",
          "name": "toEndNFTUri",
          "type": "string"
        }
      ],
      "name": "Transfer",
      "type": "event"
    },
    {
      "inputs": [
        {
          "internalType": "uint256",
          "name": "linkId",
          "type": "uint256"
        },
        {
          "internalType": "address",
          "name": "operator",
          "type": "address"
        }
      ],
      "name": "approve",
      "outputs": [],
      "stateMutability": "nonpayable",
      "type": "function"
    },
    {
      "inputs": [
        {
          "internalType": "string",
          "name": "startNFTUri",
          "type": "string"
        },
        {
          "internalType": "uint256",
          "name": "amount",
          "type": "uint256"
        }
      ],
      "name": "claim",
      "outputs": [],
      "stateMutability": "nonpayable",
      "type": "function"
    },
    {
      "inputs": [
        {
          "internalType": "uint256",
          "name": "index",
          "type": "uint256"
        }
      ],
      "name": "claimByIndex",
      "outputs": [
        {
          "internalType": "string",
          "name": "",
          "type": "string"
        }
      ],
      "stateMutability": "view",
      "type": "function"
    },
    {
      "inputs": [
        {
          "internalType": "uint256",
          "name": "linkId",
          "type": "uint256"
        }
      ],
      "name": "endNodeOf",
      "outputs": [
        {
          "internalType": "string",
          "name": "endNodeUri",
          "type": "string"
        }
      ],
      "stateMutability": "view",
      "type": "function"
    },
    {
      "inputs": [
        {
          "internalType": "string",
          "name": "endNodeUri",
          "type": "string"
        },
        {
          "internalType": "uint256",
          "name": "index",
          "type": "uint256"
        }
      ],
      "name": "inLinkOfByIndex",
      "outputs": [
        {
          "internalType": "uint256",
          "name": "linkId",
          "type": "uint256"
        }
      ],
      "stateMutability": "view",
      "type": "function"
    },
    {
      "inputs": [
        {
          "internalType": "string",
          "name": "endNodeUri",
          "type": "string"
        }
      ],
      "name": "inLinksNumOf",
      "outputs": [
        {
          "internalType": "uint256",
          "name": "num",
          "type": "uint256"
        }
      ],
      "stateMutability": "view",
      "type": "function"
    },
    {
      "inputs": [
        {
          "internalType": "string",
          "name": "endNodeUri",
          "type": "string"
        },
        {
          "internalType": "address",
          "name": "operator",
          "type": "address"
        }
      ],
      "name": "isApprovedForAll",
      "outputs": [
        {
          "internalType": "bool",
          "name": "",
          "type": "bool"
        }
      ],
      "stateMutability": "view",
      "type": "function"
    },
    {
      "inputs": [
        {
          "internalType": "string",
          "name": "startNFTUri",
          "type": "string"
        }
      ],
      "name": "isProved",
      "outputs": [
        {
          "internalType": "bool",
          "name": "proved",
          "type": "bool"
        }
      ],
      "stateMutability": "view",
      "type": "function"
    },
    {
      "inputs": [
        {
          "internalType": "uint256",
          "name": "index",
          "type": "uint256"
        }
      ],
      "name": "linkByIndex",
      "outputs": [
        {
          "internalType": "uint256",
          "name": "",
          "type": "uint256"
        }
      ],
      "stateMutability": "view",
      "type": "function"
    },
    {
      "inputs": [
        {
          "internalType": "string",
          "name": "startNFTUri",
          "type": "string"
        },
        {
          "internalType": "string",
          "name": "endNFTUri",
          "type": "string"
        }
      ],
      "name": "mint",
      "outputs": [],
      "stateMutability": "nonpayable",
      "type": "function"
    },
    {
      "inputs": [],
      "name": "name",
      "outputs": [
        {
          "internalType": "string",
          "name": "",
          "type": "string"
        }
      ],
      "stateMutability": "view",
      "type": "function"
    },
    {
      "inputs": [
        {
          "internalType": "string",
          "name": "startNodeUri",
          "type": "string"
        },
        {
          "internalType": "uint256",
          "name": "index",
          "type": "uint256"
        }
      ],
      "name": "outLinkOfByIndex",
      "outputs": [
        {
          "internalType": "uint256",
          "name": "linkId",
          "type": "uint256"
        }
      ],
      "stateMutability": "view",
      "type": "function"
    },
    {
      "inputs": [
        {
          "internalType": "string",
          "name": "startNodeUri",
          "type": "string"
        }
      ],
      "name": "outLinksNumOf",
      "outputs": [
        {
          "internalType": "uint256",
          "name": "num",
          "type": "uint256"
        }
      ],
      "stateMutability": "view",
      "type": "function"
    },
    {
      "inputs": [
        {
          "internalType": "string",
          "name": "startNFTUri",
          "type": "string"
        },
        {
          "internalType": "string",
          "name": "proof",
          "type": "string"
        }
      ],
      "name": "prove",
      "outputs": [],
      "stateMutability": "nonpayable",
      "type": "function"
    },
    {
      "inputs": [
        {
          "internalType": "string",
          "name": "endNodeUri",
          "type": "string"
        },
        {
          "internalType": "address",
          "name": "operator",
          "type": "address"
        },
        {
          "internalType": "bool",
          "name": "_approved",
          "type": "bool"
        }
      ],
      "name": "setApprovalForAll",
      "outputs": [],
      "stateMutability": "nonpayable",
      "type": "function"
    },
    {
      "inputs": [
        {
          "internalType": "uint256",
          "name": "linkId",
          "type": "uint256"
        }
      ],
      "name": "startNodeOf",
      "outputs": [
        {
          "internalType": "string",
          "name": "startNodeUri",
          "type": "string"
        }
      ],
      "stateMutability": "view",
      "type": "function"
    },
    {
      "inputs": [],
      "name": "symbol",
      "outputs": [
        {
          "internalType": "string",
          "name": "",
          "type": "string"
        }
      ],
      "stateMutability": "view",
      "type": "function"
    },
    {
      "inputs": [],
      "name": "totalClaims",
      "outputs": [
        {
          "internalType": "uint256",
          "name": "",
          "type": "uint256"
        }
      ],
      "stateMutability": "view",
      "type": "function"
    },
    {
      "inputs": [],
      "name": "totalLinks",
      "outputs": [
        {
          "internalType": "uint256",
          "name": "",
          "type": "uint256"
        }
      ],
      "stateMutability": "view",
      "type": "function"
    },
    {
      "inputs": [
        {
          "internalType": "uint256",
          "name": "linkId",
          "type": "uint256"
        },
        {
          "internalType": "string",
          "name": "toEndNFTUri",
          "type": "string"
        }
      ],
      "name": "transfer",
      "outputs": [],
      "stateMutability": "nonpayable",
      "type": "function"
    }
  ],
  "bytecode": "0x60806040523480156200001157600080fd5b5060405162003ab838038062003ab8833981810160405281019062000037919062000183565b6040518060400160405280600481526020017f46616e73000000000000000000000000000000000000000000000000000000008152506040518060400160405280600481526020017f46414e5300000000000000000000000000000000000000000000000000000000815250828282828260009081620000b891906200042f565b508160019081620000ca91906200042f565b5080600260006101000a81548173ffffffffffffffffffffffffffffffffffffffff021916908373ffffffffffffffffffffffffffffffffffffffff1602179055505050505050505062000516565b600080fd5b600073ffffffffffffffffffffffffffffffffffffffff82169050919050565b60006200014b826200011e565b9050919050565b6200015d816200013e565b81146200016957600080fd5b50565b6000815190506200017d8162000152565b92915050565b6000602082840312156200019c576200019b62000119565b5b6000620001ac848285016200016c565b91505092915050565b600081519050919050565b7f4e487b7100000000000000000000000000000000000000000000000000000000600052604160045260246000fd5b7f4e487b7100000000000000000000000000000000000000000000000000000000600052602260045260246000fd5b600060028204905060018216806200023757607f821691505b6020821081036200024d576200024c620001ef565b5b50919050565b60008190508160005260206000209050919050565b60006020601f8301049050919050565b600082821b905092915050565b600060088302620002b77fffffffffffffffffffffffffffffffffffffffffffffffffffffffffffffffff8262000278565b620002c3868362000278565b95508019841693508086168417925050509392505050565b6000819050919050565b6000819050919050565b6000620003106200030a6200030484620002db565b620002e5565b620002db565b9050919050565b6000819050919050565b6200032c83620002ef565b620003446200033b8262000317565b84845462000285565b825550505050565b600090565b6200035b6200034c565b6200036881848462000321565b505050565b5b8181101562000390576200038460008262000351565b6001810190506200036e565b5050565b601f821115620003df57620003a98162000253565b620003b48462000268565b81016020851015620003c4578190505b620003dc620003d38562000268565b8301826200036d565b50505b505050565b600082821c905092915050565b60006200040460001984600802620003e4565b1980831691505092915050565b60006200041f8383620003f1565b9150826002028217905092915050565b6200043a82620001b5565b67ffffffffffffffff811115620004565762000455620001c0565b5b6200046282546200021e565b6200046f82828562000394565b600060209050601f831160018114620004a7576000841562000492578287015190505b6200049e858262000411565b8655506200050e565b601f198416620004b78662000253565b60005b82811015620004e157848901518255600182019150602085019450602081019050620004ba565b86831015620005015784890151620004fd601f891682620003f1565b8355505b6001600288020188555050505b505050505050565b61359280620005266000396000f3fe608060405234801561001057600080fd5b506004361061012c5760003560e01c806395d89b41116100ad578063ca32ab8611610071578063ca32ab8614610391578063cb7bba61146103ad578063d70e79dc146103c9578063e64d2fb4146103f9578063febe4909146104155761012c565b806395d89b41146102b35780639b6fdcc0146102d1578063a32f35e014610301578063ad5bb46414610331578063c06d86d1146103615761012c565b80635880bdb1116100f45780635880bdb1146101eb57806359b361ef1461021b5780635ecdf043146102375780636a793a6c146102675780638aa0fdad146102975761012c565b806306fdde0314610131578063092b4de11461014f5780630d2774491461016d5780632d67c0c51461019d57806341c61383146101cd575b600080fd5b610139610431565b60405161014691906124fa565b60405180910390f35b6101576104c3565b6040516101649190612535565b60405180910390f35b61018760048036038101906101829190612590565b6104d0565b60405161019491906124fa565b60405180910390f35b6101b760048036038101906101b29190612590565b61058b565b6040516101c491906124fa565b60405180910390f35b6101d561064e565b6040516101e29190612535565b60405180910390f35b610205600480360381019061020091906126f2565b61065b565b6040516102129190612535565b60405180910390f35b610235600480360381019061023091906127e4565b610692565b005b610251600480360381019061024c9190612853565b61077d565b60405161025e9190612535565b60405180910390f35b610281600480360381019061027c9190612853565b6107a9565b60405161028e9190612535565b60405180910390f35b6102b160048036038101906102ac919061289c565b6107d5565b005b6102bb610a55565b6040516102c891906124fa565b60405180910390f35b6102eb60048036038101906102e69190612590565b610ae7565b6040516102f89190612535565b60405180910390f35b61031b60048036038101906103169190612914565b610b58565b604051610328919061297f565b60405180910390f35b61034b600480360381019061034691906126f2565b610bc8565b6040516103589190612535565b60405180910390f35b61037b60048036038101906103769190612590565b610bff565b60405161038891906124fa565b60405180910390f35b6103ab60048036038101906103a6919061299a565b610cba565b005b6103c760048036038101906103c2919061289c565b611227565b005b6103e360048036038101906103de9190612853565b6112fe565b6040516103f0919061297f565b60405180910390f35b610413600480360381019061040e91906126f2565b6113bf565b005b61042f600480360381019061042a91906129f6565b61159c565b005b60606000805461044090612a65565b80601f016020809104026020016040519081016040528092919081815260200182805461046c90612a65565b80156104b95780601f1061048e576101008083540402835291602001916104b9565b820191906000526020600020905b81548152906001019060200180831161049c57829003601f168201915b5050505050905090565b6000601580549050905090565b60606006600060096000858152602001908152602001600020600001548152602001908152602001600020805461050690612a65565b80601f016020809104026020016040519081016040528092919081815260200182805461053290612a65565b801561057f5780601f106105545761010080835404028352916020019161057f565b820191906000526020600020905b81548152906001019060200180831161056257829003601f168201915b50505050509050919050565b606060066000600d84815481106105a5576105a4612a96565b5b9060005260206000200154815260200190815260200160002080546105c990612a65565b80601f01602080910402602001604051908101604052809291908181526020018280546105f590612a65565b80156106425780601f1061061757610100808354040283529160200191610642565b820191906000526020600020905b81548152906001019060200180831161062557829003601f168201915b50505050509050919050565b6000600d80549050905090565b60006011600061066a85611668565b8152602001908152602001600020600083815260200190815260200160002054905092915050565b61069b836116b3565b73ffffffffffffffffffffffffffffffffffffffff163373ffffffffffffffffffffffffffffffffffffffff1614610708576040517f08c379a00000000000000000000000000000000000000000000000000000000081526004016106ff90612b11565b60405180910390fd5b80600c600061071686611668565b815260200190815260200160002060008473ffffffffffffffffffffffffffffffffffffffff1673ffffffffffffffffffffffffffffffffffffffff16815260200190815260200160002060006101000a81548160ff021916908315150217905550505050565b60006107a2600f600061078f85611668565b81526020019081526020016000206117c1565b9050919050565b60006107ce601060006107bb85611668565b81526020019081526020016000206117c1565b9050919050565b6107de826117cf565b1580156107f157506107ef816117cf565b155b610830576040517f08c379a000000000000000000000000000000000000000000000000000000000815260040161082790612b7d565b60405180910390fd5b600061083b83611668565b9050600060076000838152602001908152602001600020604051806040016040529081600082015481526020016001820160009054906101000a900473ffffffffffffffffffffffffffffffffffffffff1673ffffffffffffffffffffffffffffffffffffffff1673ffffffffffffffffffffffffffffffffffffffff16815250509050600073ffffffffffffffffffffffffffffffffffffffff16816020015173ffffffffffffffffffffffffffffffffffffffff1603610932576040517f08c379a000000000000000000000000000000000000000000000000000000000815260040161092990612be9565b60405180910390fd5b600061094f600860008581526020019081526020016000206117c1565b905081600001518110610997576040517f08c379a000000000000000000000000000000000000000000000000000000000815260040161098e90612c55565b60405180910390fd5b60006109a2856117e2565b905060006109b060036117c1565b90506109cd876040518060200160405280600081525088846118f9565b604051806040016040528086815260200183815250600960008381526020019081526020016000206000820151816000015560208201518160010155905050610a27876040518060200160405280600081525088846119ab565b610a316003611a31565b610a4c60086000878152602001908152602001600020611a31565b50505050505050565b606060018054610a6490612a65565b80601f0160208091040260200160405190810160405280929190818152602001828054610a9090612a65565b8015610add5780601f10610ab257610100808354040283529160200191610add565b820191906000526020600020905b815481529060010190602001808311610ac057829003601f168201915b5050505050905090565b6000610af16104c3565b8210610b32576040517f08c379a0000000000000000000000000000000000000000000000000000000008152600401610b2990612ce7565b60405180910390fd5b60158281548110610b4657610b45612a96565b5b90600052602060002001549050919050565b6000600c6000610b6785611668565b815260200190815260200160002060008373ffffffffffffffffffffffffffffffffffffffff1673ffffffffffffffffffffffffffffffffffffffff16815260200190815260200160002060009054906101000a900460ff16905092915050565b600060126000610bd785611668565b8152602001908152602001600020600083815260200190815260200160002054905092915050565b606060066000600960008581526020019081526020016000206001015481526020019081526020016000208054610c3590612a65565b80601f0160208091040260200160405190810160405280929190818152602001828054610c6190612a65565b8015610cae5780601f10610c8357610100808354040283529160200191610cae565b820191906000526020600020905b815481529060010190602001808311610c9157829003601f168201915b50505050509050919050565b600060096000848152602001908152602001600020604051806040016040529081600082015481526020016001820154815250509050610d9960066000836020015181526020019081526020016000208054610d1590612a65565b80601f0160208091040260200160405190810160405280929190818152602001828054610d4190612a65565b8015610d8e5780601f10610d6357610100808354040283529160200191610d8e565b820191906000526020600020905b815481529060010190602001808311610d7157829003601f168201915b505050505083611a47565b15610dd9576040517f08c379a0000000000000000000000000000000000000000000000000000000008152600401610dd090612d53565b60405180910390fd5b6000610de4836117e2565b9050610def84611aab565b73ffffffffffffffffffffffffffffffffffffffff163373ffffffffffffffffffffffffffffffffffffffff161480610e865750600b600085815260200190815260200160002060009054906101000a900473ffffffffffffffffffffffffffffffffffffffff1673ffffffffffffffffffffffffffffffffffffffff163373ffffffffffffffffffffffffffffffffffffffff16145b80610eeb5750600c600082815260200190815260200160002060003373ffffffffffffffffffffffffffffffffffffffff1673ffffffffffffffffffffffffffffffffffffffff16815260200190815260200160002060009054906101000a900460ff165b610f2a576040517f08c379a0000000000000000000000000000000000000000000000000000000008152600401610f2190612dbf565b60405180910390fd5b61109860066000600960008881526020019081526020016000206000015481526020019081526020016000208054610f6190612a65565b80601f0160208091040260200160405190810160405280929190818152602001828054610f8d90612a65565b8015610fda5780601f10610faf57610100808354040283529160200191610fda565b820191906000526020600020905b815481529060010190602001808311610fbd57829003601f168201915b50505050506006600060096000898152602001908152602001600020600101548152602001908152602001600020805461101390612a65565b80601f016020809104026020016040519081016040528092919081815260200182805461103f90612a65565b801561108c5780601f106110615761010080835404028352916020019161108c565b820191906000526020600020905b81548152906001019060200180831161106f57829003601f168201915b505050505085876118f9565b806009600086815260200190815260200160002060010181905550611221600660006009600088815260200190815260200160002060000154815260200190815260200160002080546110ea90612a65565b80601f016020809104026020016040519081016040528092919081815260200182805461111690612a65565b80156111635780601f1061113857610100808354040283529160200191611163565b820191906000526020600020905b81548152906001019060200180831161114657829003601f168201915b50505050506006600060096000898152602001908152602001600020600101548152602001908152602001600020805461119c90612a65565b80601f01602080910402602001604051908101604052809291908181526020018280546111c890612a65565b80156112155780601f106111ea57610100808354040283529160200191611215565b820191906000526020600020905b8154815290600101906020018083116111f857829003601f168201915b505050505085876119ab565b50505050565b600061123283611668565b90506007600082815260200190815260200160002060010160009054906101000a900473ffffffffffffffffffffffffffffffffffffffff1673ffffffffffffffffffffffffffffffffffffffff163373ffffffffffffffffffffffffffffffffffffffff16146112d8576040517f08c379a00000000000000000000000000000000000000000000000000000000081526004016112cf90612e2b565b60405180910390fd5b81600a600083815260200190815260200160002090816112f89190612ff7565b50505050565b6000600260009054906101000a900473ffffffffffffffffffffffffffffffffffffffff1673ffffffffffffffffffffffffffffffffffffffff16639deb17f583600a600061134c87611668565b81526020019081526020016000206040518363ffffffff1660e01b815260040161137792919061314d565b602060405180830381865afa158015611394573d6000803e3d6000fd5b505050506040513d601f19601f820116820180604052508101906113b89190613199565b9050919050565b60006113ca836117e2565b90506000600760008381526020019081526020016000209050600073ffffffffffffffffffffffffffffffffffffffff168160010160009054906101000a900473ffffffffffffffffffffffffffffffffffffffff1673ffffffffffffffffffffffffffffffffffffffff16146114fa573373ffffffffffffffffffffffffffffffffffffffff168160010160009054906101000a900473ffffffffffffffffffffffffffffffffffffffff1673ffffffffffffffffffffffffffffffffffffffff16146114cd576040517f08c379a00000000000000000000000000000000000000000000000000000000081526004016114c490613238565b60405180910390fd5b60008160000154846114df9190613287565b905060008111156114f4578382600001819055505b50611596565b60405180604001604052808481526020013373ffffffffffffffffffffffffffffffffffffffff16815250600760008481526020019081526020016000206000820151816000015560208201518160010160006101000a81548173ffffffffffffffffffffffffffffffffffffffff021916908373ffffffffffffffffffffffffffffffffffffffff16021790555090505061159582611c6a565b5b50505050565b6115a582611aab565b73ffffffffffffffffffffffffffffffffffffffff163373ffffffffffffffffffffffffffffffffffffffff1614611612576040517f08c379a000000000000000000000000000000000000000000000000000000000815260040161160990612b11565b60405180910390fd5b80600b600084815260200190815260200160002060006101000a81548173ffffffffffffffffffffffffffffffffffffffff021916908373ffffffffffffffffffffffffffffffffffffffff1602179055505050565b6000808260405160200161167c91906124fa565b6040516020818303038152906040528051906020012090506005600082815260200190815260200160002060000154915050919050565b6000808273__$bfe9954da5d0c317619e6e625b17f2c42f$__636b0bd8f190916040518263ffffffff1660e01b81526004016116ef9190613305565b600060405180830381865af415801561170c573d6000803e3d6000fd5b505050506040513d6000823e3d601f19601f82011682018060405250810190611735919061344b565b9050806020015173ffffffffffffffffffffffffffffffffffffffff16636352211e82604001516040518263ffffffff1660e01b81526004016117789190612535565b602060405180830381865afa158015611795573d6000803e3d6000fd5b505050506040513d601f19601f820116820180604052508101906117b99190613494565b915050919050565b600081600001549050919050565b6000808290506000815114915050919050565b600080826040516020016117f691906124fa565b60405160208183030381529060405280519060200120905060016005600083815260200190815260200160002060010160009054906101000a900460ff1660ff160361185b5760056000828152602001908152602001600020600001549150506118f4565b600061186760046117c1565b90506040518060400160405280828152602001600160ff16815250600560008481526020019081526020016000206000820151816000015560208201518160010160006101000a81548160ff021916908360ff160217905550905050836006600083815260200190815260200160002090816118e39190612ff7565b506118ee6004611a31565b80925050505b919050565b61190584848484611cb3565b600061191085611668565b9050600061191d85611668565b9050600061192a85611668565b9050611935866117cf565b1561195c5761194384611cb9565b61194d8385611d02565b6119578185611d8e565b6119a2565b611965856117cf565b1561198c5761197384611e1a565b61197d8385611eeb565b6119878285612001565b6119a1565b6119968285612001565b6119a08185611d8e565b5b5b50505050505050565b6119b784848484612117565b60006119c285611668565b905060006119cf85611668565b905060006119ee601060008581526020019081526020016000206117c1565b036119fd576119fc8661211d565b5b6000611a1a600f60008481526020019081526020016000206117c1565b03611a2957611a2886612244565b5b505050505050565b6001816000016000828254019250508190555050565b60008083604051602001611a5b91906124fa565b604051602081830303815290604052805190602001209050600083604051602001611a8691906124fa565b6040516020818303038152906040528051906020012090508082149250505092915050565b60008060066000600960008681526020019081526020016000206001015481526020019081526020016000208054611ae290612a65565b80601f0160208091040260200160405190810160405280929190818152602001828054611b0e90612a65565b8015611b5b5780601f10611b3057610100808354040283529160200191611b5b565b820191906000526020600020905b815481529060010190602001808311611b3e57829003601f168201915b505050505073__$bfe9954da5d0c317619e6e625b17f2c42f$__636b0bd8f190916040518263ffffffff1660e01b8152600401611b989190613305565b600060405180830381865af4158015611bb5573d6000803e3d6000fd5b505050506040513d6000823e3d601f19601f82011682018060405250810190611bde919061344b565b9050806020015173ffffffffffffffffffffffffffffffffffffffff16636352211e82604001516040518263ffffffff1660e01b8152600401611c219190612535565b602060405180830381865afa158015611c3e573d6000803e3d6000fd5b505050506040513d601f19601f82011682018060405250810190611c629190613494565b915050919050565b600d80549050600e600083815260200190815260200160002081905550600d81908060018154018082558091505060019003906000526020600020016000909190919091505550565b50505050565b6015805490506016600083815260200190815260200160002081905550601581908060018154018082558091505060019003906000526020600020016000909190919091505550565b611d1d60106000848152602001908152602001600020611a31565b60006001611d3c601060008681526020019081526020016000206117c1565b611d469190613287565b90508160116000858152602001908152602001600020600083815260200190815260200160002081905550806013600084815260200190815260200160002081905550505050565b611da9600f6000848152602001908152602001600020611a31565b60006001611dc8600f60008681526020019081526020016000206117c1565b611dd29190613287565b90508160126000858152602001908152602001600020600083815260200190815260200160002081905550806014600084815260200190815260200160002081905550505050565b60006001601580549050611e2e9190613287565b9050600060166000848152602001908152602001600020549050600060158381548110611e5e57611e5d612a96565b5b906000526020600020015490508060158381548110611e8057611e7f612a96565b5b906000526020600020018190555081601660008381526020019081526020016000208190555060166000858152602001908152602001600020600090556015805480611ecf57611ece6134c1565b5b6001900381819060005260206000200160009055905550505050565b60006001611f0a601060008681526020019081526020016000206117c1565b611f149190613287565b9050600060136000848152602001908152602001600020549050818114611fa15760006011600086815260200190815260200160002060008481526020019081526020016000205490508060116000878152602001908152602001600020600084815260200190815260200160002081905550816013600083815260200190815260200160002081905550505b601360008481526020019081526020016000206000905560116000858152602001908152602001600020600083815260200190815260200160002060009055611ffb601060008681526020019081526020016000206122e0565b50505050565b60006001612020600f60008681526020019081526020016000206117c1565b61202a9190613287565b90506000601460008481526020019081526020016000205490508181146120b75760006012600086815260200190815260200160002060008481526020019081526020016000205490508060126000878152602001908152602001600020600084815260200190815260200160002081905550816014600083815260200190815260200160002081905550505b601460008481526020019081526020016000206000905560126000858152602001908152602001600020600083815260200190815260200160002060009055612111600f60008681526020019081526020016000206122e0565b50505050565b50505050565b60008160405160200161213091906124fa565b604051602081830303815290604052805190602001209050600060056000838152602001908152602001600020600001549050600560008381526020019081526020016000206000808201600090556001820160006101000a81549060ff021916905550506006600082815260200190815260200160002060006121b4919061240d565b600a600082815260200190815260200160002060006121d3919061240d565b600860008281526020019081526020016000206000808201600090555050600760008281526020019081526020016000206000808201600090556001820160006101000a81549073ffffffffffffffffffffffffffffffffffffffff0219169055505061223f8161233c565b505050565b60008160405160200161225791906124fa565b604051602081830303815290604052805190602001209050600060056000838152602001908152602001600020600001549050600560008381526020019081526020016000206000808201600090556001820160006101000a81549060ff021916905550506006600082815260200190815260200160002060006122db919061240d565b505050565b6000816000015490506000811161232c576040517f08c379a00000000000000000000000000000000000000000000000000000000081526004016123239061353c565b60405180910390fd5b6001810382600001819055505050565b60006001600d805490506123509190613287565b90506000600e60008481526020019081526020016000205490506000600d83815481106123805761237f612a96565b5b9060005260206000200154905080600d83815481106123a2576123a1612a96565b5b906000526020600020018190555081600e600083815260200190815260200160002081905550600e600085815260200190815260200160002060009055600d8054806123f1576123f06134c1565b5b6001900381819060005260206000200160009055905550505050565b50805461241990612a65565b6000825580601f1061242b575061244a565b601f016020900490600052602060002090810190612449919061244d565b5b50565b5b8082111561246657600081600090555060010161244e565b5090565b600081519050919050565b600082825260208201905092915050565b60005b838110156124a4578082015181840152602081019050612489565b60008484015250505050565b6000601f19601f8301169050919050565b60006124cc8261246a565b6124d68185612475565b93506124e6818560208601612486565b6124ef816124b0565b840191505092915050565b6000602082019050818103600083015261251481846124c1565b905092915050565b6000819050919050565b61252f8161251c565b82525050565b600060208201905061254a6000830184612526565b92915050565b6000604051905090565b600080fd5b600080fd5b61256d8161251c565b811461257857600080fd5b50565b60008135905061258a81612564565b92915050565b6000602082840312156125a6576125a561255a565b5b60006125b48482850161257b565b91505092915050565b600080fd5b600080fd5b7f4e487b7100000000000000000000000000000000000000000000000000000000600052604160045260246000fd5b6125ff826124b0565b810181811067ffffffffffffffff8211171561261e5761261d6125c7565b5b80604052505050565b6000612631612550565b905061263d82826125f6565b919050565b600067ffffffffffffffff82111561265d5761265c6125c7565b5b612666826124b0565b9050602081019050919050565b82818337600083830152505050565b600061269561269084612642565b612627565b9050828152602081018484840111156126b1576126b06125c2565b5b6126bc848285612673565b509392505050565b600082601f8301126126d9576126d86125bd565b5b81356126e9848260208601612682565b91505092915050565b600080604083850312156127095761270861255a565b5b600083013567ffffffffffffffff8111156127275761272661255f565b5b612733858286016126c4565b92505060206127448582860161257b565b9150509250929050565b600073ffffffffffffffffffffffffffffffffffffffff82169050919050565b60006127798261274e565b9050919050565b6127898161276e565b811461279457600080fd5b50565b6000813590506127a681612780565b92915050565b60008115159050919050565b6127c1816127ac565b81146127cc57600080fd5b50565b6000813590506127de816127b8565b92915050565b6000806000606084860312156127fd576127fc61255a565b5b600084013567ffffffffffffffff81111561281b5761281a61255f565b5b612827868287016126c4565b935050602061283886828701612797565b9250506040612849868287016127cf565b9150509250925092565b6000602082840312156128695761286861255a565b5b600082013567ffffffffffffffff8111156128875761288661255f565b5b612893848285016126c4565b91505092915050565b600080604083850312156128b3576128b261255a565b5b600083013567ffffffffffffffff8111156128d1576128d061255f565b5b6128dd858286016126c4565b925050602083013567ffffffffffffffff8111156128fe576128fd61255f565b5b61290a858286016126c4565b9150509250929050565b6000806040838503121561292b5761292a61255a565b5b600083013567ffffffffffffffff8111156129495761294861255f565b5b612955858286016126c4565b925050602061296685828601612797565b9150509250929050565b612979816127ac565b82525050565b60006020820190506129946000830184612970565b92915050565b600080604083850312156129b1576129b061255a565b5b60006129bf8582860161257b565b925050602083013567ffffffffffffffff8111156129e0576129df61255f565b5b6129ec858286016126c4565b9150509250929050565b60008060408385031215612a0d57612a0c61255a565b5b6000612a1b8582860161257b565b9250506020612a2c85828601612797565b9150509250929050565b7f4e487b7100000000000000000000000000000000000000000000000000000000600052602260045260246000fd5b60006002820490506001821680612a7d57607f821691505b602082108103612a9057612a8f612a36565b5b50919050565b7f4e487b7100000000000000000000000000000000000000000000000000000000600052603260045260246000fd5b7f6f776e6572000000000000000000000000000000000000000000000000000000600082015250565b6000612afb600583612475565b9150612b0682612ac5565b602082019050919050565b60006020820190508181036000830152612b2a81612aee565b9050919050565b7f557269206973206e6f7420616c6c6f77656420656d7074792100000000000000600082015250565b6000612b67601983612475565b9150612b7282612b31565b602082019050919050565b60006020820190508181036000830152612b9681612b5a565b9050919050565b7f73746172744e4654557269206973206e6f7420636c61696d6564210000000000600082015250565b6000612bd3601b83612475565b9150612bde82612b9d565b602082019050919050565b60006020820190508181036000830152612c0281612bc6565b9050919050565b7f6d696e742066696e697368000000000000000000000000000000000000000000600082015250565b6000612c3f600b83612475565b9150612c4a82612c09565b602082019050919050565b60006020820190508181036000830152612c6e81612c32565b9050919050565b7f56616c75654c696e6b456e756d657261626c653a20676c6f62616c20696e646560008201527f78206f7574206f6620626f756e64730000000000000000000000000000000000602082015250565b6000612cd1602f83612475565b9150612cdc82612c75565b604082019050919050565b60006020820190508181036000830152612d0081612cc4565b9050919050565b7f73616d6520746172676574207572692c206e6f206368616e6765000000000000600082015250565b6000612d3d601a83612475565b9150612d4882612d07565b602082019050919050565b60006020820190508181036000830152612d6c81612d30565b9050919050565b7f6e6f206f776e6572206f72206e6f20617070726f76616c000000000000000000600082015250565b6000612da9601783612475565b9150612db482612d73565b602082019050919050565b60006020820190508181036000830152612dd881612d9c565b9050919050565b7f6e6f7420636c61696d6572000000000000000000000000000000000000000000600082015250565b6000612e15600b83612475565b9150612e2082612ddf565b602082019050919050565b60006020820190508181036000830152612e4481612e08565b9050919050565b60008190508160005260206000209050919050565b60006020601f8301049050919050565b600082821b905092915050565b600060088302612ead7fffffffffffffffffffffffffffffffffffffffffffffffffffffffffffffffff82612e70565b612eb78683612e70565b95508019841693508086168417925050509392505050565b6000819050919050565b6000612ef4612eef612eea8461251c565b612ecf565b61251c565b9050919050565b6000819050919050565b612f0e83612ed9565b612f22612f1a82612efb565b848454612e7d565b825550505050565b600090565b612f37612f2a565b612f42818484612f05565b505050565b5b81811015612f6657612f5b600082612f2f565b600181019050612f48565b5050565b601f821115612fab57612f7c81612e4b565b612f8584612e60565b81016020851015612f94578190505b612fa8612fa085612e60565b830182612f47565b50505b505050565b600082821c905092915050565b6000612fce60001984600802612fb0565b1980831691505092915050565b6000612fe78383612fbd565b9150826002028217905092915050565b6130008261246a565b67ffffffffffffffff811115613019576130186125c7565b5b6130238254612a65565b61302e828285612f6a565b600060209050601f831160018114613061576000841561304f578287015190505b6130598582612fdb565b8655506130c1565b601f19841661306f86612e4b565b60005b8281101561309757848901518255600182019150602085019450602081019050613072565b868310156130b457848901516130b0601f891682612fbd565b8355505b6001600288020188555050505b505050505050565b600081546130d681612a65565b6130e08186612475565b945060018216600081146130fb576001811461311157613144565b60ff198316865281151560200286019350613144565b61311a85612e4b565b60005b8381101561313c5781548189015260018201915060208101905061311d565b808801955050505b50505092915050565b6000604082019050818103600083015261316781856124c1565b9050818103602083015261317b81846130c9565b90509392505050565b600081519050613193816127b8565b92915050565b6000602082840312156131af576131ae61255a565b5b60006131bd84828501613184565b91505092915050565b7f6f6e6c79206f776e65722063616e2075706461746520746f74616c207375707060008201527f6c79000000000000000000000000000000000000000000000000000000000000602082015250565b6000613222602283612475565b915061322d826131c6565b604082019050919050565b6000602082019050818103600083015261325181613215565b9050919050565b7f4e487b7100000000000000000000000000000000000000000000000000000000600052601160045260246000fd5b60006132928261251c565b915061329d8361251c565b92508282039050818111156132b5576132b4613258565b5b92915050565b600082825260208201905092915050565b60006132d78261246a565b6132e181856132bb565b93506132f1818560208601612486565b6132fa816124b0565b840191505092915050565b6000602082019050818103600083015261331f81846132cc565b905092915050565b600080fd5b600080fd5b600061334461333f84612642565b612627565b9050828152602081018484840111156133605761335f6125c2565b5b61336b848285612486565b509392505050565b600082601f830112613388576133876125bd565b5b8151613398848260208601613331565b91505092915050565b6000815190506133b081612780565b92915050565b6000815190506133c581612564565b92915050565b6000606082840312156133e1576133e0613327565b5b6133eb6060612627565b9050600082015167ffffffffffffffff81111561340b5761340a61332c565b5b61341784828501613373565b600083015250602061342b848285016133a1565b602083015250604061343f848285016133b6565b60408301525092915050565b6000602082840312156134615761346061255a565b5b600082015167ffffffffffffffff81111561347f5761347e61255f565b5b61348b848285016133cb565b91505092915050565b6000602082840312156134aa576134a961255a565b5b60006134b8848285016133a1565b91505092915050565b7f4e487b7100000000000000000000000000000000000000000000000000000000600052603160045260246000fd5b7f436f756e7465723a2064656372656d656e74206f766572666c6f770000000000600082015250565b6000613526601b83612475565b9150613531826134f0565b602082019050919050565b6000602082019050818103600083015261355581613519565b905091905056fea2646970667358221220094f0667ff9ebfa2318fee9090f6b3c3ee3d760d7c1b54e06b895df270ade74164736f6c63430008110033",
  "linkReferences": {
    "contracts/NFTUri.sol": {
      "NFTUri": [
        {
          "length": 20,
          "start": 7135
        },
        {
          "length": 20,
          "start": 8328
        }
      ]
    }
  },
  "deployedLinkReferences": {
    "contracts/NFTUri.sol": {
      "NFTUri": [
        {
          "length": 20,
          "start": 5817
        },
        {
          "length": 20,
          "start": 7010
        }
      ]
    }
  }
}