{
  "_format": "hh-sol-artifact-1",
  "contractName": "Art",
  "sourceName": "contracts/Art.sol",
  "abi": [
    {
      "inputs": [
        {
          "internalType": "string",
          "name": "baseTokenURI",
          "type": "string"
        },
        {
          "internalType": "uint256",
          "name": "maxSupply",
          "type": "uint256"
        }
      ],
      "stateMutability": "nonpayable",
      "type": "constructor"
    },
    {
      "anonymous": false,
      "inputs": [
        {
          "indexed": true,
          "internalType": "address",
          "name": "owner",
          "type": "address"
        },
        {
          "indexed": true,
          "internalType": "address",
          "name": "approved",
          "type": "address"
        },
        {
          "indexed": true,
          "internalType": "uint256",
          "name": "tokenId",
          "type": "uint256"
        }
      ],
      "name": "Approval",
      "type": "event"
    },
    {
      "anonymous": false,
      "inputs": [
        {
          "indexed": true,
          "internalType": "address",
          "name": "owner",
          "type": "address"
        },
        {
          "indexed": true,
          "internalType": "address",
          "name": "operator",
          "type": "address"
        },
        {
          "indexed": false,
          "internalType": "bool",
          "name": "approved",
          "type": "bool"
        }
      ],
      "name": "ApprovalForAll",
      "type": "event"
    },
    {
      "anonymous": false,
      "inputs": [
        {
          "indexed": false,
          "internalType": "address",
          "name": "account",
          "type": "address"
        }
      ],
      "name": "Paused",
      "type": "event"
    },
    {
      "anonymous": false,
      "inputs": [
        {
          "indexed": true,
          "internalType": "bytes32",
          "name": "role",
          "type": "bytes32"
        },
        {
          "indexed": true,
          "internalType": "bytes32",
          "name": "previousAdminRole",
          "type": "bytes32"
        },
        {
          "indexed": true,
          "internalType": "bytes32",
          "name": "newAdminRole",
          "type": "bytes32"
        }
      ],
      "name": "RoleAdminChanged",
      "type": "event"
    },
    {
      "anonymous": false,
      "inputs": [
        {
          "indexed": true,
          "internalType": "bytes32",
          "name": "role",
          "type": "bytes32"
        },
        {
          "indexed": true,
          "internalType": "address",
          "name": "account",
          "type": "address"
        },
        {
          "indexed": true,
          "internalType": "address",
          "name": "sender",
          "type": "address"
        }
      ],
      "name": "RoleGranted",
      "type": "event"
    },
    {
      "anonymous": false,
      "inputs": [
        {
          "indexed": true,
          "internalType": "bytes32",
          "name": "role",
          "type": "bytes32"
        },
        {
          "indexed": true,
          "internalType": "address",
          "name": "account",
          "type": "address"
        },
        {
          "indexed": true,
          "internalType": "address",
          "name": "sender",
          "type": "address"
        }
      ],
      "name": "RoleRevoked",
      "type": "event"
    },
    {
      "anonymous": false,
      "inputs": [
        {
          "indexed": true,
          "internalType": "address",
          "name": "from",
          "type": "address"
        },
        {
          "indexed": true,
          "internalType": "address",
          "name": "to",
          "type": "address"
        },
        {
          "indexed": true,
          "internalType": "uint256",
          "name": "tokenId",
          "type": "uint256"
        }
      ],
      "name": "Transfer",
      "type": "event"
    },
    {
      "anonymous": false,
      "inputs": [
        {
          "indexed": false,
          "internalType": "address",
          "name": "account",
          "type": "address"
        }
      ],
      "name": "Unpaused",
      "type": "event"
    },
    {
      "inputs": [],
      "name": "DEFAULT_ADMIN_ROLE",
      "outputs": [
        {
          "internalType": "bytes32",
          "name": "",
          "type": "bytes32"
        }
      ],
      "stateMutability": "view",
      "type": "function"
    },
    {
      "inputs": [],
      "name": "MINTER_ROLE",
      "outputs": [
        {
          "internalType": "bytes32",
          "name": "",
          "type": "bytes32"
        }
      ],
      "stateMutability": "view",
      "type": "function"
    },
    {
      "inputs": [],
      "name": "PAUSER_ROLE",
      "outputs": [
        {
          "internalType": "bytes32",
          "name": "",
          "type": "bytes32"
        }
      ],
      "stateMutability": "view",
      "type": "function"
    },
    {
      "inputs": [],
      "name": "_maxSupply",
      "outputs": [
        {
          "internalType": "uint256",
          "name": "",
          "type": "uint256"
        }
      ],
      "stateMutability": "view",
      "type": "function"
    },
    {
      "inputs": [
        {
          "internalType": "address",
          "name": "to",
          "type": "address"
        },
        {
          "internalType": "uint256",
          "name": "tokenId",
          "type": "uint256"
        }
      ],
      "name": "approve",
      "outputs": [],
      "stateMutability": "nonpayable",
      "type": "function"
    },
    {
      "inputs": [
        {
          "internalType": "address",
          "name": "owner",
          "type": "address"
        }
      ],
      "name": "balanceOf",
      "outputs": [
        {
          "internalType": "uint256",
          "name": "",
          "type": "uint256"
        }
      ],
      "stateMutability": "view",
      "type": "function"
    },
    {
      "inputs": [
        {
          "internalType": "uint256",
          "name": "tokenId",
          "type": "uint256"
        }
      ],
      "name": "burn",
      "outputs": [],
      "stateMutability": "nonpayable",
      "type": "function"
    },
    {
      "inputs": [
        {
          "internalType": "uint256",
          "name": "tokenId",
          "type": "uint256"
        }
      ],
      "name": "getApproved",
      "outputs": [
        {
          "internalType": "address",
          "name": "",
          "type": "address"
        }
      ],
      "stateMutability": "view",
      "type": "function"
    },
    {
      "inputs": [
        {
          "internalType": "bytes32",
          "name": "role",
          "type": "bytes32"
        }
      ],
      "name": "getRoleAdmin",
      "outputs": [
        {
          "internalType": "bytes32",
          "name": "",
          "type": "bytes32"
        }
      ],
      "stateMutability": "view",
      "type": "function"
    },
    {
      "inputs": [
        {
          "internalType": "bytes32",
          "name": "role",
          "type": "bytes32"
        },
        {
          "internalType": "uint256",
          "name": "index",
          "type": "uint256"
        }
      ],
      "name": "getRoleMember",
      "outputs": [
        {
          "internalType": "address",
          "name": "",
          "type": "address"
        }
      ],
      "stateMutability": "view",
      "type": "function"
    },
    {
      "inputs": [
        {
          "internalType": "bytes32",
          "name": "role",
          "type": "bytes32"
        }
      ],
      "name": "getRoleMemberCount",
      "outputs": [
        {
          "internalType": "uint256",
          "name": "",
          "type": "uint256"
        }
      ],
      "stateMutability": "view",
      "type": "function"
    },
    {
      "inputs": [
        {
          "internalType": "bytes32",
          "name": "role",
          "type": "bytes32"
        },
        {
          "internalType": "address",
          "name": "account",
          "type": "address"
        }
      ],
      "name": "grantRole",
      "outputs": [],
      "stateMutability": "nonpayable",
      "type": "function"
    },
    {
      "inputs": [
        {
          "internalType": "bytes32",
          "name": "role",
          "type": "bytes32"
        },
        {
          "internalType": "address",
          "name": "account",
          "type": "address"
        }
      ],
      "name": "hasRole",
      "outputs": [
        {
          "internalType": "bool",
          "name": "",
          "type": "bool"
        }
      ],
      "stateMutability": "view",
      "type": "function"
    },
    {
      "inputs": [
        {
          "internalType": "address",
          "name": "owner",
          "type": "address"
        },
        {
          "internalType": "address",
          "name": "operator",
          "type": "address"
        }
      ],
      "name": "isApprovedForAll",
      "outputs": [
        {
          "internalType": "bool",
          "name": "",
          "type": "bool"
        }
      ],
      "stateMutability": "view",
      "type": "function"
    },
    {
      "inputs": [
        {
          "internalType": "address",
          "name": "to",
          "type": "address"
        }
      ],
      "name": "mint",
      "outputs": [],
      "stateMutability": "nonpayable",
      "type": "function"
    },
    {
      "inputs": [],
      "name": "name",
      "outputs": [
        {
          "internalType": "string",
          "name": "",
          "type": "string"
        }
      ],
      "stateMutability": "view",
      "type": "function"
    },
    {
      "inputs": [
        {
          "internalType": "uint256",
          "name": "tokenId",
          "type": "uint256"
        }
      ],
      "name": "ownerOf",
      "outputs": [
        {
          "internalType": "address",
          "name": "",
          "type": "address"
        }
      ],
      "stateMutability": "view",
      "type": "function"
    },
    {
      "inputs": [],
      "name": "pause",
      "outputs": [],
      "stateMutability": "nonpayable",
      "type": "function"
    },
    {
      "inputs": [],
      "name": "paused",
      "outputs": [
        {
          "internalType": "bool",
          "name": "",
          "type": "bool"
        }
      ],
      "stateMutability": "view",
      "type": "function"
    },
    {
      "inputs": [
        {
          "internalType": "bytes32",
          "name": "role",
          "type": "bytes32"
        },
        {
          "internalType": "address",
          "name": "account",
          "type": "address"
        }
      ],
      "name": "renounceRole",
      "outputs": [],
      "stateMutability": "nonpayable",
      "type": "function"
    },
    {
      "inputs": [
        {
          "internalType": "bytes32",
          "name": "role",
          "type": "bytes32"
        },
        {
          "internalType": "address",
          "name": "account",
          "type": "address"
        }
      ],
      "name": "revokeRole",
      "outputs": [],
      "stateMutability": "nonpayable",
      "type": "function"
    },
    {
      "inputs": [
        {
          "internalType": "address",
          "name": "from",
          "type": "address"
        },
        {
          "internalType": "address",
          "name": "to",
          "type": "address"
        },
        {
          "internalType": "uint256",
          "name": "tokenId",
          "type": "uint256"
        }
      ],
      "name": "safeTransferFrom",
      "outputs": [],
      "stateMutability": "nonpayable",
      "type": "function"
    },
    {
      "inputs": [
        {
          "internalType": "address",
          "name": "from",
          "type": "address"
        },
        {
          "internalType": "address",
          "name": "to",
          "type": "address"
        },
        {
          "internalType": "uint256",
          "name": "tokenId",
          "type": "uint256"
        },
        {
          "internalType": "bytes",
          "name": "data",
          "type": "bytes"
        }
      ],
      "name": "safeTransferFrom",
      "outputs": [],
      "stateMutability": "nonpayable",
      "type": "function"
    },
    {
      "inputs": [
        {
          "internalType": "address",
          "name": "operator",
          "type": "address"
        },
        {
          "internalType": "bool",
          "name": "approved",
          "type": "bool"
        }
      ],
      "name": "setApprovalForAll",
      "outputs": [],
      "stateMutability": "nonpayable",
      "type": "function"
    },
    {
      "inputs": [
        {
          "internalType": "bytes4",
          "name": "interfaceId",
          "type": "bytes4"
        }
      ],
      "name": "supportsInterface",
      "outputs": [
        {
          "internalType": "bool",
          "name": "",
          "type": "bool"
        }
      ],
      "stateMutability": "view",
      "type": "function"
    },
    {
      "inputs": [],
      "name": "symbol",
      "outputs": [
        {
          "internalType": "string",
          "name": "",
          "type": "string"
        }
      ],
      "stateMutability": "view",
      "type": "function"
    },
    {
      "inputs": [
        {
          "internalType": "uint256",
          "name": "index",
          "type": "uint256"
        }
      ],
      "name": "tokenByIndex",
      "outputs": [
        {
          "internalType": "uint256",
          "name": "",
          "type": "uint256"
        }
      ],
      "stateMutability": "view",
      "type": "function"
    },
    {
      "inputs": [
        {
          "internalType": "address",
          "name": "owner",
          "type": "address"
        },
        {
          "internalType": "uint256",
          "name": "index",
          "type": "uint256"
        }
      ],
      "name": "tokenOfOwnerByIndex",
      "outputs": [
        {
          "internalType": "uint256",
          "name": "",
          "type": "uint256"
        }
      ],
      "stateMutability": "view",
      "type": "function"
    },
    {
      "inputs": [
        {
          "internalType": "uint256",
          "name": "tokenId",
          "type": "uint256"
        }
      ],
      "name": "tokenURI",
      "outputs": [
        {
          "internalType": "string",
          "name": "",
          "type": "string"
        }
      ],
      "stateMutability": "view",
      "type": "function"
    },
    {
      "inputs": [],
      "name": "totalSupply",
      "outputs": [
        {
          "internalType": "uint256",
          "name": "",
          "type": "uint256"
        }
      ],
      "stateMutability": "view",
      "type": "function"
    },
    {
      "inputs": [
        {
          "internalType": "address",
          "name": "from",
          "type": "address"
        },
        {
          "internalType": "address",
          "name": "to",
          "type": "address"
        },
        {
          "internalType": "uint256",
          "name": "tokenId",
          "type": "uint256"
        }
      ],
      "name": "transferFrom",
      "outputs": [],
      "stateMutability": "nonpayable",
      "type": "function"
    },
    {
      "inputs": [],
      "name": "unpause",
      "outputs": [],
      "stateMutability": "nonpayable",
      "type": "function"
    }
  ],
  "bytecode": "0x60806040523480156200001157600080fd5b5060405162004d7a38038062004d7a833981810160405281019062000037919062000617565b6040518060400160405280600381526020017f41727400000000000000000000000000000000000000000000000000000000008152506040518060400160405280600381526020017f4152540000000000000000000000000000000000000000000000000000000000815250838383838160029081620000b89190620008be565b508060039081620000ca9190620008be565b5050506000600c60006101000a81548160ff02191690831515021790555081600e9081620000f99190620008be565b5080600f81905550620001256000801b62000119620001b360201b60201c565b620001bb60201b60201c565b620001667f9f2df0fed2c77648de5860a4cc508cd0818c85b8b8a1ab4ceeef8d981c8956a66200015a620001b360201b60201c565b620001bb60201b60201c565b620001a77f65d7a28e3265b37a6474929f336521b332c1681b933f6cb9f3376673440d862a6200019b620001b360201b60201c565b620001bb60201b60201c565b505050505050620009a5565b600033905090565b620001cd8282620001d160201b60201c565b5050565b620001e882826200021960201b6200105a1760201c565b6200021481600160008581526020019081526020016000206200030a60201b6200113a1790919060201c565b505050565b6200022b82826200034260201b60201c565b6200030657600160008084815260200190815260200160002060000160008373ffffffffffffffffffffffffffffffffffffffff1673ffffffffffffffffffffffffffffffffffffffff16815260200190815260200160002060006101000a81548160ff021916908315150217905550620002ab620001b360201b60201c565b73ffffffffffffffffffffffffffffffffffffffff168173ffffffffffffffffffffffffffffffffffffffff16837f2f8788117e7eff1d82e926ec794901d17c78024a50270940304540a733656f0d60405160405180910390a45b5050565b60006200033a836000018373ffffffffffffffffffffffffffffffffffffffff1660001b620003ac60201b60201c565b905092915050565b600080600084815260200190815260200160002060000160008373ffffffffffffffffffffffffffffffffffffffff1673ffffffffffffffffffffffffffffffffffffffff16815260200190815260200160002060009054906101000a900460ff16905092915050565b6000620003c083836200042660201b60201c565b6200041b57826000018290806001815401808255809150506001900390600052602060002001600090919091909150558260000180549050836001016000848152602001908152602001600020819055506001905062000420565b600090505b92915050565b600080836001016000848152602001908152602001600020541415905092915050565b6000604051905090565b600080fd5b600080fd5b600080fd5b600080fd5b6000601f19601f8301169050919050565b7f4e487b7100000000000000000000000000000000000000000000000000000000600052604160045260246000fd5b620004b28262000467565b810181811067ffffffffffffffff82111715620004d457620004d362000478565b5b80604052505050565b6000620004e962000449565b9050620004f78282620004a7565b919050565b600067ffffffffffffffff8211156200051a576200051962000478565b5b620005258262000467565b9050602081019050919050565b60005b838110156200055257808201518184015260208101905062000535565b60008484015250505050565b6000620005756200056f84620004fc565b620004dd565b90508281526020810184848401111562000594576200059362000462565b5b620005a184828562000532565b509392505050565b600082601f830112620005c157620005c06200045d565b5b8151620005d38482602086016200055e565b91505092915050565b6000819050919050565b620005f181620005dc565b8114620005fd57600080fd5b50565b6000815190506200061181620005e6565b92915050565b6000806040838503121562000631576200063062000453565b5b600083015167ffffffffffffffff81111562000652576200065162000458565b5b6200066085828601620005a9565b9250506020620006738582860162000600565b9150509250929050565b600081519050919050565b7f4e487b7100000000000000000000000000000000000000000000000000000000600052602260045260246000fd5b60006002820490506001821680620006d057607f821691505b602082108103620006e657620006e562000688565b5b50919050565b60008190508160005260206000209050919050565b60006020601f8301049050919050565b600082821b905092915050565b600060088302620007507fffffffffffffffffffffffffffffffffffffffffffffffffffffffffffffffff8262000711565b6200075c868362000711565b95508019841693508086168417925050509392505050565b6000819050919050565b60006200079f620007996200079384620005dc565b62000774565b620005dc565b9050919050565b6000819050919050565b620007bb836200077e565b620007d3620007ca82620007a6565b8484546200071e565b825550505050565b600090565b620007ea620007db565b620007f7818484620007b0565b505050565b5b818110156200081f5762000813600082620007e0565b600181019050620007fd565b5050565b601f8211156200086e576200083881620006ec565b620008438462000701565b8101602085101562000853578190505b6200086b620008628562000701565b830182620007fc565b50505b505050565b600082821c905092915050565b6000620008936000198460080262000873565b1980831691505092915050565b6000620008ae838362000880565b9150826002028217905092915050565b620008c9826200067d565b67ffffffffffffffff811115620008e557620008e462000478565b5b620008f18254620006b7565b620008fe82828562000823565b600060209050601f83116001811462000936576000841562000921578287015190505b6200092d8582620008a0565b8655506200099d565b601f1984166200094686620006ec565b60005b82811015620009705784890151825560018201915060208501945060208101905062000949565b868310156200099057848901516200098c601f89168262000880565b8355505b6001600288020188555050505b505050505050565b6143c580620009b56000396000f3fe608060405234801561001057600080fd5b50600436106101f05760003560e01c80636352211e1161010f578063a22cb465116100a2578063d539139311610071578063d5391393146105c9578063d547741f146105e7578063e63ab1e914610603578063e985e9c514610621576101f0565b8063a22cb46514610531578063b88d4fde1461054d578063c87b56dd14610569578063ca15c87314610599576101f0565b80639010d07c116100de5780639010d07c1461049557806391d14854146104c557806395d89b41146104f5578063a217fddf14610513576101f0565b80636352211e1461040f5780636a6278421461043f57806370a082311461045b5780638456cb591461048b576101f0565b80632f2ff15d1161018757806342842e0e1161015657806342842e0e1461038957806342966c68146103a55780634f6ccce7146103c15780635c975abb146103f1576101f0565b80632f2ff15d146103175780632f745c591461033357806336568abe146103635780633f4ba83a1461037f576101f0565b806318160ddd116101c357806318160ddd1461028f57806322f4596f146102ad57806323b872dd146102cb578063248a9ca3146102e7576101f0565b806301ffc9a7146101f557806306fdde0314610225578063081812fc14610243578063095ea7b314610273575b600080fd5b61020f600480360381019061020a9190612e4e565b610651565b60405161021c9190612e96565b60405180910390f35b61022d610663565b60405161023a9190612f41565b60405180910390f35b61025d60048036038101906102589190612f99565b6106f5565b60405161026a9190613007565b60405180910390f35b61028d6004803603810190610288919061304e565b61073b565b005b610297610852565b6040516102a4919061309d565b60405180910390f35b6102b561085f565b6040516102c2919061309d565b60405180910390f35b6102e560048036038101906102e091906130b8565b610865565b005b61030160048036038101906102fc9190613141565b6108c5565b60405161030e919061317d565b60405180910390f35b610331600480360381019061032c9190613198565b6108e4565b005b61034d6004803603810190610348919061304e565b610905565b60405161035a919061309d565b60405180910390f35b61037d60048036038101906103789190613198565b6109aa565b005b610387610a2d565b005b6103a3600480360381019061039e91906130b8565b610a3f565b005b6103bf60048036038101906103ba9190612f99565b610a5f565b005b6103db60048036038101906103d69190612f99565b610abb565b6040516103e8919061309d565b60405180910390f35b6103f9610b2c565b6040516104069190612e96565b60405180910390f35b61042960048036038101906104249190612f99565b610b43565b6040516104369190613007565b60405180910390f35b610459600480360381019061045491906131d8565b610bf4565b005b610475600480360381019061047091906131d8565b610c5e565b604051610482919061309d565b60405180910390f35b610493610d15565b005b6104af60048036038101906104aa9190613205565b610d27565b6040516104bc9190613007565b60405180910390f35b6104df60048036038101906104da9190613198565b610d56565b6040516104ec9190612e96565b60405180910390f35b6104fd610dc0565b60405161050a9190612f41565b60405180910390f35b61051b610e52565b604051610528919061317d565b60405180910390f35b61054b60048036038101906105469190613271565b610e59565b005b610567600480360381019061056291906133e6565b610e6f565b005b610583600480360381019061057e9190612f99565b610ed1565b6040516105909190612f41565b60405180910390f35b6105b360048036038101906105ae9190613141565b610f39565b6040516105c0919061309d565b60405180910390f35b6105d1610f5d565b6040516105de919061317d565b60405180910390f35b61060160048036038101906105fc9190613198565b610f81565b005b61060b610fa2565b604051610618919061317d565b60405180910390f35b61063b60048036038101906106369190613469565b610fc6565b6040516106489190612e96565b60405180910390f35b600061065c8261116a565b9050919050565b606060028054610672906134d8565b80601f016020809104026020016040519081016040528092919081815260200182805461069e906134d8565b80156106eb5780601f106106c0576101008083540402835291602001916106eb565b820191906000526020600020905b8154815290600101906020018083116106ce57829003601f168201915b5050505050905090565b6000610700826111e4565b6006600083815260200190815260200160002060009054906101000a900473ffffffffffffffffffffffffffffffffffffffff169050919050565b600061074682610b43565b90508073ffffffffffffffffffffffffffffffffffffffff168373ffffffffffffffffffffffffffffffffffffffff16036107b6576040517f08c379a00000000000000000000000000000000000000000000000000000000081526004016107ad9061357b565b60405180910390fd5b8073ffffffffffffffffffffffffffffffffffffffff166107d561122f565b73ffffffffffffffffffffffffffffffffffffffff1614806108045750610803816107fe61122f565b610fc6565b5b610843576040517f08c379a000000000000000000000000000000000000000000000000000000000815260040161083a9061360d565b60405180910390fd5b61084d8383611237565b505050565b6000600a80549050905090565b600f5481565b61087661087061122f565b826112f0565b6108b5576040517f08c379a00000000000000000000000000000000000000000000000000000000081526004016108ac9061369f565b60405180910390fd5b6108c0838383611385565b505050565b6000806000838152602001908152602001600020600101549050919050565b6108ed826108c5565b6108f6816115eb565b61090083836115ff565b505050565b600061091083610c5e565b8210610951576040517f08c379a000000000000000000000000000000000000000000000000000000000815260040161094890613731565b60405180910390fd5b600860008473ffffffffffffffffffffffffffffffffffffffff1673ffffffffffffffffffffffffffffffffffffffff168152602001908152602001600020600083815260200190815260200160002054905092915050565b6109b261122f565b73ffffffffffffffffffffffffffffffffffffffff168173ffffffffffffffffffffffffffffffffffffffff1614610a1f576040517f08c379a0000000000000000000000000000000000000000000000000000000008152600401610a16906137c3565b60405180910390fd5b610a298282611633565b5050565b610a35611667565b610a3d6116d9565b565b610a5a83838360405180602001604052806000815250610e6f565b505050565b610a70610a6a61122f565b826112f0565b610aaf576040517f08c379a0000000000000000000000000000000000000000000000000000000008152600401610aa69061369f565b60405180910390fd5b610ab88161173c565b50565b6000610ac5610852565b8210610b06576040517f08c379a0000000000000000000000000000000000000000000000000000000008152600401610afd90613855565b60405180910390fd5b600a8281548110610b1a57610b19613875565b5b90600052602060002001549050919050565b6000600c60009054906101000a900460ff16905090565b6000806004600084815260200190815260200160002060009054906101000a900473ffffffffffffffffffffffffffffffffffffffff169050600073ffffffffffffffffffffffffffffffffffffffff168173ffffffffffffffffffffffffffffffffffffffff1603610beb576040517f08c379a0000000000000000000000000000000000000000000000000000000008152600401610be2906138f0565b60405180910390fd5b80915050919050565b6000610c00600d611859565b9050600f548110610c46576040517f08c379a0000000000000000000000000000000000000000000000000000000008152600401610c3d9061395c565b60405180910390fd5b610c508282611867565b610c5a600d611a40565b5050565b60008073ffffffffffffffffffffffffffffffffffffffff168273ffffffffffffffffffffffffffffffffffffffff1603610cce576040517f08c379a0000000000000000000000000000000000000000000000000000000008152600401610cc5906139ee565b60405180910390fd5b600560008373ffffffffffffffffffffffffffffffffffffffff1673ffffffffffffffffffffffffffffffffffffffff168152602001908152602001600020549050919050565b610d1d611667565b610d25611a56565b565b6000610d4e8260016000868152602001908152602001600020611ab990919063ffffffff16565b905092915050565b600080600084815260200190815260200160002060000160008373ffffffffffffffffffffffffffffffffffffffff1673ffffffffffffffffffffffffffffffffffffffff16815260200190815260200160002060009054906101000a900460ff16905092915050565b606060038054610dcf906134d8565b80601f0160208091040260200160405190810160405280929190818152602001828054610dfb906134d8565b8015610e485780601f10610e1d57610100808354040283529160200191610e48565b820191906000526020600020905b815481529060010190602001808311610e2b57829003601f168201915b5050505050905090565b6000801b81565b610e6b610e6461122f565b8383611ad3565b5050565b610e80610e7a61122f565b836112f0565b610ebf576040517f08c379a0000000000000000000000000000000000000000000000000000000008152600401610eb69061369f565b60405180910390fd5b610ecb84848484611c3f565b50505050565b6060610edc826111e4565b6000610ee6611c9b565b90506000815111610f065760405180602001604052806000815250610f31565b80610f1084611d2d565b604051602001610f21929190613a4a565b6040516020818303038152906040525b915050919050565b6000610f5660016000848152602001908152602001600020611e8d565b9050919050565b7f9f2df0fed2c77648de5860a4cc508cd0818c85b8b8a1ab4ceeef8d981c8956a681565b610f8a826108c5565b610f93816115eb565b610f9d8383611633565b505050565b7f65d7a28e3265b37a6474929f336521b332c1681b933f6cb9f3376673440d862a81565b6000600760008473ffffffffffffffffffffffffffffffffffffffff1673ffffffffffffffffffffffffffffffffffffffff16815260200190815260200160002060008373ffffffffffffffffffffffffffffffffffffffff1673ffffffffffffffffffffffffffffffffffffffff16815260200190815260200160002060009054906101000a900460ff16905092915050565b6110648282610d56565b61113657600160008084815260200190815260200160002060000160008373ffffffffffffffffffffffffffffffffffffffff1673ffffffffffffffffffffffffffffffffffffffff16815260200190815260200160002060006101000a81548160ff0219169083151502179055506110db61122f565b73ffffffffffffffffffffffffffffffffffffffff168173ffffffffffffffffffffffffffffffffffffffff16837f2f8788117e7eff1d82e926ec794901d17c78024a50270940304540a733656f0d60405160405180910390a45b5050565b6000611162836000018373ffffffffffffffffffffffffffffffffffffffff1660001b611ea2565b905092915050565b60007f780e9d63000000000000000000000000000000000000000000000000000000007bffffffffffffffffffffffffffffffffffffffffffffffffffffffff1916827bffffffffffffffffffffffffffffffffffffffffffffffffffffffff191614806111dd57506111dc82611f12565b5b9050919050565b6111ed81611ff4565b61122c576040517f08c379a0000000000000000000000000000000000000000000000000000000008152600401611223906138f0565b60405180910390fd5b50565b600033905090565b816006600083815260200190815260200160002060006101000a81548173ffffffffffffffffffffffffffffffffffffffff021916908373ffffffffffffffffffffffffffffffffffffffff160217905550808273ffffffffffffffffffffffffffffffffffffffff166112aa83610b43565b73ffffffffffffffffffffffffffffffffffffffff167f8c5be1e5ebec7d5bd14f71427d1e84f3dd0314c0f7b2291e5b200ac8c7c3b92560405160405180910390a45050565b6000806112fc83610b43565b90508073ffffffffffffffffffffffffffffffffffffffff168473ffffffffffffffffffffffffffffffffffffffff16148061133e575061133d8185610fc6565b5b8061137c57508373ffffffffffffffffffffffffffffffffffffffff16611364846106f5565b73ffffffffffffffffffffffffffffffffffffffff16145b91505092915050565b8273ffffffffffffffffffffffffffffffffffffffff166113a582610b43565b73ffffffffffffffffffffffffffffffffffffffff16146113fb576040517f08c379a00000000000000000000000000000000000000000000000000000000081526004016113f290613ae0565b60405180910390fd5b600073ffffffffffffffffffffffffffffffffffffffff168273ffffffffffffffffffffffffffffffffffffffff160361146a576040517f08c379a000000000000000000000000000000000000000000000000000000000815260040161146190613b72565b60405180910390fd5b611475838383612060565b611480600082611237565b6001600560008573ffffffffffffffffffffffffffffffffffffffff1673ffffffffffffffffffffffffffffffffffffffff16815260200190815260200160002060008282546114d09190613bc1565b925050819055506001600560008473ffffffffffffffffffffffffffffffffffffffff1673ffffffffffffffffffffffffffffffffffffffff16815260200190815260200160002060008282546115279190613bf5565b92505081905550816004600083815260200190815260200160002060006101000a81548173ffffffffffffffffffffffffffffffffffffffff021916908373ffffffffffffffffffffffffffffffffffffffff160217905550808273ffffffffffffffffffffffffffffffffffffffff168473ffffffffffffffffffffffffffffffffffffffff167fddf252ad1be2c89b69c2b068fc378daa952ba7f163c4a11628f55a4df523b3ef60405160405180910390a46115e6838383612070565b505050565b6115fc816115f761122f565b612075565b50565b611609828261105a565b61162e816001600085815260200190815260200160002061113a90919063ffffffff16565b505050565b61163d8282612112565b61166281600160008581526020019081526020016000206121f390919063ffffffff16565b505050565b6116987f65d7a28e3265b37a6474929f336521b332c1681b933f6cb9f3376673440d862a61169361122f565b610d56565b6116d7576040517f08c379a00000000000000000000000000000000000000000000000000000000081526004016116ce90613c9b565b60405180910390fd5b565b6116e1612223565b6000600c60006101000a81548160ff0219169083151502179055507f5db9ee0a495bf2e6ff9c91a7834c1ba4fdd244a5e8aa4e537bd38aeae4b073aa61172561122f565b6040516117329190613007565b60405180910390a1565b600061174782610b43565b905061175581600084612060565b611760600083611237565b6001600560008373ffffffffffffffffffffffffffffffffffffffff1673ffffffffffffffffffffffffffffffffffffffff16815260200190815260200160002060008282546117b09190613bc1565b925050819055506004600083815260200190815260200160002060006101000a81549073ffffffffffffffffffffffffffffffffffffffff021916905581600073ffffffffffffffffffffffffffffffffffffffff168273ffffffffffffffffffffffffffffffffffffffff167fddf252ad1be2c89b69c2b068fc378daa952ba7f163c4a11628f55a4df523b3ef60405160405180910390a461185581600084612070565b5050565b600081600001549050919050565b600073ffffffffffffffffffffffffffffffffffffffff168273ffffffffffffffffffffffffffffffffffffffff16036118d6576040517f08c379a00000000000000000000000000000000000000000000000000000000081526004016118cd90613d07565b60405180910390fd5b6118df81611ff4565b1561191f576040517f08c379a000000000000000000000000000000000000000000000000000000000815260040161191690613d73565b60405180910390fd5b61192b60008383612060565b6001600560008473ffffffffffffffffffffffffffffffffffffffff1673ffffffffffffffffffffffffffffffffffffffff168152602001908152602001600020600082825461197b9190613bf5565b92505081905550816004600083815260200190815260200160002060006101000a81548173ffffffffffffffffffffffffffffffffffffffff021916908373ffffffffffffffffffffffffffffffffffffffff160217905550808273ffffffffffffffffffffffffffffffffffffffff16600073ffffffffffffffffffffffffffffffffffffffff167fddf252ad1be2c89b69c2b068fc378daa952ba7f163c4a11628f55a4df523b3ef60405160405180910390a4611a3c60008383612070565b5050565b6001816000016000828254019250508190555050565b611a5e61226c565b6001600c60006101000a81548160ff0219169083151502179055507f62e78cea01bee320cd4e420270b5ea74000d11b0c9f74754ebdbfc544b05a258611aa261122f565b604051611aaf9190613007565b60405180910390a1565b6000611ac883600001836122b6565b60001c905092915050565b8173ffffffffffffffffffffffffffffffffffffffff168373ffffffffffffffffffffffffffffffffffffffff1603611b41576040517f08c379a0000000000000000000000000000000000000000000000000000000008152600401611b3890613ddf565b60405180910390fd5b80600760008573ffffffffffffffffffffffffffffffffffffffff1673ffffffffffffffffffffffffffffffffffffffff16815260200190815260200160002060008473ffffffffffffffffffffffffffffffffffffffff1673ffffffffffffffffffffffffffffffffffffffff16815260200190815260200160002060006101000a81548160ff0219169083151502179055508173ffffffffffffffffffffffffffffffffffffffff168373ffffffffffffffffffffffffffffffffffffffff167f17307eab39ab6107e8899845ad3d59bd9653f200f220920489ca2b5937696c3183604051611c329190612e96565b60405180910390a3505050565b611c4a848484611385565b611c56848484846122e1565b611c95576040517f08c379a0000000000000000000000000000000000000000000000000000000008152600401611c8c90613e71565b60405180910390fd5b50505050565b6060600e8054611caa906134d8565b80601f0160208091040260200160405190810160405280929190818152602001828054611cd6906134d8565b8015611d235780601f10611cf857610100808354040283529160200191611d23565b820191906000526020600020905b815481529060010190602001808311611d0657829003601f168201915b5050505050905090565b606060008203611d74576040518060400160405280600181526020017f30000000000000000000000000000000000000000000000000000000000000008152509050611e88565b600082905060005b60008214611da6578080611d8f90613e91565b915050600a82611d9f9190613f08565b9150611d7c565b60008167ffffffffffffffff811115611dc257611dc16132bb565b5b6040519080825280601f01601f191660200182016040528015611df45781602001600182028036833780820191505090505b5090505b60008514611e8157600182611e0d9190613bc1565b9150600a85611e1c9190613f39565b6030611e289190613bf5565b60f81b818381518110611e3e57611e3d613875565b5b60200101907effffffffffffffffffffffffffffffffffffffffffffffffffffffffffffff1916908160001a905350600a85611e7a9190613f08565b9450611df8565b8093505050505b919050565b6000611e9b82600001612468565b9050919050565b6000611eae8383612479565b611f07578260000182908060018154018082558091505060019003906000526020600020016000909190919091505582600001805490508360010160008481526020019081526020016000208190555060019050611f0c565b600090505b92915050565b60007f80ac58cd000000000000000000000000000000000000000000000000000000007bffffffffffffffffffffffffffffffffffffffffffffffffffffffff1916827bffffffffffffffffffffffffffffffffffffffffffffffffffffffff19161480611fdd57507f5b5e139f000000000000000000000000000000000000000000000000000000007bffffffffffffffffffffffffffffffffffffffffffffffffffffffff1916827bffffffffffffffffffffffffffffffffffffffffffffffffffffffff1916145b80611fed5750611fec8261249c565b5b9050919050565b60008073ffffffffffffffffffffffffffffffffffffffff166004600084815260200190815260200160002060009054906101000a900473ffffffffffffffffffffffffffffffffffffffff1673ffffffffffffffffffffffffffffffffffffffff1614159050919050565b61206b838383612516565b505050565b505050565b61207f8282610d56565b61210e576120a48173ffffffffffffffffffffffffffffffffffffffff16601461256e565b6120b28360001c602061256e565b6040516020016120c3929190614002565b6040516020818303038152906040526040517f08c379a00000000000000000000000000000000000000000000000000000000081526004016121059190612f41565b60405180910390fd5b5050565b61211c8282610d56565b156121ef57600080600084815260200190815260200160002060000160008373ffffffffffffffffffffffffffffffffffffffff1673ffffffffffffffffffffffffffffffffffffffff16815260200190815260200160002060006101000a81548160ff02191690831515021790555061219461122f565b73ffffffffffffffffffffffffffffffffffffffff168173ffffffffffffffffffffffffffffffffffffffff16837ff6391f5c32d9c69d2a47ea670b442974b53935d1edc7fd64eb21e047a839171b60405160405180910390a45b5050565b600061221b836000018373ffffffffffffffffffffffffffffffffffffffff1660001b6127aa565b905092915050565b61222b610b2c565b61226a576040517f08c379a000000000000000000000000000000000000000000000000000000000815260040161226190614088565b60405180910390fd5b565b612274610b2c565b156122b4576040517f08c379a00000000000000000000000000000000000000000000000000000000081526004016122ab906140f4565b60405180910390fd5b565b60008260000182815481106122ce576122cd613875565b5b9060005260206000200154905092915050565b60006123028473ffffffffffffffffffffffffffffffffffffffff166128be565b1561245b578373ffffffffffffffffffffffffffffffffffffffff1663150b7a0261232b61122f565b8786866040518563ffffffff1660e01b815260040161234d9493929190614169565b6020604051808303816000875af192505050801561238957506040513d601f19601f8201168201806040525081019061238691906141ca565b60015b61240b573d80600081146123b9576040519150601f19603f3d011682016040523d82523d6000602084013e6123be565b606091505b506000815103612403576040517f08c379a00000000000000000000000000000000000000000000000000000000081526004016123fa90613e71565b60405180910390fd5b805181602001fd5b63150b7a0260e01b7bffffffffffffffffffffffffffffffffffffffffffffffffffffffff1916817bffffffffffffffffffffffffffffffffffffffffffffffffffffffff191614915050612460565b600190505b949350505050565b600081600001805490509050919050565b600080836001016000848152602001908152602001600020541415905092915050565b60007f5a05180f000000000000000000000000000000000000000000000000000000007bffffffffffffffffffffffffffffffffffffffffffffffffffffffff1916827bffffffffffffffffffffffffffffffffffffffffffffffffffffffff1916148061250f575061250e826128e1565b5b9050919050565b61252183838361295b565b612529610b2c565b15612569576040517f08c379a000000000000000000000000000000000000000000000000000000000815260040161256090614269565b60405180910390fd5b505050565b6060600060028360026125819190614289565b61258b9190613bf5565b67ffffffffffffffff8111156125a4576125a36132bb565b5b6040519080825280601f01601f1916602001820160405280156125d65781602001600182028036833780820191505090505b5090507f30000000000000000000000000000000000000000000000000000000000000008160008151811061260e5761260d613875565b5b60200101907effffffffffffffffffffffffffffffffffffffffffffffffffffffffffffff1916908160001a9053507f78000000000000000000000000000000000000000000000000000000000000008160018151811061267257612671613875565b5b60200101907effffffffffffffffffffffffffffffffffffffffffffffffffffffffffffff1916908160001a905350600060018460026126b29190614289565b6126bc9190613bf5565b90505b600181111561275c577f3031323334353637383961626364656600000000000000000000000000000000600f8616601081106126fe576126fd613875565b5b1a60f81b82828151811061271557612714613875565b5b60200101907effffffffffffffffffffffffffffffffffffffffffffffffffffffffffffff1916908160001a905350600485901c945080612755906142cb565b90506126bf565b50600084146127a0576040517f08c379a000000000000000000000000000000000000000000000000000000000815260040161279790614340565b60405180910390fd5b8091505092915050565b600080836001016000848152602001908152602001600020549050600081146128b25760006001826127dc9190613bc1565b90506000600186600001805490506127f49190613bc1565b905081811461286357600086600001828154811061281557612814613875565b5b906000526020600020015490508087600001848154811061283957612838613875565b5b90600052602060002001819055508387600101600083815260200190815260200160002081905550505b8560000180548061287757612876614360565b5b6001900381819060005260206000200160009055905585600101600086815260200190815260200160002060009055600193505050506128b8565b60009150505b92915050565b6000808273ffffffffffffffffffffffffffffffffffffffff163b119050919050565b60007f7965db0b000000000000000000000000000000000000000000000000000000007bffffffffffffffffffffffffffffffffffffffffffffffffffffffff1916827bffffffffffffffffffffffffffffffffffffffffffffffffffffffff19161480612954575061295382612a6d565b5b9050919050565b612966838383612ad7565b600073ffffffffffffffffffffffffffffffffffffffff168373ffffffffffffffffffffffffffffffffffffffff16036129a8576129a381612adc565b6129e7565b8173ffffffffffffffffffffffffffffffffffffffff168373ffffffffffffffffffffffffffffffffffffffff16146129e6576129e58382612b25565b5b5b600073ffffffffffffffffffffffffffffffffffffffff168273ffffffffffffffffffffffffffffffffffffffff1603612a2957612a2481612c92565b612a68565b8273ffffffffffffffffffffffffffffffffffffffff168273ffffffffffffffffffffffffffffffffffffffff1614612a6757612a668282612d63565b5b5b505050565b60007f01ffc9a7000000000000000000000000000000000000000000000000000000007bffffffffffffffffffffffffffffffffffffffffffffffffffffffff1916827bffffffffffffffffffffffffffffffffffffffffffffffffffffffff1916149050919050565b505050565b600a80549050600b600083815260200190815260200160002081905550600a81908060018154018082558091505060019003906000526020600020016000909190919091505550565b60006001612b3284610c5e565b612b3c9190613bc1565b9050600060096000848152602001908152602001600020549050818114612c21576000600860008673ffffffffffffffffffffffffffffffffffffffff1673ffffffffffffffffffffffffffffffffffffffff168152602001908152602001600020600084815260200190815260200160002054905080600860008773ffffffffffffffffffffffffffffffffffffffff1673ffffffffffffffffffffffffffffffffffffffff168152602001908152602001600020600084815260200190815260200160002081905550816009600083815260200190815260200160002081905550505b6009600084815260200190815260200160002060009055600860008573ffffffffffffffffffffffffffffffffffffffff1673ffffffffffffffffffffffffffffffffffffffff16815260200190815260200160002060008381526020019081526020016000206000905550505050565b60006001600a80549050612ca69190613bc1565b90506000600b60008481526020019081526020016000205490506000600a8381548110612cd657612cd5613875565b5b9060005260206000200154905080600a8381548110612cf857612cf7613875565b5b906000526020600020018190555081600b600083815260200190815260200160002081905550600b600085815260200190815260200160002060009055600a805480612d4757612d46614360565b5b6001900381819060005260206000200160009055905550505050565b6000612d6e83610c5e565b905081600860008573ffffffffffffffffffffffffffffffffffffffff1673ffffffffffffffffffffffffffffffffffffffff168152602001908152602001600020600083815260200190815260200160002081905550806009600084815260200190815260200160002081905550505050565b6000604051905090565b600080fd5b600080fd5b60007fffffffff0000000000000000000000000000000000000000000000000000000082169050919050565b612e2b81612df6565b8114612e3657600080fd5b50565b600081359050612e4881612e22565b92915050565b600060208284031215612e6457612e63612dec565b5b6000612e7284828501612e39565b91505092915050565b60008115159050919050565b612e9081612e7b565b82525050565b6000602082019050612eab6000830184612e87565b92915050565b600081519050919050565b600082825260208201905092915050565b60005b83811015612eeb578082015181840152602081019050612ed0565b60008484015250505050565b6000601f19601f8301169050919050565b6000612f1382612eb1565b612f1d8185612ebc565b9350612f2d818560208601612ecd565b612f3681612ef7565b840191505092915050565b60006020820190508181036000830152612f5b8184612f08565b905092915050565b6000819050919050565b612f7681612f63565b8114612f8157600080fd5b50565b600081359050612f9381612f6d565b92915050565b600060208284031215612faf57612fae612dec565b5b6000612fbd84828501612f84565b91505092915050565b600073ffffffffffffffffffffffffffffffffffffffff82169050919050565b6000612ff182612fc6565b9050919050565b61300181612fe6565b82525050565b600060208201905061301c6000830184612ff8565b92915050565b61302b81612fe6565b811461303657600080fd5b50565b60008135905061304881613022565b92915050565b6000806040838503121561306557613064612dec565b5b600061307385828601613039565b925050602061308485828601612f84565b9150509250929050565b61309781612f63565b82525050565b60006020820190506130b2600083018461308e565b92915050565b6000806000606084860312156130d1576130d0612dec565b5b60006130df86828701613039565b93505060206130f086828701613039565b925050604061310186828701612f84565b9150509250925092565b6000819050919050565b61311e8161310b565b811461312957600080fd5b50565b60008135905061313b81613115565b92915050565b60006020828403121561315757613156612dec565b5b60006131658482850161312c565b91505092915050565b6131778161310b565b82525050565b6000602082019050613192600083018461316e565b92915050565b600080604083850312156131af576131ae612dec565b5b60006131bd8582860161312c565b92505060206131ce85828601613039565b9150509250929050565b6000602082840312156131ee576131ed612dec565b5b60006131fc84828501613039565b91505092915050565b6000806040838503121561321c5761321b612dec565b5b600061322a8582860161312c565b925050602061323b85828601612f84565b9150509250929050565b61324e81612e7b565b811461325957600080fd5b50565b60008135905061326b81613245565b92915050565b6000806040838503121561328857613287612dec565b5b600061329685828601613039565b92505060206132a78582860161325c565b9150509250929050565b600080fd5b600080fd5b7f4e487b7100000000000000000000000000000000000000000000000000000000600052604160045260246000fd5b6132f382612ef7565b810181811067ffffffffffffffff82111715613312576133116132bb565b5b80604052505050565b6000613325612de2565b905061333182826132ea565b919050565b600067ffffffffffffffff821115613351576133506132bb565b5b61335a82612ef7565b9050602081019050919050565b82818337600083830152505050565b600061338961338484613336565b61331b565b9050828152602081018484840111156133a5576133a46132b6565b5b6133b0848285613367565b509392505050565b600082601f8301126133cd576133cc6132b1565b5b81356133dd848260208601613376565b91505092915050565b60008060008060808587031215613400576133ff612dec565b5b600061340e87828801613039565b945050602061341f87828801613039565b935050604061343087828801612f84565b925050606085013567ffffffffffffffff81111561345157613450612df1565b5b61345d878288016133b8565b91505092959194509250565b600080604083850312156134805761347f612dec565b5b600061348e85828601613039565b925050602061349f85828601613039565b9150509250929050565b7f4e487b7100000000000000000000000000000000000000000000000000000000600052602260045260246000fd5b600060028204905060018216806134f057607f821691505b602082108103613503576135026134a9565b5b50919050565b7f4552433732313a20617070726f76616c20746f2063757272656e74206f776e6560008201527f7200000000000000000000000000000000000000000000000000000000000000602082015250565b6000613565602183612ebc565b915061357082613509565b604082019050919050565b6000602082019050818103600083015261359481613558565b9050919050565b7f4552433732313a20617070726f76652063616c6c6572206973206e6f7420746f60008201527f6b656e206f776e6572206e6f7220617070726f76656420666f7220616c6c0000602082015250565b60006135f7603e83612ebc565b91506136028261359b565b604082019050919050565b60006020820190508181036000830152613626816135ea565b9050919050565b7f4552433732313a2063616c6c6572206973206e6f7420746f6b656e206f776e6560008201527f72206e6f7220617070726f766564000000000000000000000000000000000000602082015250565b6000613689602e83612ebc565b91506136948261362d565b604082019050919050565b600060208201905081810360008301526136b88161367c565b9050919050565b7f455243373231456e756d657261626c653a206f776e657220696e646578206f7560008201527f74206f6620626f756e6473000000000000000000000000000000000000000000602082015250565b600061371b602b83612ebc565b9150613726826136bf565b604082019050919050565b6000602082019050818103600083015261374a8161370e565b9050919050565b7f416363657373436f6e74726f6c3a2063616e206f6e6c792072656e6f756e636560008201527f20726f6c657320666f722073656c660000000000000000000000000000000000602082015250565b60006137ad602f83612ebc565b91506137b882613751565b604082019050919050565b600060208201905081810360008301526137dc816137a0565b9050919050565b7f455243373231456e756d657261626c653a20676c6f62616c20696e646578206f60008201527f7574206f6620626f756e64730000000000000000000000000000000000000000602082015250565b600061383f602c83612ebc565b915061384a826137e3565b604082019050919050565b6000602082019050818103600083015261386e81613832565b9050919050565b7f4e487b7100000000000000000000000000000000000000000000000000000000600052603260045260246000fd5b7f4552433732313a20696e76616c696420746f6b656e2049440000000000000000600082015250565b60006138da601883612ebc565b91506138e5826138a4565b602082019050919050565b60006020820190508181036000830152613909816138cd565b9050919050565b7f4552433732313a206d696e742066696e69736800000000000000000000000000600082015250565b6000613946601383612ebc565b915061395182613910565b602082019050919050565b6000602082019050818103600083015261397581613939565b9050919050565b7f4552433732313a2061646472657373207a65726f206973206e6f74206120766160008201527f6c6964206f776e65720000000000000000000000000000000000000000000000602082015250565b60006139d8602983612ebc565b91506139e38261397c565b604082019050919050565b60006020820190508181036000830152613a07816139cb565b9050919050565b600081905092915050565b6000613a2482612eb1565b613a2e8185613a0e565b9350613a3e818560208601612ecd565b80840191505092915050565b6000613a568285613a19565b9150613a628284613a19565b91508190509392505050565b7f4552433732313a207472616e736665722066726f6d20696e636f72726563742060008201527f6f776e6572000000000000000000000000000000000000000000000000000000602082015250565b6000613aca602583612ebc565b9150613ad582613a6e565b604082019050919050565b60006020820190508181036000830152613af981613abd565b9050919050565b7f4552433732313a207472616e7366657220746f20746865207a65726f2061646460008201527f7265737300000000000000000000000000000000000000000000000000000000602082015250565b6000613b5c602483612ebc565b9150613b6782613b00565b604082019050919050565b60006020820190508181036000830152613b8b81613b4f565b9050919050565b7f4e487b7100000000000000000000000000000000000000000000000000000000600052601160045260246000fd5b6000613bcc82612f63565b9150613bd783612f63565b9250828203905081811115613bef57613bee613b92565b5b92915050565b6000613c0082612f63565b9150613c0b83612f63565b9250828201905080821115613c2357613c22613b92565b5b92915050565b7f4552433732315072657365744d696e7465725061757365724175746f49643a2060008201527f6d75737420686176652070617573657220726f6c6520746f2070617573650000602082015250565b6000613c85603e83612ebc565b9150613c9082613c29565b604082019050919050565b60006020820190508181036000830152613cb481613c78565b9050919050565b7f4552433732313a206d696e7420746f20746865207a65726f2061646472657373600082015250565b6000613cf1602083612ebc565b9150613cfc82613cbb565b602082019050919050565b60006020820190508181036000830152613d2081613ce4565b9050919050565b7f4552433732313a20746f6b656e20616c7265616479206d696e74656400000000600082015250565b6000613d5d601c83612ebc565b9150613d6882613d27565b602082019050919050565b60006020820190508181036000830152613d8c81613d50565b9050919050565b7f4552433732313a20617070726f766520746f2063616c6c657200000000000000600082015250565b6000613dc9601983612ebc565b9150613dd482613d93565b602082019050919050565b60006020820190508181036000830152613df881613dbc565b9050919050565b7f4552433732313a207472616e7366657220746f206e6f6e20455243373231526560008201527f63656976657220696d706c656d656e7465720000000000000000000000000000602082015250565b6000613e5b603283612ebc565b9150613e6682613dff565b604082019050919050565b60006020820190508181036000830152613e8a81613e4e565b9050919050565b6000613e9c82612f63565b91507fffffffffffffffffffffffffffffffffffffffffffffffffffffffffffffffff8203613ece57613ecd613b92565b5b600182019050919050565b7f4e487b7100000000000000000000000000000000000000000000000000000000600052601260045260246000fd5b6000613f1382612f63565b9150613f1e83612f63565b925082613f2e57613f2d613ed9565b5b828204905092915050565b6000613f4482612f63565b9150613f4f83612f63565b925082613f5f57613f5e613ed9565b5b828206905092915050565b7f416363657373436f6e74726f6c3a206163636f756e7420000000000000000000600082015250565b6000613fa0601783613a0e565b9150613fab82613f6a565b601782019050919050565b7f206973206d697373696e6720726f6c6520000000000000000000000000000000600082015250565b6000613fec601183613a0e565b9150613ff782613fb6565b601182019050919050565b600061400d82613f93565b91506140198285613a19565b915061402482613fdf565b91506140308284613a19565b91508190509392505050565b7f5061757361626c653a206e6f7420706175736564000000000000000000000000600082015250565b6000614072601483612ebc565b915061407d8261403c565b602082019050919050565b600060208201905081810360008301526140a181614065565b9050919050565b7f5061757361626c653a2070617573656400000000000000000000000000000000600082015250565b60006140de601083612ebc565b91506140e9826140a8565b602082019050919050565b6000602082019050818103600083015261410d816140d1565b9050919050565b600081519050919050565b600082825260208201905092915050565b600061413b82614114565b614145818561411f565b9350614155818560208601612ecd565b61415e81612ef7565b840191505092915050565b600060808201905061417e6000830187612ff8565b61418b6020830186612ff8565b614198604083018561308e565b81810360608301526141aa8184614130565b905095945050505050565b6000815190506141c481612e22565b92915050565b6000602082840312156141e0576141df612dec565b5b60006141ee848285016141b5565b91505092915050565b7f4552433732315061757361626c653a20746f6b656e207472616e73666572207760008201527f68696c6520706175736564000000000000000000000000000000000000000000602082015250565b6000614253602b83612ebc565b915061425e826141f7565b604082019050919050565b6000602082019050818103600083015261428281614246565b9050919050565b600061429482612f63565b915061429f83612f63565b92508282026142ad81612f63565b915082820484148315176142c4576142c3613b92565b5b5092915050565b60006142d682612f63565b9150600082036142e9576142e8613b92565b5b600182039050919050565b7f537472696e67733a20686578206c656e67746820696e73756666696369656e74600082015250565b600061432a602083612ebc565b9150614335826142f4565b602082019050919050565b600060208201905081810360008301526143598161431d565b9050919050565b7f4e487b7100000000000000000000000000000000000000000000000000000000600052603160045260246000fdfea2646970667358221220c8fb94be6d827a8428554c74b5ba1690777ccddc23d8915cc266fd0346b0674e64736f6c63430008110033",
  "linkReferences": {},
  "deployedLinkReferences": {}
}