{
  "_format": "hh-sol-artifact-1",
  "contractName": "Fans",
  "sourceName": "contracts/Fans.sol",
  "abi": [
    {
      "inputs": [
        {
          "internalType": "address",
          "name": "verifier_",
          "type": "address"
        }
      ],
      "stateMutability": "nonpayable",
      "type": "constructor"
    },
    {
      "anonymous": false,
      "inputs": [
        {
          "indexed": true,
          "internalType": "address",
          "name": "owner",
          "type": "address"
        },
        {
          "indexed": true,
          "internalType": "uint256",
          "name": "linkId",
          "type": "uint256"
        },
        {
          "indexed": true,
          "internalType": "address",
          "name": "operator",
          "type": "address"
        }
      ],
      "name": "Approval",
      "type": "event"
    },
    {
      "anonymous": false,
      "inputs": [
        {
          "indexed": true,
          "internalType": "address",
          "name": "owner",
          "type": "address"
        },
        {
          "indexed": true,
          "internalType": "string",
          "name": "endNodeUri",
          "type": "string"
        },
        {
          "indexed": true,
          "internalType": "address",
          "name": "operator",
          "type": "address"
        },
        {
          "indexed": false,
          "internalType": "bool",
          "name": "approved",
          "type": "bool"
        }
      ],
      "name": "ApprovalForAll",
      "type": "event"
    },
    {
      "anonymous": false,
      "inputs": [
        {
          "indexed": true,
          "internalType": "address",
          "name": "from",
          "type": "address"
        },
        {
          "indexed": true,
          "internalType": "string",
          "name": "startNFTUri",
          "type": "string"
        },
        {
          "indexed": false,
          "internalType": "uint256",
          "name": "amount",
          "type": "uint256"
        }
      ],
      "name": "Claim",
      "type": "event"
    },
    {
      "anonymous": false,
      "inputs": [
        {
          "indexed": true,
          "internalType": "address",
          "name": "from",
          "type": "address"
        },
        {
          "indexed": true,
          "internalType": "string",
          "name": "startNFTUri",
          "type": "string"
        },
        {
          "indexed": true,
          "internalType": "string",
          "name": "endNFTUri",
          "type": "string"
        }
      ],
      "name": "Mint",
      "type": "event"
    },
    {
      "anonymous": false,
      "inputs": [
        {
          "indexed": true,
          "internalType": "address",
          "name": "from",
          "type": "address"
        },
        {
          "indexed": true,
          "internalType": "string",
          "name": "startNFTUri",
          "type": "string"
        },
        {
          "indexed": false,
          "internalType": "string",
          "name": "proof",
          "type": "string"
        }
      ],
      "name": "Prove",
      "type": "event"
    },
    {
      "anonymous": false,
      "inputs": [
        {
          "indexed": true,
          "internalType": "address",
          "name": "from",
          "type": "address"
        },
        {
          "indexed": true,
          "internalType": "uint256",
          "name": "linkId",
          "type": "uint256"
        },
        {
          "indexed": true,
          "internalType": "string",
          "name": "toEndNFTUri",
          "type": "string"
        }
      ],
      "name": "Transfer",
      "type": "event"
    },
    {
      "inputs": [
        {
          "internalType": "uint256",
          "name": "linkId",
          "type": "uint256"
        },
        {
          "internalType": "address",
          "name": "operator",
          "type": "address"
        }
      ],
      "name": "approve",
      "outputs": [],
      "stateMutability": "nonpayable",
      "type": "function"
    },
    {
      "inputs": [
        {
          "internalType": "string",
          "name": "startNFTUri",
          "type": "string"
        },
        {
          "internalType": "uint256",
          "name": "amount",
          "type": "uint256"
        }
      ],
      "name": "claim",
      "outputs": [],
      "stateMutability": "nonpayable",
      "type": "function"
    },
    {
      "inputs": [
        {
          "internalType": "uint256",
          "name": "index",
          "type": "uint256"
        }
      ],
      "name": "claimByIndex",
      "outputs": [
        {
          "internalType": "string",
          "name": "",
          "type": "string"
        }
      ],
      "stateMutability": "view",
      "type": "function"
    },
    {
      "inputs": [
        {
          "internalType": "uint256",
          "name": "linkId",
          "type": "uint256"
        }
      ],
      "name": "endNodeOf",
      "outputs": [
        {
          "internalType": "string",
          "name": "",
          "type": "string"
        }
      ],
      "stateMutability": "view",
      "type": "function"
    },
    {
      "inputs": [
        {
          "internalType": "string",
          "name": "endNodeUri",
          "type": "string"
        },
        {
          "internalType": "uint256",
          "name": "index",
          "type": "uint256"
        }
      ],
      "name": "inLinkOfByIndex",
      "outputs": [
        {
          "internalType": "uint256",
          "name": "linkId",
          "type": "uint256"
        }
      ],
      "stateMutability": "view",
      "type": "function"
    },
    {
      "inputs": [
        {
          "internalType": "string",
          "name": "endNodeUri",
          "type": "string"
        }
      ],
      "name": "inLinksNumOf",
      "outputs": [
        {
          "internalType": "uint256",
          "name": "num",
          "type": "uint256"
        }
      ],
      "stateMutability": "view",
      "type": "function"
    },
    {
      "inputs": [
        {
          "internalType": "string",
          "name": "endNodeUri",
          "type": "string"
        },
        {
          "internalType": "address",
          "name": "operator",
          "type": "address"
        }
      ],
      "name": "isApprovedForAll",
      "outputs": [
        {
          "internalType": "bool",
          "name": "",
          "type": "bool"
        }
      ],
      "stateMutability": "view",
      "type": "function"
    },
    {
      "inputs": [
        {
          "internalType": "string",
          "name": "startNFTUri",
          "type": "string"
        }
      ],
      "name": "isProved",
      "outputs": [
        {
          "internalType": "bool",
          "name": "proved",
          "type": "bool"
        }
      ],
      "stateMutability": "view",
      "type": "function"
    },
    {
      "inputs": [
        {
          "internalType": "uint256",
          "name": "index",
          "type": "uint256"
        }
      ],
      "name": "linkByIndex",
      "outputs": [
        {
          "internalType": "uint256",
          "name": "",
          "type": "uint256"
        }
      ],
      "stateMutability": "view",
      "type": "function"
    },
    {
      "inputs": [
        {
          "internalType": "uint256",
          "name": "linkId",
          "type": "uint256"
        }
      ],
      "name": "linkMetadata",
      "outputs": [
        {
          "internalType": "string",
          "name": "",
          "type": "string"
        }
      ],
      "stateMutability": "view",
      "type": "function"
    },
    {
      "inputs": [
        {
          "internalType": "string",
          "name": "startNFTUri",
          "type": "string"
        },
        {
          "internalType": "string",
          "name": "endNFTUri",
          "type": "string"
        }
      ],
      "name": "mint",
      "outputs": [],
      "stateMutability": "nonpayable",
      "type": "function"
    },
    {
      "inputs": [],
      "name": "name",
      "outputs": [
        {
          "internalType": "string",
          "name": "",
          "type": "string"
        }
      ],
      "stateMutability": "view",
      "type": "function"
    },
    {
      "inputs": [
        {
          "internalType": "string",
          "name": "startNodeUri",
          "type": "string"
        },
        {
          "internalType": "uint256",
          "name": "index",
          "type": "uint256"
        }
      ],
      "name": "outLinkOfByIndex",
      "outputs": [
        {
          "internalType": "uint256",
          "name": "linkId",
          "type": "uint256"
        }
      ],
      "stateMutability": "view",
      "type": "function"
    },
    {
      "inputs": [
        {
          "internalType": "string",
          "name": "startNodeUri",
          "type": "string"
        }
      ],
      "name": "outLinksNumOf",
      "outputs": [
        {
          "internalType": "uint256",
          "name": "num",
          "type": "uint256"
        }
      ],
      "stateMutability": "view",
      "type": "function"
    },
    {
      "inputs": [
        {
          "internalType": "uint256",
          "name": "linkId",
          "type": "uint256"
        }
      ],
      "name": "ownerOf",
      "outputs": [
        {
          "internalType": "address",
          "name": "",
          "type": "address"
        }
      ],
      "stateMutability": "view",
      "type": "function"
    },
    {
      "inputs": [
        {
          "internalType": "string",
          "name": "startNFTUri",
          "type": "string"
        },
        {
          "internalType": "string",
          "name": "proof",
          "type": "string"
        }
      ],
      "name": "prove",
      "outputs": [],
      "stateMutability": "nonpayable",
      "type": "function"
    },
    {
      "inputs": [
        {
          "internalType": "string",
          "name": "endNodeUri",
          "type": "string"
        },
        {
          "internalType": "address",
          "name": "operator",
          "type": "address"
        },
        {
          "internalType": "bool",
          "name": "_approved",
          "type": "bool"
        }
      ],
      "name": "setApprovalForAll",
      "outputs": [],
      "stateMutability": "nonpayable",
      "type": "function"
    },
    {
      "inputs": [
        {
          "internalType": "uint256",
          "name": "linkId",
          "type": "uint256"
        }
      ],
      "name": "startNodeOf",
      "outputs": [
        {
          "internalType": "string",
          "name": "",
          "type": "string"
        }
      ],
      "stateMutability": "view",
      "type": "function"
    },
    {
      "inputs": [],
      "name": "symbol",
      "outputs": [
        {
          "internalType": "string",
          "name": "",
          "type": "string"
        }
      ],
      "stateMutability": "view",
      "type": "function"
    },
    {
      "inputs": [],
      "name": "totalClaims",
      "outputs": [
        {
          "internalType": "uint256",
          "name": "",
          "type": "uint256"
        }
      ],
      "stateMutability": "view",
      "type": "function"
    },
    {
      "inputs": [],
      "name": "totalLinks",
      "outputs": [
        {
          "internalType": "uint256",
          "name": "",
          "type": "uint256"
        }
      ],
      "stateMutability": "view",
      "type": "function"
    },
    {
      "inputs": [
        {
          "internalType": "uint256",
          "name": "linkId",
          "type": "uint256"
        },
        {
          "internalType": "string",
          "name": "toEndNFTUri",
          "type": "string"
        }
      ],
      "name": "transfer",
      "outputs": [],
      "stateMutability": "nonpayable",
      "type": "function"
    },
    {
      "inputs": [],
      "name": "verifier",
      "outputs": [
        {
          "internalType": "address",
          "name": "",
          "type": "address"
        }
      ],
      "stateMutability": "view",
      "type": "function"
    }
  ],
  "bytecode": "0x60806040523480156200001157600080fd5b50604051620052a0380380620052a0833981810160405281019062000037919062000183565b6040518060400160405280600481526020017f46616e73000000000000000000000000000000000000000000000000000000008152506040518060400160405280600481526020017f46414e5300000000000000000000000000000000000000000000000000000000815250828282828260009081620000b891906200042f565b508160019081620000ca91906200042f565b5080600260006101000a81548173ffffffffffffffffffffffffffffffffffffffff021916908373ffffffffffffffffffffffffffffffffffffffff1602179055505050505050505062000516565b600080fd5b600073ffffffffffffffffffffffffffffffffffffffff82169050919050565b60006200014b826200011e565b9050919050565b6200015d816200013e565b81146200016957600080fd5b50565b6000815190506200017d8162000152565b92915050565b6000602082840312156200019c576200019b62000119565b5b6000620001ac848285016200016c565b91505092915050565b600081519050919050565b7f4e487b7100000000000000000000000000000000000000000000000000000000600052604160045260246000fd5b7f4e487b7100000000000000000000000000000000000000000000000000000000600052602260045260246000fd5b600060028204905060018216806200023757607f821691505b6020821081036200024d576200024c620001ef565b5b50919050565b60008190508160005260206000209050919050565b60006020601f8301049050919050565b600082821b905092915050565b600060088302620002b77fffffffffffffffffffffffffffffffffffffffffffffffffffffffffffffffff8262000278565b620002c3868362000278565b95508019841693508086168417925050509392505050565b6000819050919050565b6000819050919050565b6000620003106200030a6200030484620002db565b620002e5565b620002db565b9050919050565b6000819050919050565b6200032c83620002ef565b620003446200033b8262000317565b84845462000285565b825550505050565b600090565b6200035b6200034c565b6200036881848462000321565b505050565b5b8181101562000390576200038460008262000351565b6001810190506200036e565b5050565b601f821115620003df57620003a98162000253565b620003b48462000268565b81016020851015620003c4578190505b620003dc620003d38562000268565b8301826200036d565b50505b505050565b600082821c905092915050565b60006200040460001984600802620003e4565b1980831691505092915050565b60006200041f8383620003f1565b9150826002028217905092915050565b6200043a82620001b5565b67ffffffffffffffff811115620004565762000455620001c0565b5b6200046282546200021e565b6200046f82828562000394565b600060209050601f831160018114620004a7576000841562000492578287015190505b6200049e858262000411565b8655506200050e565b601f198416620004b78662000253565b60005b82811015620004e157848901518255600182019150602085019450602081019050620004ba565b86831015620005015784890151620004fd601f891682620003f1565b8355505b6001600288020188555050505b505050505050565b614d7a80620005266000396000f3fe608060405234801561001057600080fd5b506004361061014d5760003560e01c80637df7083f116100c3578063c06d86d11161007c578063c06d86d114610400578063ca32ab8614610430578063cb7bba611461044c578063d70e79dc14610468578063e64d2fb414610498578063febe4909146104b45761014d565b80637df7083f146103065780638aa0fdad1461033657806395d89b41146103525780639b6fdcc014610370578063a32f35e0146103a0578063ad5bb464146103d05761014d565b806341c613831161011557806341c613831461020c5780635880bdb11461022a57806359b361ef1461025a5780635ecdf043146102765780636352211e146102a65780636a793a6c146102d65761014d565b806306fdde0314610152578063092b4de1146101705780630d2774491461018e5780632b7ac3f3146101be5780632d67c0c5146101dc575b600080fd5b61015a6104d0565b6040516101679190612cf4565b60405180910390f35b610178610562565b6040516101859190612d2f565b60405180910390f35b6101a860048036038101906101a39190612d8a565b61056f565b6040516101b59190612cf4565b60405180910390f35b6101c6610581565b6040516101d39190612df8565b60405180910390f35b6101f660048036038101906101f19190612d8a565b6105ab565b6040516102039190612cf4565b60405180910390f35b61021461066e565b6040516102219190612d2f565b60405180910390f35b610244600480360381019061023f9190612f48565b61067b565b6040516102519190612d2f565b60405180910390f35b610274600480360381019061026f9190613008565b6106b2565b005b610290600480360381019061028b9190613077565b61079d565b60405161029d9190612d2f565b60405180910390f35b6102c060048036038101906102bb9190612d8a565b6107c9565b6040516102cd9190612df8565b60405180910390f35b6102f060048036038101906102eb9190613077565b6107db565b6040516102fd9190612d2f565b60405180910390f35b610320600480360381019061031b9190612d8a565b610807565b60405161032d9190612cf4565b60405180910390f35b610350600480360381019061034b91906130c0565b610903565b005b61035a610b83565b6040516103679190612cf4565b60405180910390f35b61038a60048036038101906103859190612d8a565b610c15565b6040516103979190612d2f565b60405180910390f35b6103ba60048036038101906103b59190613138565b610c86565b6040516103c791906131a3565b60405180910390f35b6103ea60048036038101906103e59190612f48565b610cf6565b6040516103f79190612d2f565b60405180910390f35b61041a60048036038101906104159190612d8a565b610d2d565b6040516104279190612cf4565b60405180910390f35b61044a600480360381019061044591906131be565b610d3f565b005b610466600480360381019061046191906130c0565b6112ac565b005b610482600480360381019061047d9190613077565b611383565b60405161048f91906131a3565b60405180910390f35b6104b260048036038101906104ad9190612f48565b611444565b005b6104ce60048036038101906104c9919061321a565b611621565b005b6060600080546104df90613289565b80601f016020809104026020016040519081016040528092919081815260200182805461050b90613289565b80156105585780601f1061052d57610100808354040283529160200191610558565b820191906000526020600020905b81548152906001019060200180831161053b57829003601f168201915b5050505050905090565b6000601580549050905090565b606061057a826116ed565b9050919050565b6000600260009054906101000a900473ffffffffffffffffffffffffffffffffffffffff16905090565b606060066000600d84815481106105c5576105c46132ba565b5b9060005260206000200154815260200190815260200160002080546105e990613289565b80601f016020809104026020016040519081016040528092919081815260200182805461061590613289565b80156106625780601f1061063757610100808354040283529160200191610662565b820191906000526020600020905b81548152906001019060200180831161064557829003601f168201915b50505050509050919050565b6000600d80549050905090565b60006011600061068a856117a8565b8152602001908152602001600020600083815260200190815260200160002054905092915050565b6106bb836117f3565b73ffffffffffffffffffffffffffffffffffffffff163373ffffffffffffffffffffffffffffffffffffffff1614610728576040517f08c379a000000000000000000000000000000000000000000000000000000000815260040161071f90613335565b60405180910390fd5b80600c6000610736866117a8565b815260200190815260200160002060008473ffffffffffffffffffffffffffffffffffffffff1673ffffffffffffffffffffffffffffffffffffffff16815260200190815260200160002060006101000a81548160ff021916908315150217905550505050565b60006107c2600f60006107af856117a8565b8152602001908152602001600020611901565b9050919050565b60006107d48261190f565b9050919050565b6000610800601060006107ed856117a8565b8152602001908152602001600020611901565b9050919050565b60606000610813611ace565b61081c84611b60565b610825856116ed565b61082e86611cc0565b610836611ace565b610846610841611d7b565b611b60565b610856610851610562565b611b60565b61085f8a611b60565b604051602001610876989796959493929190613d37565b604051602081830303815290604052905060006108d5610894611ace565b61089d86611b60565b6108a5611ace565b6108ae86611d88565b6040516020016108c19493929190614001565b604051602081830303815290604052611d88565b9050806040516020016108e891906140c2565b60405160208183030381529060405291508192505050919050565b61090c82611eeb565b15801561091f575061091d81611eeb565b155b61095e576040517f08c379a000000000000000000000000000000000000000000000000000000000815260040161095590614130565b60405180910390fd5b6000610969836117a8565b9050600060076000838152602001908152602001600020604051806040016040529081600082015481526020016001820160009054906101000a900473ffffffffffffffffffffffffffffffffffffffff1673ffffffffffffffffffffffffffffffffffffffff1673ffffffffffffffffffffffffffffffffffffffff16815250509050600073ffffffffffffffffffffffffffffffffffffffff16816020015173ffffffffffffffffffffffffffffffffffffffff1603610a60576040517f08c379a0000000000000000000000000000000000000000000000000000000008152600401610a579061419c565b60405180910390fd5b6000610a7d60086000858152602001908152602001600020611901565b905081600001518110610ac5576040517f08c379a0000000000000000000000000000000000000000000000000000000008152600401610abc90614208565b60405180910390fd5b6000610ad085611efe565b90506000610ade6003611901565b9050610afb87604051806020016040528060008152508884612015565b604051806040016040528086815260200183815250600960008381526020019081526020016000206000820151816000015560208201518160010155905050610b558760405180602001604052806000815250888461214d565b610b5f600361227d565b610b7a6008600087815260200190815260200160002061227d565b50505050505050565b606060018054610b9290613289565b80601f0160208091040260200160405190810160405280929190818152602001828054610bbe90613289565b8015610c0b5780601f10610be057610100808354040283529160200191610c0b565b820191906000526020600020905b815481529060010190602001808311610bee57829003601f168201915b5050505050905090565b6000610c1f610562565b8210610c60576040517f08c379a0000000000000000000000000000000000000000000000000000000008152600401610c579061429a565b60405180910390fd5b60158281548110610c7457610c736132ba565b5b90600052602060002001549050919050565b6000600c6000610c95856117a8565b815260200190815260200160002060008373ffffffffffffffffffffffffffffffffffffffff1673ffffffffffffffffffffffffffffffffffffffff16815260200190815260200160002060009054906101000a900460ff16905092915050565b600060126000610d05856117a8565b8152602001908152602001600020600083815260200190815260200160002054905092915050565b6060610d3882611cc0565b9050919050565b600060096000848152602001908152602001600020604051806040016040529081600082015481526020016001820154815250509050610e1e60066000836020015181526020019081526020016000208054610d9a90613289565b80601f0160208091040260200160405190810160405280929190818152602001828054610dc690613289565b8015610e135780601f10610de857610100808354040283529160200191610e13565b820191906000526020600020905b815481529060010190602001808311610df657829003601f168201915b505050505083612293565b15610e5e576040517f08c379a0000000000000000000000000000000000000000000000000000000008152600401610e5590614306565b60405180910390fd5b6000610e6983611efe565b9050610e748461190f565b73ffffffffffffffffffffffffffffffffffffffff163373ffffffffffffffffffffffffffffffffffffffff161480610f0b5750600b600085815260200190815260200160002060009054906101000a900473ffffffffffffffffffffffffffffffffffffffff1673ffffffffffffffffffffffffffffffffffffffff163373ffffffffffffffffffffffffffffffffffffffff16145b80610f705750600c600082815260200190815260200160002060003373ffffffffffffffffffffffffffffffffffffffff1673ffffffffffffffffffffffffffffffffffffffff16815260200190815260200160002060009054906101000a900460ff165b610faf576040517f08c379a0000000000000000000000000000000000000000000000000000000008152600401610fa690614372565b60405180910390fd5b61111d60066000600960008881526020019081526020016000206000015481526020019081526020016000208054610fe690613289565b80601f016020809104026020016040519081016040528092919081815260200182805461101290613289565b801561105f5780601f106110345761010080835404028352916020019161105f565b820191906000526020600020905b81548152906001019060200180831161104257829003601f168201915b50505050506006600060096000898152602001908152602001600020600101548152602001908152602001600020805461109890613289565b80601f01602080910402602001604051908101604052809291908181526020018280546110c490613289565b80156111115780601f106110e657610100808354040283529160200191611111565b820191906000526020600020905b8154815290600101906020018083116110f457829003601f168201915b50505050508587612015565b8060096000868152602001908152602001600020600101819055506112a66006600060096000888152602001908152602001600020600001548152602001908152602001600020805461116f90613289565b80601f016020809104026020016040519081016040528092919081815260200182805461119b90613289565b80156111e85780601f106111bd576101008083540402835291602001916111e8565b820191906000526020600020905b8154815290600101906020018083116111cb57829003601f168201915b50505050506006600060096000898152602001908152602001600020600101548152602001908152602001600020805461122190613289565b80601f016020809104026020016040519081016040528092919081815260200182805461124d90613289565b801561129a5780601f1061126f5761010080835404028352916020019161129a565b820191906000526020600020905b81548152906001019060200180831161127d57829003601f168201915b5050505050858761214d565b50505050565b60006112b7836117a8565b90506007600082815260200190815260200160002060010160009054906101000a900473ffffffffffffffffffffffffffffffffffffffff1673ffffffffffffffffffffffffffffffffffffffff163373ffffffffffffffffffffffffffffffffffffffff161461135d576040517f08c379a0000000000000000000000000000000000000000000000000000000008152600401611354906143de565b60405180910390fd5b81600a6000838152602001908152602001600020908161137d91906145aa565b50505050565b6000600260009054906101000a900473ffffffffffffffffffffffffffffffffffffffff1673ffffffffffffffffffffffffffffffffffffffff16639deb17f583600a60006113d1876117a8565b81526020019081526020016000206040518363ffffffff1660e01b81526004016113fc929190614700565b602060405180830381865afa158015611419573d6000803e3d6000fd5b505050506040513d601f19601f8201168201806040525081019061143d919061474c565b9050919050565b600061144f83611efe565b90506000600760008381526020019081526020016000209050600073ffffffffffffffffffffffffffffffffffffffff168160010160009054906101000a900473ffffffffffffffffffffffffffffffffffffffff1673ffffffffffffffffffffffffffffffffffffffff161461157f573373ffffffffffffffffffffffffffffffffffffffff168160010160009054906101000a900473ffffffffffffffffffffffffffffffffffffffff1673ffffffffffffffffffffffffffffffffffffffff1614611552576040517f08c379a0000000000000000000000000000000000000000000000000000000008152600401611549906147eb565b60405180910390fd5b6000816000015484611564919061483a565b90506000811115611579578382600001819055505b5061161b565b60405180604001604052808481526020013373ffffffffffffffffffffffffffffffffffffffff16815250600760008481526020019081526020016000206000820151816000015560208201518160010160006101000a81548173ffffffffffffffffffffffffffffffffffffffff021916908373ffffffffffffffffffffffffffffffffffffffff16021790555090505061161a826122f7565b5b50505050565b61162a8261190f565b73ffffffffffffffffffffffffffffffffffffffff163373ffffffffffffffffffffffffffffffffffffffff1614611697576040517f08c379a000000000000000000000000000000000000000000000000000000000815260040161168e90613335565b60405180910390fd5b80600b600084815260200190815260200160002060006101000a81548173ffffffffffffffffffffffffffffffffffffffff021916908373ffffffffffffffffffffffffffffffffffffffff1602179055505050565b60606006600060096000858152602001908152602001600020600001548152602001908152602001600020805461172390613289565b80601f016020809104026020016040519081016040528092919081815260200182805461174f90613289565b801561179c5780601f106117715761010080835404028352916020019161179c565b820191906000526020600020905b81548152906001019060200180831161177f57829003601f168201915b50505050509050919050565b600080826040516020016117bc9190612cf4565b6040516020818303038152906040528051906020012090506005600082815260200190815260200160002060000154915050919050565b6000808273__$bfe9954da5d0c317619e6e625b17f2c42f$__636b0bd8f190916040518263ffffffff1660e01b815260040161182f91906148b8565b600060405180830381865af415801561184c573d6000803e3d6000fd5b505050506040513d6000823e3d601f19601f8201168201806040525081019061187591906149fe565b9050806020015173ffffffffffffffffffffffffffffffffffffffff16636352211e82604001516040518263ffffffff1660e01b81526004016118b89190612d2f565b602060405180830381865afa1580156118d5573d6000803e3d6000fd5b505050506040513d601f19601f820116820180604052508101906118f99190614a47565b915050919050565b600081600001549050919050565b6000806006600060096000868152602001908152602001600020600101548152602001908152602001600020805461194690613289565b80601f016020809104026020016040519081016040528092919081815260200182805461197290613289565b80156119bf5780601f10611994576101008083540402835291602001916119bf565b820191906000526020600020905b8154815290600101906020018083116119a257829003601f168201915b505050505073__$bfe9954da5d0c317619e6e625b17f2c42f$__636b0bd8f190916040518263ffffffff1660e01b81526004016119fc91906148b8565b600060405180830381865af4158015611a19573d6000803e3d6000fd5b505050506040513d6000823e3d601f19601f82011682018060405250810190611a4291906149fe565b9050806020015173ffffffffffffffffffffffffffffffffffffffff16636352211e82604001516040518263ffffffff1660e01b8152600401611a859190612d2f565b602060405180830381865afa158015611aa2573d6000803e3d6000fd5b505050506040513d601f19601f82011682018060405250810190611ac69190614a47565b915050919050565b606060018054611add90613289565b80601f0160208091040260200160405190810160405280929190818152602001828054611b0990613289565b8015611b565780601f10611b2b57610100808354040283529160200191611b56565b820191906000526020600020905b815481529060010190602001808311611b3957829003601f168201915b5050505050905090565b606060008203611ba7576040518060400160405280600181526020017f30000000000000000000000000000000000000000000000000000000000000008152509050611cbb565b600082905060005b60008214611bd9578080611bc290614a74565b915050600a82611bd29190614aeb565b9150611baf565b60008167ffffffffffffffff811115611bf557611bf4612e1d565b5b6040519080825280601f01601f191660200182016040528015611c275781602001600182028036833780820191505090505b5090505b60008514611cb457600182611c40919061483a565b9150600a85611c4f9190614b1c565b6030611c5b9190614b4d565b60f81b818381518110611c7157611c706132ba565b5b60200101907effffffffffffffffffffffffffffffffffffffffffffffffffffffffffffff1916908160001a905350600a85611cad9190614aeb565b9450611c2b565b8093505050505b919050565b606060066000600960008581526020019081526020016000206001015481526020019081526020016000208054611cf690613289565b80601f0160208091040260200160405190810160405280929190818152602001828054611d2290613289565b8015611d6f5780601f10611d4457610100808354040283529160200191611d6f565b820191906000526020600020905b815481529060010190602001808311611d5257829003601f168201915b50505050509050919050565b6000600d80549050905090565b60606000825103611daa57604051806020016040528060008152509050611ee6565b6000604051806060016040528060408152602001614d056040913990506000600360028551611dd99190614b4d565b611de39190614aeb565b6004611def9190614b81565b67ffffffffffffffff811115611e0857611e07612e1d565b5b6040519080825280601f01601f191660200182016040528015611e3a5781602001600182028036833780820191505090505b509050600182016020820185865187015b80821015611ea6576003820191508151603f8160121c168501518453600184019350603f81600c1c168501518453600184019350603f8160061c168501518453600184019350603f8116850151845360018401935050611e4b565b5050600386510660018114611ec25760028114611ed557611edd565b603d6001830353603d6002830353611edd565b603d60018303535b50505080925050505b919050565b6000808290506000815114915050919050565b60008082604051602001611f129190612cf4565b60405160208183030381529060405280519060200120905060016005600083815260200190815260200160002060010160009054906101000a900460ff1660ff1603611f77576005600082815260200190815260200160002060000154915050612010565b6000611f836004611901565b90506040518060400160405280828152602001600160ff16815250600560008481526020019081526020016000206000820151816000015560208201518160010160006101000a81548160ff021916908360ff16021790555090505083600660008381526020019081526020016000209081611fff91906145aa565b5061200a600461227d565b80925050505b919050565b61202184848484612340565b600061202c856117a8565b90506000612039856117a8565b90506000612046856117a8565b90506120ce6040518060400160405280600881526020017f66726f6d456e643f00000000000000000000000000000000000000000000000081525061208a88611eeb565b6040518060400160405280600681526020017f746f456e643f00000000000000000000000000000000000000000000000000008152506120c989611eeb565b612346565b6120d786611eeb565b156120fe576120e5846123e8565b6120ef8385612431565b6120f981856124bd565b612144565b61210785611eeb565b1561212e5761211584612549565b61211f838561261a565b6121298285612730565b612143565b6121388285612730565b61214281856124bd565b5b5b50505050505050565b61215984848484612846565b6000612164856117a8565b90506000612171846117a8565b905061221d6040518060400160405280600981526020017f73746172745365713f00000000000000000000000000000000000000000000008152506121c760106000868152602001908152602001600020611901565b6040518060400160405280600981526020017f746f456e645365713f0000000000000000000000000000000000000000000000815250612218600f6000878152602001908152602001600020611901565b61284c565b600061223a60106000858152602001908152602001600020611901565b0361224957612248866128ee565b5b6000612266600f6000848152602001908152602001600020611901565b036122755761227486612a15565b5b505050505050565b6001816000016000828254019250508190555050565b600080836040516020016122a79190612cf4565b6040516020818303038152906040528051906020012090506000836040516020016122d29190612cf4565b6040516020818303038152906040528051906020012090508082149250505092915050565b600d80549050600e600083815260200190815260200160002081905550600d81908060018154018082558091505060019003906000526020600020016000909190919091505550565b50505050565b6123e2848484846040516024016123609493929190614bc3565b6040516020818303038152906040527f3f8a701d000000000000000000000000000000000000000000000000000000007bffffffffffffffffffffffffffffffffffffffffffffffffffffffff19166020820180517bffffffffffffffffffffffffffffffffffffffffffffffffffffffff8381831617835250505050612ab1565b50505050565b6015805490506016600083815260200190815260200160002081905550601581908060018154018082558091505060019003906000526020600020016000909190919091505550565b61244c6010600084815260200190815260200160002061227d565b6000600161246b60106000868152602001908152602001600020611901565b612475919061483a565b90508160116000858152602001908152602001600020600083815260200190815260200160002081905550806013600084815260200190815260200160002081905550505050565b6124d8600f600084815260200190815260200160002061227d565b600060016124f7600f6000868152602001908152602001600020611901565b612501919061483a565b90508160126000858152602001908152602001600020600083815260200190815260200160002081905550806014600084815260200190815260200160002081905550505050565b6000600160158054905061255d919061483a565b905060006016600084815260200190815260200160002054905060006015838154811061258d5761258c6132ba565b5b9060005260206000200154905080601583815481106125af576125ae6132ba565b5b9060005260206000200181905550816016600083815260200190815260200160002081905550601660008581526020019081526020016000206000905560158054806125fe576125fd614c16565b5b6001900381819060005260206000200160009055905550505050565b6000600161263960106000868152602001908152602001600020611901565b612643919061483a565b90506000601360008481526020019081526020016000205490508181146126d05760006011600086815260200190815260200160002060008481526020019081526020016000205490508060116000878152602001908152602001600020600084815260200190815260200160002081905550816013600083815260200190815260200160002081905550505b60136000848152602001908152602001600020600090556011600085815260200190815260200160002060008381526020019081526020016000206000905561272a60106000868152602001908152602001600020612ada565b50505050565b6000600161274f600f6000868152602001908152602001600020611901565b612759919061483a565b90506000601460008481526020019081526020016000205490508181146127e65760006012600086815260200190815260200160002060008481526020019081526020016000205490508060126000878152602001908152602001600020600084815260200190815260200160002081905550816014600083815260200190815260200160002081905550505b601460008481526020019081526020016000206000905560126000858152602001908152602001600020600083815260200190815260200160002060009055612840600f6000868152602001908152602001600020612ada565b50505050565b50505050565b6128e8848484846040516024016128669493929190614c45565b6040516020818303038152906040527fc67ea9d1000000000000000000000000000000000000000000000000000000007bffffffffffffffffffffffffffffffffffffffffffffffffffffffff19166020820180517bffffffffffffffffffffffffffffffffffffffffffffffffffffffff8381831617835250505050612ab1565b50505050565b6000816040516020016129019190612cf4565b604051602081830303815290604052805190602001209050600060056000838152602001908152602001600020600001549050600560008381526020019081526020016000206000808201600090556001820160006101000a81549060ff021916905550506006600082815260200190815260200160002060006129859190612c07565b600a600082815260200190815260200160002060006129a49190612c07565b600860008281526020019081526020016000206000808201600090555050600760008281526020019081526020016000206000808201600090556001820160006101000a81549073ffffffffffffffffffffffffffffffffffffffff02191690555050612a1081612b36565b505050565b600081604051602001612a289190612cf4565b604051602081830303815290604052805190602001209050600060056000838152602001908152602001600020600001549050600560008381526020019081526020016000206000808201600090556001820160006101000a81549060ff02191690555050600660008281526020019081526020016000206000612aac9190612c07565b505050565b60008151905060006a636f6e736f6c652e6c6f679050602083016000808483855afa5050505050565b60008160000154905060008111612b26576040517f08c379a0000000000000000000000000000000000000000000000000000000008152600401612b1d90614ce4565b60405180910390fd5b6001810382600001819055505050565b60006001600d80549050612b4a919061483a565b90506000600e60008481526020019081526020016000205490506000600d8381548110612b7a57612b796132ba565b5b9060005260206000200154905080600d8381548110612b9c57612b9b6132ba565b5b906000526020600020018190555081600e600083815260200190815260200160002081905550600e600085815260200190815260200160002060009055600d805480612beb57612bea614c16565b5b6001900381819060005260206000200160009055905550505050565b508054612c1390613289565b6000825580601f10612c255750612c44565b601f016020900490600052602060002090810190612c439190612c47565b5b50565b5b80821115612c60576000816000905550600101612c48565b5090565b600081519050919050565b600082825260208201905092915050565b60005b83811015612c9e578082015181840152602081019050612c83565b60008484015250505050565b6000601f19601f8301169050919050565b6000612cc682612c64565b612cd08185612c6f565b9350612ce0818560208601612c80565b612ce981612caa565b840191505092915050565b60006020820190508181036000830152612d0e8184612cbb565b905092915050565b6000819050919050565b612d2981612d16565b82525050565b6000602082019050612d446000830184612d20565b92915050565b6000604051905090565b600080fd5b600080fd5b612d6781612d16565b8114612d7257600080fd5b50565b600081359050612d8481612d5e565b92915050565b600060208284031215612da057612d9f612d54565b5b6000612dae84828501612d75565b91505092915050565b600073ffffffffffffffffffffffffffffffffffffffff82169050919050565b6000612de282612db7565b9050919050565b612df281612dd7565b82525050565b6000602082019050612e0d6000830184612de9565b92915050565b600080fd5b600080fd5b7f4e487b7100000000000000000000000000000000000000000000000000000000600052604160045260246000fd5b612e5582612caa565b810181811067ffffffffffffffff82111715612e7457612e73612e1d565b5b80604052505050565b6000612e87612d4a565b9050612e938282612e4c565b919050565b600067ffffffffffffffff821115612eb357612eb2612e1d565b5b612ebc82612caa565b9050602081019050919050565b82818337600083830152505050565b6000612eeb612ee684612e98565b612e7d565b905082815260208101848484011115612f0757612f06612e18565b5b612f12848285612ec9565b509392505050565b600082601f830112612f2f57612f2e612e13565b5b8135612f3f848260208601612ed8565b91505092915050565b60008060408385031215612f5f57612f5e612d54565b5b600083013567ffffffffffffffff811115612f7d57612f7c612d59565b5b612f8985828601612f1a565b9250506020612f9a85828601612d75565b9150509250929050565b612fad81612dd7565b8114612fb857600080fd5b50565b600081359050612fca81612fa4565b92915050565b60008115159050919050565b612fe581612fd0565b8114612ff057600080fd5b50565b60008135905061300281612fdc565b92915050565b60008060006060848603121561302157613020612d54565b5b600084013567ffffffffffffffff81111561303f5761303e612d59565b5b61304b86828701612f1a565b935050602061305c86828701612fbb565b925050604061306d86828701612ff3565b9150509250925092565b60006020828403121561308d5761308c612d54565b5b600082013567ffffffffffffffff8111156130ab576130aa612d59565b5b6130b784828501612f1a565b91505092915050565b600080604083850312156130d7576130d6612d54565b5b600083013567ffffffffffffffff8111156130f5576130f4612d59565b5b61310185828601612f1a565b925050602083013567ffffffffffffffff81111561312257613121612d59565b5b61312e85828601612f1a565b9150509250929050565b6000806040838503121561314f5761314e612d54565b5b600083013567ffffffffffffffff81111561316d5761316c612d59565b5b61317985828601612f1a565b925050602061318a85828601612fbb565b9150509250929050565b61319d81612fd0565b82525050565b60006020820190506131b86000830184613194565b92915050565b600080604083850312156131d5576131d4612d54565b5b60006131e385828601612d75565b925050602083013567ffffffffffffffff81111561320457613203612d59565b5b61321085828601612f1a565b9150509250929050565b6000806040838503121561323157613230612d54565b5b600061323f85828601612d75565b925050602061325085828601612fbb565b9150509250929050565b7f4e487b7100000000000000000000000000000000000000000000000000000000600052602260045260246000fd5b600060028204905060018216806132a157607f821691505b6020821081036132b4576132b361325a565b5b50919050565b7f4e487b7100000000000000000000000000000000000000000000000000000000600052603260045260246000fd5b7f6f776e6572000000000000000000000000000000000000000000000000000000600082015250565b600061331f600583612c6f565b915061332a826132e9565b602082019050919050565b6000602082019050818103600083015261334e81613312565b9050919050565b600081905092915050565b7f3c7376672077696474683d2236353022206865696768743d223430302220786d60008201527f6c6e733d22687474703a2f2f7777772e77332e6f72672f323030302f7376672260208201527f3e00000000000000000000000000000000000000000000000000000000000000604082015250565b60006133e2604183613355565b91506133ed82613360565b604182019050919050565b7f3c673e0000000000000000000000000000000000000000000000000000000000600082015250565b600061342e600383613355565b9150613439826133f8565b600382019050919050565b7f3c7469746c653e00000000000000000000000000000000000000000000000000600082015250565b600061347a600783613355565b915061348582613444565b600782019050919050565b600061349b82612c64565b6134a58185613355565b93506134b5818560208601612c80565b80840191505092915050565b7f2023000000000000000000000000000000000000000000000000000000000000600082015250565b60006134f7600283613355565b9150613502826134c1565b600282019050919050565b7f3c2f7469746c653e000000000000000000000000000000000000000000000000600082015250565b6000613543600883613355565b915061354e8261350d565b600882019050919050565b7f3c7465787420783d223022207374726f6b653d22233030302220786d6c3a737060008201527f6163653d2270726573657276652220746578742d616e63686f723d227374617260208201527f742220666f6e742d66616d696c793d224e6f746f2053616e73204a502220666f60408201527f6e742d73697a653d223138222069643d227376675f322220793d22323330222060608201527f7374726f6b652d77696474683d2230222066696c6c3d2223303030303030223e608082015250565b600061362760a083613355565b915061363282613559565b60a082019050919050565b7f3c2f746578743e00000000000000000000000000000000000000000000000000600082015250565b6000613673600783613355565b915061367e8261363d565b600782019050919050565b7f3c7465787420786d6c3a73706163653d2270726573657276652220746578742d60008201527f616e63686f723d2273746172742220666f6e742d66616d696c793d224e6f746f60208201527f2053616e73204a502220666f6e742d73697a653d223138222069643d2273766760408201527f5f332220793d223336302220783d223022207374726f6b652d77696474683d2260608201527f3022207374726f6b653d2223303030222066696c6c3d2223303030303030223e608082015250565b600061375760a083613355565b915061376282613689565b60a082019050919050565b7f3c70617468207472616e73666f726d3d22726f7461746528393020323936203260008201527f383929222069643d227376675f352220643d226d3239382e39323035322c323860208201527f396c2d32382e39323035322c2d31392e30303030316c35322e30303030332c3160408201527f392e30303030316c2d35322e30303030332c31396c32382e39323035322c2d3160608201527f397a22207374726f6b653d2223303030222066696c6c3d22233030303030302260808201527f2f3e00000000000000000000000000000000000000000000000000000000000060a082015250565b600061386160a283613355565b915061386c8261376d565b60a282019050919050565b7f3c7465787420786d6c3a73706163653d2270726573657276652220746578742d60008201527f616e63686f723d2273746172742220666f6e742d66616d696c793d224e6f746f60208201527f2053616e73204a502220666f6e742d73697a653d223138222069643d2273766760408201527f5f362220793d2231392220783d223022207374726f6b652d77696474683d223060608201527f22207374726f6b653d2223303030222066696c6c3d2223303030303030223e4e60808201527f6574776f726b3a0000000000000000000000000000000000000000000000000060a082015250565b600061396b60a783613355565b915061397682613877565b60a782019050919050565b7f3c7465787420786d6c3a73706163653d2270726573657276652220746578742d60008201527f616e63686f723d2273746172742220666f6e742d66616d696c793d224e6f746f60208201527f2053616e73204a502220666f6e742d73697a653d223138222069643d2273766760408201527f5f372220793d223130302220783d223022207374726f6b652d77696474683d2260608201527f3022207374726f6b653d2223303030222066696c6c3d2223303030303030223e60808201527f436c61696d733a0000000000000000000000000000000000000000000000000060a082015250565b6000613a7560a783613355565b9150613a8082613981565b60a782019050919050565b7f3c7465787420786d6c3a73706163653d2270726573657276652220746578742d60008201527f616e63686f723d2273746172742220666f6e742d66616d696c793d224e6f746f60208201527f2053616e73204a502220666f6e742d73697a653d223138222069643d2273766760408201527f5f382220793d223130302220783d2231353022207374726f6b652d776964746860608201527f3d223022207374726f6b653d2223303030222066696c6c3d222330303030303060808201527f223e4c696e6b733a00000000000000000000000000000000000000000000000060a082015250565b6000613b7f60a883613355565b9150613b8a82613a8b565b60a882019050919050565b7f3c7465787420786d6c3a73706163653d2270726573657276652220746578742d60008201527f616e63686f723d2273746172742220666f6e742d66616d696c793d224e6f746f60208201527f2053616e73204a502220666f6e742d73697a653d223138222069643d2273766760408201527f5f392220793d223230302220783d223022207374726f6b652d77696474683d2260608201527f3022207374726f6b653d2223303030222066696c6c3d2223303030303030223e60808201527f4c696e6b20496e666f202300000000000000000000000000000000000000000060a082015250565b6000613c8960ab83613355565b9150613c9482613b95565b60ab82019050919050565b7f3c2f673e00000000000000000000000000000000000000000000000000000000600082015250565b6000613cd5600483613355565b9150613ce082613c9f565b600482019050919050565b7f3c2f7376673e0000000000000000000000000000000000000000000000000000600082015250565b6000613d21600683613355565b9150613d2c82613ceb565b600682019050919050565b6000613d42826133d5565b9150613d4d82613421565b9150613d588261346d565b9150613d64828b613490565b9150613d6f826134ea565b9150613d7b828a613490565b9150613d8682613536565b9150613d918261361a565b9150613d9d8289613490565b9150613da882613666565b9150613db38261374a565b9150613dbf8288613490565b9150613dca82613666565b9150613dd582613854565b9150613de08261395e565b9150613dec8287613490565b9150613df782613666565b9150613e0282613a68565b9150613e0e8286613490565b9150613e1982613666565b9150613e2482613b72565b9150613e308285613490565b9150613e3b82613666565b9150613e4682613c7c565b9150613e528284613490565b9150613e5d82613666565b9150613e6882613cc8565b9150613e7382613d14565b91508190509998505050505050505050565b7f7b226e616d65223a202200000000000000000000000000000000000000000000600082015250565b6000613ebb600a83613355565b9150613ec682613e85565b600a82019050919050565b7f222c20226465736372697074696f6e223a202200000000000000000000000000600082015250565b6000613f07601383613355565b9150613f1282613ed1565b601382019050919050565b7f20697320706f77657265642062792056616c7565204c696e6b2e20222c20226960008201527f6d616765223a2022646174613a696d6167652f7376672b786d6c3b626173653660208201527f342c000000000000000000000000000000000000000000000000000000000000604082015250565b6000613f9f604283613355565b9150613faa82613f1d565b604282019050919050565b7f227d000000000000000000000000000000000000000000000000000000000000600082015250565b6000613feb600283613355565b9150613ff682613fb5565b600282019050919050565b600061400c82613eae565b91506140188287613490565b9150614023826134ea565b915061402f8286613490565b915061403a82613efa565b91506140468285613490565b915061405182613f92565b915061405d8284613490565b915061406882613fde565b915081905095945050505050565b7f646174613a6170706c69636174696f6e2f6a736f6e3b6261736536342c000000600082015250565b60006140ac601d83613355565b91506140b782614076565b601d82019050919050565b60006140cd8261409f565b91506140d98284613490565b915081905092915050565b7f557269206973206e6f7420616c6c6f77656420656d7074792100000000000000600082015250565b600061411a601983612c6f565b9150614125826140e4565b602082019050919050565b600060208201905081810360008301526141498161410d565b9050919050565b7f73746172744e4654557269206973206e6f7420636c61696d6564210000000000600082015250565b6000614186601b83612c6f565b915061419182614150565b602082019050919050565b600060208201905081810360008301526141b581614179565b9050919050565b7f6d696e742066696e697368000000000000000000000000000000000000000000600082015250565b60006141f2600b83612c6f565b91506141fd826141bc565b602082019050919050565b60006020820190508181036000830152614221816141e5565b9050919050565b7f56616c75654c696e6b456e756d657261626c653a20676c6f62616c20696e646560008201527f78206f7574206f6620626f756e64730000000000000000000000000000000000602082015250565b6000614284602f83612c6f565b915061428f82614228565b604082019050919050565b600060208201905081810360008301526142b381614277565b9050919050565b7f73616d6520746172676574207572692c206e6f206368616e6765000000000000600082015250565b60006142f0601a83612c6f565b91506142fb826142ba565b602082019050919050565b6000602082019050818103600083015261431f816142e3565b9050919050565b7f6e6f206f776e6572206f72206e6f20617070726f76616c000000000000000000600082015250565b600061435c601783612c6f565b915061436782614326565b602082019050919050565b6000602082019050818103600083015261438b8161434f565b9050919050565b7f6e6f7420636c61696d6572000000000000000000000000000000000000000000600082015250565b60006143c8600b83612c6f565b91506143d382614392565b602082019050919050565b600060208201905081810360008301526143f7816143bb565b9050919050565b60008190508160005260206000209050919050565b60006020601f8301049050919050565b600082821b905092915050565b6000600883026144607fffffffffffffffffffffffffffffffffffffffffffffffffffffffffffffffff82614423565b61446a8683614423565b95508019841693508086168417925050509392505050565b6000819050919050565b60006144a76144a261449d84612d16565b614482565b612d16565b9050919050565b6000819050919050565b6144c18361448c565b6144d56144cd826144ae565b848454614430565b825550505050565b600090565b6144ea6144dd565b6144f58184846144b8565b505050565b5b818110156145195761450e6000826144e2565b6001810190506144fb565b5050565b601f82111561455e5761452f816143fe565b61453884614413565b81016020851015614547578190505b61455b61455385614413565b8301826144fa565b50505b505050565b600082821c905092915050565b600061458160001984600802614563565b1980831691505092915050565b600061459a8383614570565b9150826002028217905092915050565b6145b382612c64565b67ffffffffffffffff8111156145cc576145cb612e1d565b5b6145d68254613289565b6145e182828561451d565b600060209050601f8311600181146146145760008415614602578287015190505b61460c858261458e565b865550614674565b601f198416614622866143fe565b60005b8281101561464a57848901518255600182019150602085019450602081019050614625565b868310156146675784890151614663601f891682614570565b8355505b6001600288020188555050505b505050505050565b6000815461468981613289565b6146938186612c6f565b945060018216600081146146ae57600181146146c4576146f7565b60ff1983168652811515602002860193506146f7565b6146cd856143fe565b60005b838110156146ef578154818901526001820191506020810190506146d0565b808801955050505b50505092915050565b6000604082019050818103600083015261471a8185612cbb565b9050818103602083015261472e818461467c565b90509392505050565b60008151905061474681612fdc565b92915050565b60006020828403121561476257614761612d54565b5b600061477084828501614737565b91505092915050565b7f6f6e6c79206f776e65722063616e2075706461746520746f74616c207375707060008201527f6c79000000000000000000000000000000000000000000000000000000000000602082015250565b60006147d5602283612c6f565b91506147e082614779565b604082019050919050565b60006020820190508181036000830152614804816147c8565b9050919050565b7f4e487b7100000000000000000000000000000000000000000000000000000000600052601160045260246000fd5b600061484582612d16565b915061485083612d16565b92508282039050818111156148685761486761480b565b5b92915050565b600082825260208201905092915050565b600061488a82612c64565b614894818561486e565b93506148a4818560208601612c80565b6148ad81612caa565b840191505092915050565b600060208201905081810360008301526148d2818461487f565b905092915050565b600080fd5b600080fd5b60006148f76148f284612e98565b612e7d565b90508281526020810184848401111561491357614912612e18565b5b61491e848285612c80565b509392505050565b600082601f83011261493b5761493a612e13565b5b815161494b8482602086016148e4565b91505092915050565b60008151905061496381612fa4565b92915050565b60008151905061497881612d5e565b92915050565b600060608284031215614994576149936148da565b5b61499e6060612e7d565b9050600082015167ffffffffffffffff8111156149be576149bd6148df565b5b6149ca84828501614926565b60008301525060206149de84828501614954565b60208301525060406149f284828501614969565b60408301525092915050565b600060208284031215614a1457614a13612d54565b5b600082015167ffffffffffffffff811115614a3257614a31612d59565b5b614a3e8482850161497e565b91505092915050565b600060208284031215614a5d57614a5c612d54565b5b6000614a6b84828501614954565b91505092915050565b6000614a7f82612d16565b91507fffffffffffffffffffffffffffffffffffffffffffffffffffffffffffffffff8203614ab157614ab061480b565b5b600182019050919050565b7f4e487b7100000000000000000000000000000000000000000000000000000000600052601260045260246000fd5b6000614af682612d16565b9150614b0183612d16565b925082614b1157614b10614abc565b5b828204905092915050565b6000614b2782612d16565b9150614b3283612d16565b925082614b4257614b41614abc565b5b828206905092915050565b6000614b5882612d16565b9150614b6383612d16565b9250828201905080821115614b7b57614b7a61480b565b5b92915050565b6000614b8c82612d16565b9150614b9783612d16565b9250828202614ba581612d16565b91508282048414831517614bbc57614bbb61480b565b5b5092915050565b60006080820190508181036000830152614bdd8187612cbb565b9050614bec6020830186613194565b8181036040830152614bfe8185612cbb565b9050614c0d6060830184613194565b95945050505050565b7f4e487b7100000000000000000000000000000000000000000000000000000000600052603160045260246000fd5b60006080820190508181036000830152614c5f8187612cbb565b9050614c6e6020830186612d20565b8181036040830152614c808185612cbb565b9050614c8f6060830184612d20565b95945050505050565b7f436f756e7465723a2064656372656d656e74206f766572666c6f770000000000600082015250565b6000614cce601b83612c6f565b9150614cd982614c98565b602082019050919050565b60006020820190508181036000830152614cfd81614cc1565b905091905056fe4142434445464748494a4b4c4d4e4f505152535455565758595a6162636465666768696a6b6c6d6e6f707172737475767778797a303132333435363738392b2fa264697066735822122034638e4feaab45dc644040de1340296d2b041f5ed3308f19b5c587f6b4b3ab2664736f6c63430008110033",
  "linkReferences": {
    "contracts/NFTUri.sol": {
      "NFTUri": [
        {
          "length": 20,
          "start": 7455
        },
        {
          "length": 20,
          "start": 7916
        }
      ]
    }
  },
  "deployedLinkReferences": {
    "contracts/NFTUri.sol": {
      "NFTUri": [
        {
          "length": 20,
          "start": 6137
        },
        {
          "length": 20,
          "start": 6598
        }
      ]
    }
  }
}